{"project/contracts/HubarbPool.sol":{"HubarbPool":{"abi":[{"inputs":[],"stateMutability":"nonpayable","type":"constructor"},{"inputs":[{"internalType":"address","name":"spender","type":"address"},{"internalType":"uint256","name":"allowance","type":"uint256"},{"internalType":"uint256","name":"needed","type":"uint256"}],"name":"ERC20InsufficientAllowance","type":"error"},{"inputs":[{"internalType":"address","name":"sender","type":"address"},{"internalType":"uint256","name":"balance","type":"uint256"},{"internalType":"uint256","name":"needed","type":"uint256"}],"name":"ERC20InsufficientBalance","type":"error"},{"inputs":[{"internalType":"address","name":"approver","type":"address"}],"name":"ERC20InvalidApprover","type":"error"},{"inputs":[{"internalType":"address","name":"receiver","type":"address"}],"name":"ERC20InvalidReceiver","type":"error"},{"inputs":[{"internalType":"address","name":"sender","type":"address"}],"name":"ERC20InvalidSender","type":"error"},{"inputs":[{"internalType":"address","name":"spender","type":"address"}],"name":"ERC20InvalidSpender","type":"error"},{"inputs":[{"internalType":"address","name":"owner","type":"address"}],"name":"OwnableInvalidOwner","type":"error"},{"inputs":[{"internalType":"address","name":"account","type":"address"}],"name":"OwnableUnauthorizedAccount","type":"error"},{"inputs":[],"name":"ReentrancyGuardReentrantCall","type":"error"},{"inputs":[{"internalType":"address","name":"token","type":"address"}],"name":"SafeERC20FailedOperation","type":"error"},{"anonymous":false,"inputs":[{"indexed":true,"internalType":"address","name":"owner","type":"address"},{"indexed":true,"internalType":"address","name":"spender","type":"address"},{"indexed":false,"internalType":"uint256","name":"value","type":"uint256"}],"name":"Approval","type":"event"},{"anonymous":false,"inputs":[{"indexed":true,"internalType":"address","name":"by","type":"address"},{"indexed":false,"internalType":"uint256","name":"ethAmount","type":"uint256"},{"indexed":false,"internalType":"uint256","name":"funAmount","type":"uint256"},{"indexed":false,"internalType":"uint256","name":"lpMinted","type":"uint256"}],"name":"LiquidityAdded","type":"event"},{"anonymous":false,"inputs":[{"indexed":true,"internalType":"address","name":"by","type":"address"},{"indexed":false,"internalType":"uint256","name":"ethAmount","type":"uint256"},{"indexed":false,"internalType":"uint256","name":"funAmount","type":"uint256"},{"indexed":false,"internalType":"uint256","name":"lpBurned","type":"uint256"}],"name":"LiquidityRemoved","type":"event"},{"anonymous":false,"inputs":[{"indexed":true,"internalType":"address","name":"previousOwner","type":"address"},{"indexed":true,"internalType":"address","name":"newOwner","type":"address"}],"name":"OwnershipTransferred","type":"event"},{"anonymous":false,"inputs":[{"indexed":true,"internalType":"address","name":"by","type":"address"},{"indexed":true,"internalType":"address","name":"tokenIn","type":"address"},{"indexed":false,"internalType":"uint256","name":"amountIn","type":"uint256"},{"indexed":false,"internalType":"uint256","name":"amountOut","type":"uint256"}],"name":"Swap","type":"event"},{"anonymous":false,"inputs":[{"indexed":true,"internalType":"address","name":"from","type":"address"},{"indexed":true,"internalType":"address","name":"to","type":"address"},{"indexed":false,"internalType":"uint256","name":"value","type":"uint256"}],"name":"Transfer","type":"event"},{"inputs":[{"internalType":"uint256","name":"funAmount","type":"uint256"},{"internalType":"uint256","name":"minLpOut","type":"uint256"}],"name":"addLiquidity","outputs":[{"internalType":"uint256","name":"lpMinted","type":"uint256"}],"stateMutability":"payable","type":"function"},{"inputs":[{"internalType":"address","name":"owner","type":"address"},{"internalType":"address","name":"spender","type":"address"}],"name":"allowance","outputs":[{"internalType":"uint256","name":"","type":"uint256"}],"stateMutability":"view","type":"function"},{"inputs":[{"internalType":"address","name":"spender","type":"address"},{"internalType":"uint256","name":"value","type":"uint256"}],"name":"approve","outputs":[{"internalType":"bool","name":"","type":"bool"}],"stateMutability":"nonpayable","type":"function"},{"inputs":[{"internalType":"address","name":"account","type":"address"}],"name":"balanceOf","outputs":[{"internalType":"uint256","name":"","type":"uint256"}],"stateMutability":"view","type":"function"},{"inputs":[],"name":"decimals","outputs":[{"internalType":"uint8","name":"","type":"uint8"}],"stateMutability":"view","type":"function"},{"inputs":[],"name":"ethReserve","outputs":[{"internalType":"uint256","name":"","type":"uint256"}],"stateMutability":"view","type":"function"},{"inputs":[],"name":"funReserve","outputs":[{"internalType":"uint256","name":"","type":"uint256"}],"stateMutability":"view","type":"function"},{"inputs":[],"name":"funToken","outputs":[{"internalType":"contract IERC20","name":"","type":"address"}],"stateMutability":"view","type":"function"},{"inputs":[],"name":"getReserves","outputs":[{"internalType":"uint256","name":"eth","type":"uint256"},{"internalType":"uint256","name":"fun","type":"uint256"}],"stateMutability":"view","type":"function"},{"inputs":[],"name":"name","outputs":[{"internalType":"string","name":"","type":"string"}],"stateMutability":"view","type":"function"},{"inputs":[],"name":"owner","outputs":[{"internalType":"address","name":"","type":"address"}],"stateMutability":"view","type":"function"},{"inputs":[{"internalType":"uint256","name":"ethIn","type":"uint256"}],"name":"quoteEthForFun","outputs":[{"internalType":"uint256","name":"funOut","type":"uint256"}],"stateMutability":"view","type":"function"},{"inputs":[{"internalType":"uint256","name":"funIn","type":"uint256"}],"name":"quoteFunForEth","outputs":[{"internalType":"uint256","name":"ethOut","type":"uint256"}],"stateMutability":"view","type":"function"},{"inputs":[{"internalType":"uint256","name":"lpAmount","type":"uint256"}],"name":"removeLiquidity","outputs":[{"internalType":"uint256","name":"ethOut","type":"uint256"},{"internalType":"uint256","name":"funOut","type":"uint256"}],"stateMutability":"nonpayable","type":"function"},{"inputs":[],"name":"renounceOwnership","outputs":[],"stateMutability":"nonpayable","type":"function"},{"inputs":[{"internalType":"address","name":"_fun","type":"address"}],"name":"setTokens","outputs":[],"stateMutability":"nonpayable","type":"function"},{"inputs":[{"internalType":"uint256","name":"minFunOut","type":"uint256"}],"name":"swapEthForFun","outputs":[{"internalType":"uint256","name":"funOut","type":"uint256"}],"stateMutability":"payable","type":"function"},{"inputs":[{"internalType":"uint256","name":"funIn","type":"uint256"},{"internalType":"uint256","name":"minEthOut","type":"uint256"}],"name":"swapFunForEth","outputs":[{"internalType":"uint256","name":"ethOut","type":"uint256"}],"stateMutability":"nonpayable","type":"function"},{"inputs":[],"name":"symbol","outputs":[{"internalType":"string","name":"","type":"string"}],"stateMutability":"view","type":"function"},{"inputs":[],"name":"totalSupply","outputs":[{"internalType":"uint256","name":"","type":"uint256"}],"stateMutability":"view","type":"function"},{"inputs":[{"internalType":"address","name":"to","type":"address"},{"internalType":"uint256","name":"value","type":"uint256"}],"name":"transfer","outputs":[{"internalType":"bool","name":"","type":"bool"}],"stateMutability":"nonpayable","type":"function"},{"inputs":[{"internalType":"address","name":"from","type":"address"},{"internalType":"address","name":"to","type":"address"},{"internalType":"uint256","name":"value","type":"uint256"}],"name":"transferFrom","outputs":[{"internalType":"bool","name":"","type":"bool"}],"stateMutability":"nonpayable","type":"function"},{"inputs":[{"internalType":"address","name":"newOwner","type":"address"}],"name":"transferOwnership","outputs":[],"stateMutability":"nonpayable","type":"function"},{"stateMutability":"payable","type":"receive"}],"evm":{"bytecode":{"linkReferences":{},"object":"608060405234801562000010575f80fd5b5033604051806040016040528060098152602001680485542415242204c560bc1b815250604051806040016040528060038152602001620484c560ec1b8152508160039081620000619190620001c8565b506004620000708282620001c8565b5050506001600160a01b038116620000a157604051631e4fbdf760e01b81525f600482015260240160405180910390fd5b620000ac81620000d7565b5060017f9b779b17422d0df92223018b32b4d1fa46e071723d6817e2486d003becc55f005562000290565b600580546001600160a01b038381166001600160a01b0319831681179093556040519116919082907f8be0079c531659141344cd1fd0a4f28419497f9722a3daafe3b4186f6b6457e0905f90a35050565b634e487b7160e01b5f52604160045260245ffd5b600181811c908216806200015157607f821691505b6020821081036200017057634e487b7160e01b5f52602260045260245ffd5b50919050565b601f821115620001c3575f81815260208120601f850160051c810160208610156200019e5750805b601f850160051c820191505b81811015620001bf57828155600101620001aa565b5050505b505050565b81516001600160401b03811115620001e457620001e462000128565b620001fc81620001f584546200013c565b8462000176565b602080601f83116001811462000232575f84156200021a5750858301515b5f19600386901b1c1916600185901b178555620001bf565b5f85815260208120601f198616915b82811015620002625788860151825594840194600190910190840162000241565b50858210156200028057878501515f19600388901b60f8161c191681555b5050505050600190811b01905550565b6118b9806200029e5f395ff3fe60806040526004361061013f575f3560e01c8063845380a2116100b35780639cd441da1161006d5780639cd441da146103d4578063a639eb4d146103e7578063a9059cbb14610406578063d62ccb3f14610425578063dd62ed3e1461043a578063f2fde38b1461047e575f80fd5b8063845380a21461031957806385bd3bc2146103505780638da5cb5b1461036557806395d89b411461038257806396120636146103965780639c8f9f23146103b5575f80fd5b8063313ce56711610104578063313ce5671461026357806354ec83ec1461027e5780636e42c2411461029157806370a08231146102b0578063715018a6146102e4578063768e061c146102fa575f80fd5b806306fdde03146101a55780630902f1ac146101cf578063095ea7b3146101f757806318160ddd1461022657806323b872dd14610244575f80fd5b366101a15760405162461bcd60e51b815260206004820152602760248201527f506f6f6c3a20757365206164644c6971756964697479206f7220737761704574604482015266342337b9233ab760c91b60648201526084015b60405180910390fd5b5f80fd5b3480156101b0575f80fd5b506101b961049d565b6040516101c69190611656565b60405180910390f35b3480156101da575f80fd5b506007546008545b604080519283526020830191909152016101c6565b348015610202575f80fd5b506102166102113660046116b7565b61052d565b60405190151581526020016101c6565b348015610231575f80fd5b506002545b6040519081526020016101c6565b34801561024f575f80fd5b5061021661025e3660046116df565b610546565b34801561026e575f80fd5b50604051601281526020016101c6565b61023661028c366004611718565b610569565b34801561029c575f80fd5b506102366102ab36600461172f565b61074e565b3480156102bb575f80fd5b506102366102ca36600461174f565b6001600160a01b03165f9081526020819052604090205490565b3480156102ef575f80fd5b506102f86109ce565b005b348015610305575f80fd5b50610236610314366004611718565b6109e1565b348015610324575f80fd5b50600654610338906001600160a01b031681565b6040516001600160a01b0390911681526020016101c6565b34801561035b575f80fd5b5061023660085481565b348015610370575f80fd5b506005546001600160a01b0316610338565b34801561038d575f80fd5b506101b9610a46565b3480156103a1575f80fd5b506102366103b0366004611718565b610a55565b3480156103c0575f80fd5b506101e26103cf366004611718565b610aa9565b6102366103e236600461172f565b610cce565b3480156103f2575f80fd5b506102f861040136600461174f565b610f80565b348015610411575f80fd5b506102166104203660046116b7565b61104e565b348015610430575f80fd5b5061023660075481565b348015610445575f80fd5b50610236610454366004611768565b6001600160a01b039182165f90815260016020908152604080832093909416825291909152205490565b348015610489575f80fd5b506102f861049836600461174f565b61105b565b6060600380546104ac90611799565b80601f01602080910402602001604051908101604052809291908181526020018280546104d890611799565b80156105235780601f106104fa57610100808354040283529160200191610523565b820191905f5260205f20905b81548152906001019060200180831161050657829003601f168201915b5050505050905090565b5f3361053a818585611098565b60019150505b92915050565b5f336105538582856110aa565b61055e858585611126565b506001949350505050565b5f610572611183565b5f34116105b15760405162461bcd60e51b815260206004820152600d60248201526c2837b7b61d103d32b9379034b760991b6044820152606401610198565b5f6105be6103e5346117df565b9050806103e86007546105d191906117df565b6105db91906117f6565b6008546105e890836117df565b6105f29190611809565b91505f821161063f5760405162461bcd60e51b8152602060048201526019602482015278141bdbdb0e881a5b9cdd59999a58da595b9d081bdd5d1c1d5d603a1b6044820152606401610198565b60085482106106905760405162461bcd60e51b815260206004820152601c60248201527f506f6f6c3a20696e73756666696369656e74206c6971756964697479000000006044820152606401610198565b828210156106b05760405162461bcd60e51b815260040161019890611828565b3460075f8282546106c191906117f6565b925050819055508160085f8282546106d99190611850565b90915550506006546106f5906001600160a01b0316338461119e565b60408051348152602081018490525f9133917ffa2dda1cc1b86e41239702756b13effbc1a092b5c57e3ad320fbe4f3b13fe235910160405180910390a35061074960015f8051602061186483398151915255565b919050565b5f610757611183565b5f83116107965760405162461bcd60e51b815260206004820152600d60248201526c2837b7b61d103d32b9379034b760991b6044820152606401610198565b6006546107ae906001600160a01b03163330866111d3565b5f6107bb6103e5856117df565b9050806103e86008546107ce91906117df565b6107d891906117f6565b6007546107e590836117df565b6107ef9190611809565b91505f821161083c5760405162461bcd60e51b8152602060048201526019602482015278141bdbdb0e881a5b9cdd59999a58da595b9d081bdd5d1c1d5d603a1b6044820152606401610198565b600754821061088d5760405162461bcd60e51b815260206004820152601c60248201527f506f6f6c3a20696e73756666696369656e74206c6971756964697479000000006044820152606401610198565b828210156108ad5760405162461bcd60e51b815260040161019890611828565b8360085f8282546108be91906117f6565b925050819055508160075f8282546108d69190611850565b90915550506040515f90339084908381818185875af1925050503d805f811461091a576040519150601f19603f3d011682016040523d82523d5f602084013e61091f565b606091505b505090508061096c5760405162461bcd60e51b8152602060048201526019602482015278141bdbdb0e88115512081d1c985b9cd9995c8819985a5b1959603a1b6044820152606401610198565b60065460408051878152602081018690526001600160a01b039092169133917ffa2dda1cc1b86e41239702756b13effbc1a092b5c57e3ad320fbe4f3b13fe235910160405180910390a3505061054060015f8051602061186483398151915255565b6109d6611209565b6109df5f611236565b565b5f6007545f14806109f25750600854155b156109fe57505f919050565b5f610a0b6103e5846117df565b9050806103e8600754610a1e91906117df565b610a2891906117f6565b600854610a3590836117df565b610a3f9190611809565b9392505050565b6060600480546104ac90611799565b5f6007545f1480610a665750600854155b15610a7257505f919050565b5f610a7f6103e5846117df565b9050806103e8600854610a9291906117df565b610a9c91906117f6565b600754610a3590836117df565b5f80610ab3611183565b5f8311610af25760405162461bcd60e51b815260206004820152600d60248201526c0506f6f6c3a207a65726f206c7609c1b6044820152606401610198565b5f610afc60025490565b90508060075485610b0d91906117df565b610b179190611809565b92508060085485610b2891906117df565b610b329190611809565b91505f83118015610b4257505f82115b610b8e5760405162461bcd60e51b815260206004820152601b60248201527f506f6f6c3a20696e73756666696369656e7420726573657276657300000000006044820152606401610198565b610b983385611287565b8260075f828254610ba99190611850565b925050819055508160085f828254610bc19190611850565b9091555050600654610bdd906001600160a01b0316338461119e565b6040515f90339085908381818185875af1925050503d805f8114610c1c576040519150601f19603f3d011682016040523d82523d5f602084013e610c21565b606091505b5050905080610c6e5760405162461bcd60e51b8152602060048201526019602482015278141bdbdb0e88115512081d1c985b9cd9995c8819985a5b1959603a1b6044820152606401610198565b604080518581526020810185905290810186905233907f1dc8bb69df2b8e91fbdcbfcf93d951b3f0000f085a95fe3f7946d6161439245d9060600160405180910390a25050610cc960015f8051602061186483398151915255565b915091565b5f610cd7611183565b6006546001600160a01b0316610d275760405162461bcd60e51b8152602060048201526015602482015274141bdbdb0e881b9bdd081a5b9a5d1a585b1a5cd959605a1b6044820152606401610198565b5f34118015610d3557505f83115b610d755760405162461bcd60e51b8152602060048201526011602482015270141bdbdb0e881e995c9bc8185b5bdd5b9d607a1b6044820152606401610198565b5f610d7f60025490565b9050805f03610e0f575f610d9b610d9686346117df565b6112bf565b90506103e88111610dee5760405162461bcd60e51b815260206004820152601d60248201527f506f6f6c3a206669727374206465706f73697420746f6f20736d616c6c0000006044820152606401610198565b610dfb60016103e861132c565b610e076103e882611850565b925050610e5a565b6007545f90610e1e83346117df565b610e289190611809565b90505f6008548387610e3a91906117df565b610e449190611809565b9050808210610e535780610e55565b815b935050505b5f8211610eb55760405162461bcd60e51b815260206004820152602360248201527f506f6f6c3a20696e73756666696369656e74206c6971756964697479206d696e6044820152621d195960ea1b6064820152608401610198565b82821015610ed55760405162461bcd60e51b815260040161019890611828565b600654610eed906001600160a01b03163330876111d3565b3460075f828254610efe91906117f6565b925050819055508360085f828254610f1691906117f6565b90915550610f269050338361132c565b604080513481526020810186905290810183905233907f64b83944e79c3ce8d4c297411de637c3e102d064677aac0c163976ebdcd6f50e9060600160405180910390a25061054060015f8051602061186483398151915255565b610f88611209565b6001600160a01b038116610fd35760405162461bcd60e51b8152602060048201526012602482015271506f6f6c3a207a65726f206164647265737360701b6044820152606401610198565b6006546001600160a01b03161561102c5760405162461bcd60e51b815260206004820152601760248201527f506f6f6c3a20746f6b656e20616c7265616479207365740000000000000000006044820152606401610198565b600680546001600160a01b0319166001600160a01b0392909216919091179055565b5f3361053a818585611126565b611063611209565b6001600160a01b03811661108c57604051631e4fbdf760e01b81525f6004820152602401610198565b61109581611236565b50565b6110a58383836001611360565b505050565b6001600160a01b038381165f908152600160209081526040808320938616835292905220545f19811015611120578181101561111257604051637dc7a0d960e11b81526001600160a01b03841660048201526024810182905260448101839052606401610198565b61112084848484035f611360565b50505050565b6001600160a01b03831661114f57604051634b637e8f60e11b81525f6004820152602401610198565b6001600160a01b0382166111785760405163ec442f0560e01b81525f6004820152602401610198565b6110a5838383611432565b61118b611558565b60025f8051602061186483398151915255565b6111ab8383836001611587565b6110a557604051635274afe760e01b81526001600160a01b0384166004820152602401610198565b6111e18484848460016115e9565b61112057604051635274afe760e01b81526001600160a01b0385166004820152602401610198565b6005546001600160a01b031633146109df5760405163118cdaa760e01b8152336004820152602401610198565b600580546001600160a01b038381166001600160a01b0319831681179093556040519116919082907f8be0079c531659141344cd1fd0a4f28419497f9722a3daafe3b4186f6b6457e0905f90a35050565b6001600160a01b0382166112b057604051634b637e8f60e11b81525f6004820152602401610198565b6112bb825f83611432565b5050565b5f600382111561131e5750805f6112d7600283611809565b6112e29060016117f6565b90505b81811015611318579050806002816112fd8186611809565b61130791906117f6565b6113119190611809565b90506112e5565b50919050565b811561074957506001919050565b6001600160a01b0382166113555760405163ec442f0560e01b81525f6004820152602401610198565b6112bb5f8383611432565b6001600160a01b0384166113895760405163e602df0560e01b81525f6004820152602401610198565b6001600160a01b0383166113b257604051634a1406b160e11b81525f6004820152602401610198565b6001600160a01b038085165f908152600160209081526040808320938716835292905220829055801561112057826001600160a01b0316846001600160a01b03167f8c5be1e5ebec7d5bd14f71427d1e84f3dd0314c0f7b2291e5b200ac8c7c3b9258460405161142491815260200190565b60405180910390a350505050565b6001600160a01b03831661145c578060025f82825461145191906117f6565b909155506114cc9050565b6001600160a01b0383165f90815260208190526040902054818110156114ae5760405163391434e360e21b81526001600160a01b03851660048201526024810182905260448101839052606401610198565b6001600160a01b0384165f9081526020819052604090209082900390555b6001600160a01b0382166114e857600280548290039055611506565b6001600160a01b0382165f9081526020819052604090208054820190555b816001600160a01b0316836001600160a01b03167fddf252ad1be2c89b69c2b068fc378daa952ba7f163c4a11628f55a4df523b3ef8360405161154b91815260200190565b60405180910390a3505050565b5f80516020611864833981519152546002036109df57604051633ee5aeb560e01b815260040160405180910390fd5b60405163a9059cbb60e01b5f8181526001600160a01b038616600452602485905291602083604481808b5af1925060015f511483166115dd5783831516156115d1573d5f823e3d81fd5b5f873b113d1516831692505b60405250949350505050565b6040516323b872dd60e01b5f8181526001600160a01b038781166004528616602452604485905291602083606481808c5af1925060015f51148316611645578383151615611639573d5f823e3d81fd5b5f883b113d1516831692505b604052505f60605295945050505050565b5f6020808352835180828501525f5b8181101561168157858101830151858201604001528201611665565b505f604082860101526040601f19601f8301168501019250505092915050565b80356001600160a01b0381168114610749575f80fd5b5f80604083850312156116c8575f80fd5b6116d1836116a1565b946020939093013593505050565b5f805f606084860312156116f1575f80fd5b6116fa846116a1565b9250611708602085016116a1565b9150604084013590509250925092565b5f60208284031215611728575f80fd5b5035919050565b5f8060408385031215611740575f80fd5b50508035926020909101359150565b5f6020828403121561175f575f80fd5b610a3f826116a1565b5f8060408385031215611779575f80fd5b611782836116a1565b9150611790602084016116a1565b90509250929050565b600181811c908216806117ad57607f821691505b60208210810361131857634e487b7160e01b5f52602260045260245ffd5b634e487b7160e01b5f52601160045260245ffd5b8082028115828204841417610540576105406117cb565b80820180821115610540576105406117cb565b5f8261182357634e487b7160e01b5f52601260045260245ffd5b500490565b6020808252600e908201526d506f6f6c3a20736c69707061676560901b604082015260600190565b81810381811115610540576105406117cb56fe9b779b17422d0df92223018b32b4d1fa46e071723d6817e2486d003becc55f00a2646970667358221220ec852b36bcf5ef1b3deeed3ed5883e588769726ea664b05db2f41b7b1552849664736f6c63430008140033","opcodes":"PUSH1 0x80 PUSH1 0x40 MSTORE CALLVALUE DUP1 ISZERO PUSH3 0x10 JUMPI PUSH0 DUP1 REVERT JUMPDEST POP CALLER PUSH1 0x40 MLOAD DUP1 PUSH1 0x40 ADD PUSH1 0x40 MSTORE DUP1 PUSH1 0x9 DUP2 MSTORE PUSH1 0x20 ADD PUSH9 0x485542415242204C5 PUSH1 0xBC SHL DUP2 MSTORE POP PUSH1 0x40 MLOAD DUP1 PUSH1 0x40 ADD PUSH1 0x40 MSTORE DUP1 PUSH1 0x3 DUP2 MSTORE PUSH1 0x20 ADD PUSH3 0x484C5 PUSH1 0xEC SHL DUP2 MSTORE POP DUP2 PUSH1 0x3 SWAP1 DUP2 PUSH3 0x61 SWAP2 SWAP1 PUSH3 0x1C8 JUMP JUMPDEST POP PUSH1 0x4 PUSH3 0x70 DUP3 DUP3 PUSH3 0x1C8 JUMP JUMPDEST POP POP POP PUSH1 0x1 PUSH1 0x1 PUSH1 0xA0 SHL SUB DUP2 AND PUSH3 0xA1 JUMPI PUSH1 0x40 MLOAD PUSH4 0x1E4FBDF7 PUSH1 0xE0 SHL DUP2 MSTORE PUSH0 PUSH1 0x4 DUP3 ADD MSTORE PUSH1 0x24 ADD PUSH1 0x40 MLOAD DUP1 SWAP2 SUB SWAP1 REVERT JUMPDEST PUSH3 0xAC DUP2 PUSH3 0xD7 JUMP JUMPDEST POP PUSH1 0x1 PUSH32 0x9B779B17422D0DF92223018B32B4D1FA46E071723D6817E2486D003BECC55F00 SSTORE PUSH3 0x290 JUMP JUMPDEST PUSH1 0x5 DUP1 SLOAD PUSH1 0x1 PUSH1 0x1 PUSH1 0xA0 SHL SUB DUP4 DUP2 AND PUSH1 0x1 PUSH1 0x1 PUSH1 0xA0 SHL SUB NOT DUP4 AND DUP2 OR SWAP1 SWAP4 SSTORE PUSH1 0x40 MLOAD SWAP2 AND SWAP2 SWAP1 DUP3 SWAP1 PUSH32 0x8BE0079C531659141344CD1FD0A4F28419497F9722A3DAAFE3B4186F6B6457E0 SWAP1 PUSH0 SWAP1 LOG3 POP POP JUMP JUMPDEST PUSH4 0x4E487B71 PUSH1 0xE0 SHL PUSH0 MSTORE PUSH1 0x41 PUSH1 0x4 MSTORE PUSH1 0x24 PUSH0 REVERT JUMPDEST PUSH1 0x1 DUP2 DUP2 SHR SWAP1 DUP3 AND DUP1 PUSH3 0x151 JUMPI PUSH1 0x7F DUP3 AND SWAP2 POP JUMPDEST PUSH1 0x20 DUP3 LT DUP2 SUB PUSH3 0x170 JUMPI PUSH4 0x4E487B71 PUSH1 0xE0 SHL PUSH0 MSTORE PUSH1 0x22 PUSH1 0x4 MSTORE PUSH1 0x24 PUSH0 REVERT JUMPDEST POP SWAP2 SWAP1 POP JUMP JUMPDEST PUSH1 0x1F DUP3 GT ISZERO PUSH3 0x1C3 JUMPI PUSH0 DUP2 DUP2 MSTORE PUSH1 0x20 DUP2 KECCAK256 PUSH1 0x1F DUP6 ADD PUSH1 0x5 SHR DUP2 ADD PUSH1 0x20 DUP7 LT ISZERO PUSH3 0x19E JUMPI POP DUP1 JUMPDEST PUSH1 0x1F DUP6 ADD PUSH1 0x5 SHR DUP3 ADD SWAP2 POP JUMPDEST DUP2 DUP2 LT ISZERO PUSH3 0x1BF JUMPI DUP3 DUP2 SSTORE PUSH1 0x1 ADD PUSH3 0x1AA JUMP JUMPDEST POP POP POP JUMPDEST POP POP POP JUMP JUMPDEST DUP2 MLOAD PUSH1 0x1 PUSH1 0x1 PUSH1 0x40 SHL SUB DUP2 GT ISZERO PUSH3 0x1E4 JUMPI PUSH3 0x1E4 PUSH3 0x128 JUMP JUMPDEST PUSH3 0x1FC DUP2 PUSH3 0x1F5 DUP5 SLOAD PUSH3 0x13C JUMP JUMPDEST DUP5 PUSH3 0x176 JUMP JUMPDEST PUSH1 0x20 DUP1 PUSH1 0x1F DUP4 GT PUSH1 0x1 DUP2 EQ PUSH3 0x232 JUMPI PUSH0 DUP5 ISZERO PUSH3 0x21A JUMPI POP DUP6 DUP4 ADD MLOAD JUMPDEST PUSH0 NOT PUSH1 0x3 DUP7 SWAP1 SHL SHR NOT AND PUSH1 0x1 DUP6 SWAP1 SHL OR DUP6 SSTORE PUSH3 0x1BF JUMP JUMPDEST PUSH0 DUP6 DUP2 MSTORE PUSH1 0x20 DUP2 KECCAK256 PUSH1 0x1F NOT DUP7 AND SWAP2 JUMPDEST DUP3 DUP2 LT ISZERO PUSH3 0x262 JUMPI DUP9 DUP7 ADD MLOAD DUP3 SSTORE SWAP5 DUP5 ADD SWAP5 PUSH1 0x1 SWAP1 SWAP2 ADD SWAP1 DUP5 ADD PUSH3 0x241 JUMP JUMPDEST POP DUP6 DUP3 LT ISZERO PUSH3 0x280 JUMPI DUP8 DUP6 ADD MLOAD PUSH0 NOT PUSH1 0x3 DUP9 SWAP1 SHL PUSH1 0xF8 AND SHR NOT AND DUP2 SSTORE JUMPDEST POP POP POP POP POP PUSH1 0x1 SWAP1 DUP2 SHL ADD SWAP1 SSTORE POP JUMP JUMPDEST PUSH2 0x18B9 DUP1 PUSH3 0x29E PUSH0 CODECOPY PUSH0 RETURN INVALID PUSH1 0x80 PUSH1 0x40 MSTORE PUSH1 0x4 CALLDATASIZE LT PUSH2 0x13F JUMPI PUSH0 CALLDATALOAD PUSH1 0xE0 SHR DUP1 PUSH4 0x845380A2 GT PUSH2 0xB3 JUMPI DUP1 PUSH4 0x9CD441DA GT PUSH2 0x6D JUMPI DUP1 PUSH4 0x9CD441DA EQ PUSH2 0x3D4 JUMPI DUP1 PUSH4 0xA639EB4D EQ PUSH2 0x3E7 JUMPI DUP1 PUSH4 0xA9059CBB EQ PUSH2 0x406 JUMPI DUP1 PUSH4 0xD62CCB3F EQ PUSH2 0x425 JUMPI DUP1 PUSH4 0xDD62ED3E EQ PUSH2 0x43A JUMPI DUP1 PUSH4 0xF2FDE38B EQ PUSH2 0x47E JUMPI PUSH0 DUP1 REVERT JUMPDEST DUP1 PUSH4 0x845380A2 EQ PUSH2 0x319 JUMPI DUP1 PUSH4 0x85BD3BC2 EQ PUSH2 0x350 JUMPI DUP1 PUSH4 0x8DA5CB5B EQ PUSH2 0x365 JUMPI DUP1 PUSH4 0x95D89B41 EQ PUSH2 0x382 JUMPI DUP1 PUSH4 0x96120636 EQ PUSH2 0x396 JUMPI DUP1 PUSH4 0x9C8F9F23 EQ PUSH2 0x3B5 JUMPI PUSH0 DUP1 REVERT JUMPDEST DUP1 PUSH4 0x313CE567 GT PUSH2 0x104 JUMPI DUP1 PUSH4 0x313CE567 EQ PUSH2 0x263 JUMPI DUP1 PUSH4 0x54EC83EC EQ PUSH2 0x27E JUMPI DUP1 PUSH4 0x6E42C241 EQ PUSH2 0x291 JUMPI DUP1 PUSH4 0x70A08231 EQ PUSH2 0x2B0 JUMPI DUP1 PUSH4 0x715018A6 EQ PUSH2 0x2E4 JUMPI DUP1 PUSH4 0x768E061C EQ PUSH2 0x2FA JUMPI PUSH0 DUP1 REVERT JUMPDEST DUP1 PUSH4 0x6FDDE03 EQ PUSH2 0x1A5 JUMPI DUP1 PUSH4 0x902F1AC EQ PUSH2 0x1CF JUMPI DUP1 PUSH4 0x95EA7B3 EQ PUSH2 0x1F7 JUMPI DUP1 PUSH4 0x18160DDD EQ PUSH2 0x226 JUMPI DUP1 PUSH4 0x23B872DD EQ PUSH2 0x244 JUMPI PUSH0 DUP1 REVERT JUMPDEST CALLDATASIZE PUSH2 0x1A1 JUMPI PUSH1 0x40 MLOAD PUSH3 0x461BCD PUSH1 0xE5 SHL DUP2 MSTORE PUSH1 0x20 PUSH1 0x4 DUP3 ADD MSTORE PUSH1 0x27 PUSH1 0x24 DUP3 ADD MSTORE PUSH32 0x506F6F6C3A20757365206164644C6971756964697479206F7220737761704574 PUSH1 0x44 DUP3 ADD MSTORE PUSH7 0x342337B9233AB7 PUSH1 0xC9 SHL PUSH1 0x64 DUP3 ADD MSTORE PUSH1 0x84 ADD JUMPDEST PUSH1 0x40 MLOAD DUP1 SWAP2 SUB SWAP1 REVERT JUMPDEST PUSH0 DUP1 REVERT JUMPDEST CALLVALUE DUP1 ISZERO PUSH2 0x1B0 JUMPI PUSH0 DUP1 REVERT JUMPDEST POP PUSH2 0x1B9 PUSH2 0x49D JUMP JUMPDEST PUSH1 0x40 MLOAD PUSH2 0x1C6 SWAP2 SWAP1 PUSH2 0x1656 JUMP JUMPDEST PUSH1 0x40 MLOAD DUP1 SWAP2 SUB SWAP1 RETURN JUMPDEST CALLVALUE DUP1 ISZERO PUSH2 0x1DA JUMPI PUSH0 DUP1 REVERT JUMPDEST POP PUSH1 0x7 SLOAD PUSH1 0x8 SLOAD JUMPDEST PUSH1 0x40 DUP1 MLOAD SWAP3 DUP4 MSTORE PUSH1 0x20 DUP4 ADD SWAP2 SWAP1 SWAP2 MSTORE ADD PUSH2 0x1C6 JUMP JUMPDEST CALLVALUE DUP1 ISZERO PUSH2 0x202 JUMPI PUSH0 DUP1 REVERT JUMPDEST POP PUSH2 0x216 PUSH2 0x211 CALLDATASIZE PUSH1 0x4 PUSH2 0x16B7 JUMP JUMPDEST PUSH2 0x52D JUMP JUMPDEST PUSH1 0x40 MLOAD SWAP1 ISZERO ISZERO DUP2 MSTORE PUSH1 0x20 ADD PUSH2 0x1C6 JUMP JUMPDEST CALLVALUE DUP1 ISZERO PUSH2 0x231 JUMPI PUSH0 DUP1 REVERT JUMPDEST POP PUSH1 0x2 SLOAD JUMPDEST PUSH1 0x40 MLOAD SWAP1 DUP2 MSTORE PUSH1 0x20 ADD PUSH2 0x1C6 JUMP JUMPDEST CALLVALUE DUP1 ISZERO PUSH2 0x24F JUMPI PUSH0 DUP1 REVERT JUMPDEST POP PUSH2 0x216 PUSH2 0x25E CALLDATASIZE PUSH1 0x4 PUSH2 0x16DF JUMP JUMPDEST PUSH2 0x546 JUMP JUMPDEST CALLVALUE DUP1 ISZERO PUSH2 0x26E JUMPI PUSH0 DUP1 REVERT JUMPDEST POP PUSH1 0x40 MLOAD PUSH1 0x12 DUP2 MSTORE PUSH1 0x20 ADD PUSH2 0x1C6 JUMP JUMPDEST PUSH2 0x236 PUSH2 0x28C CALLDATASIZE PUSH1 0x4 PUSH2 0x1718 JUMP JUMPDEST PUSH2 0x569 JUMP JUMPDEST CALLVALUE DUP1 ISZERO PUSH2 0x29C JUMPI PUSH0 DUP1 REVERT JUMPDEST POP PUSH2 0x236 PUSH2 0x2AB CALLDATASIZE PUSH1 0x4 PUSH2 0x172F JUMP JUMPDEST PUSH2 0x74E JUMP JUMPDEST CALLVALUE DUP1 ISZERO PUSH2 0x2BB JUMPI PUSH0 DUP1 REVERT JUMPDEST POP PUSH2 0x236 PUSH2 0x2CA CALLDATASIZE PUSH1 0x4 PUSH2 0x174F JUMP JUMPDEST PUSH1 0x1 PUSH1 0x1 PUSH1 0xA0 SHL SUB AND PUSH0 SWAP1 DUP2 MSTORE PUSH1 0x20 DUP2 SWAP1 MSTORE PUSH1 0x40 SWAP1 KECCAK256 SLOAD SWAP1 JUMP JUMPDEST CALLVALUE DUP1 ISZERO PUSH2 0x2EF JUMPI PUSH0 DUP1 REVERT JUMPDEST POP PUSH2 0x2F8 PUSH2 0x9CE JUMP JUMPDEST STOP JUMPDEST CALLVALUE DUP1 ISZERO PUSH2 0x305 JUMPI PUSH0 DUP1 REVERT JUMPDEST POP PUSH2 0x236 PUSH2 0x314 CALLDATASIZE PUSH1 0x4 PUSH2 0x1718 JUMP JUMPDEST PUSH2 0x9E1 JUMP JUMPDEST CALLVALUE DUP1 ISZERO PUSH2 0x324 JUMPI PUSH0 DUP1 REVERT JUMPDEST POP PUSH1 0x6 SLOAD PUSH2 0x338 SWAP1 PUSH1 0x1 PUSH1 0x1 PUSH1 0xA0 SHL SUB AND DUP2 JUMP JUMPDEST PUSH1 0x40 MLOAD PUSH1 0x1 PUSH1 0x1 PUSH1 0xA0 SHL SUB SWAP1 SWAP2 AND DUP2 MSTORE PUSH1 0x20 ADD PUSH2 0x1C6 JUMP JUMPDEST CALLVALUE DUP1 ISZERO PUSH2 0x35B JUMPI PUSH0 DUP1 REVERT JUMPDEST POP PUSH2 0x236 PUSH1 0x8 SLOAD DUP2 JUMP JUMPDEST CALLVALUE DUP1 ISZERO PUSH2 0x370 JUMPI PUSH0 DUP1 REVERT JUMPDEST POP PUSH1 0x5 SLOAD PUSH1 0x1 PUSH1 0x1 PUSH1 0xA0 SHL SUB AND PUSH2 0x338 JUMP JUMPDEST CALLVALUE DUP1 ISZERO PUSH2 0x38D JUMPI PUSH0 DUP1 REVERT JUMPDEST POP PUSH2 0x1B9 PUSH2 0xA46 JUMP JUMPDEST CALLVALUE DUP1 ISZERO PUSH2 0x3A1 JUMPI PUSH0 DUP1 REVERT JUMPDEST POP PUSH2 0x236 PUSH2 0x3B0 CALLDATASIZE PUSH1 0x4 PUSH2 0x1718 JUMP JUMPDEST PUSH2 0xA55 JUMP JUMPDEST CALLVALUE DUP1 ISZERO PUSH2 0x3C0 JUMPI PUSH0 DUP1 REVERT JUMPDEST POP PUSH2 0x1E2 PUSH2 0x3CF CALLDATASIZE PUSH1 0x4 PUSH2 0x1718 JUMP JUMPDEST PUSH2 0xAA9 JUMP JUMPDEST PUSH2 0x236 PUSH2 0x3E2 CALLDATASIZE PUSH1 0x4 PUSH2 0x172F JUMP JUMPDEST PUSH2 0xCCE JUMP JUMPDEST CALLVALUE DUP1 ISZERO PUSH2 0x3F2 JUMPI PUSH0 DUP1 REVERT JUMPDEST POP PUSH2 0x2F8 PUSH2 0x401 CALLDATASIZE PUSH1 0x4 PUSH2 0x174F JUMP JUMPDEST PUSH2 0xF80 JUMP JUMPDEST CALLVALUE DUP1 ISZERO PUSH2 0x411 JUMPI PUSH0 DUP1 REVERT JUMPDEST POP PUSH2 0x216 PUSH2 0x420 CALLDATASIZE PUSH1 0x4 PUSH2 0x16B7 JUMP JUMPDEST PUSH2 0x104E JUMP JUMPDEST CALLVALUE DUP1 ISZERO PUSH2 0x430 JUMPI PUSH0 DUP1 REVERT JUMPDEST POP PUSH2 0x236 PUSH1 0x7 SLOAD DUP2 JUMP JUMPDEST CALLVALUE DUP1 ISZERO PUSH2 0x445 JUMPI PUSH0 DUP1 REVERT JUMPDEST POP PUSH2 0x236 PUSH2 0x454 CALLDATASIZE PUSH1 0x4 PUSH2 0x1768 JUMP JUMPDEST PUSH1 0x1 PUSH1 0x1 PUSH1 0xA0 SHL SUB SWAP2 DUP3 AND PUSH0 SWAP1 DUP2 MSTORE PUSH1 0x1 PUSH1 0x20 SWAP1 DUP2 MSTORE PUSH1 0x40 DUP1 DUP4 KECCAK256 SWAP4 SWAP1 SWAP5 AND DUP3 MSTORE SWAP2 SWAP1 SWAP2 MSTORE KECCAK256 SLOAD SWAP1 JUMP JUMPDEST CALLVALUE DUP1 ISZERO PUSH2 0x489 JUMPI PUSH0 DUP1 REVERT JUMPDEST POP PUSH2 0x2F8 PUSH2 0x498 CALLDATASIZE PUSH1 0x4 PUSH2 0x174F JUMP JUMPDEST PUSH2 0x105B JUMP JUMPDEST PUSH1 0x60 PUSH1 0x3 DUP1 SLOAD PUSH2 0x4AC SWAP1 PUSH2 0x1799 JUMP JUMPDEST DUP1 PUSH1 0x1F ADD PUSH1 0x20 DUP1 SWAP2 DIV MUL PUSH1 0x20 ADD PUSH1 0x40 MLOAD SWAP1 DUP2 ADD PUSH1 0x40 MSTORE DUP1 SWAP3 SWAP2 SWAP1 DUP2 DUP2 MSTORE PUSH1 0x20 ADD DUP3 DUP1 SLOAD PUSH2 0x4D8 SWAP1 PUSH2 0x1799 JUMP JUMPDEST DUP1 ISZERO PUSH2 0x523 JUMPI DUP1 PUSH1 0x1F LT PUSH2 0x4FA JUMPI PUSH2 0x100 DUP1 DUP4 SLOAD DIV MUL DUP4 MSTORE SWAP2 PUSH1 0x20 ADD SWAP2 PUSH2 0x523 JUMP JUMPDEST DUP3 ADD SWAP2 SWAP1 PUSH0 MSTORE PUSH1 0x20 PUSH0 KECCAK256 SWAP1 JUMPDEST DUP2 SLOAD DUP2 MSTORE SWAP1 PUSH1 0x1 ADD SWAP1 PUSH1 0x20 ADD DUP1 DUP4 GT PUSH2 0x506 JUMPI DUP3 SWAP1 SUB PUSH1 0x1F AND DUP3 ADD SWAP2 JUMPDEST POP POP POP POP POP SWAP1 POP SWAP1 JUMP JUMPDEST PUSH0 CALLER PUSH2 0x53A DUP2 DUP6 DUP6 PUSH2 0x1098 JUMP JUMPDEST PUSH1 0x1 SWAP2 POP POP JUMPDEST SWAP3 SWAP2 POP POP JUMP JUMPDEST PUSH0 CALLER PUSH2 0x553 DUP6 DUP3 DUP6 PUSH2 0x10AA JUMP JUMPDEST PUSH2 0x55E DUP6 DUP6 DUP6 PUSH2 0x1126 JUMP JUMPDEST POP PUSH1 0x1 SWAP5 SWAP4 POP POP POP POP JUMP JUMPDEST PUSH0 PUSH2 0x572 PUSH2 0x1183 JUMP JUMPDEST PUSH0 CALLVALUE GT PUSH2 0x5B1 JUMPI PUSH1 0x40 MLOAD PUSH3 0x461BCD PUSH1 0xE5 SHL DUP2 MSTORE PUSH1 0x20 PUSH1 0x4 DUP3 ADD MSTORE PUSH1 0xD PUSH1 0x24 DUP3 ADD MSTORE PUSH13 0x2837B7B61D103D32B9379034B7 PUSH1 0x99 SHL PUSH1 0x44 DUP3 ADD MSTORE PUSH1 0x64 ADD PUSH2 0x198 JUMP JUMPDEST PUSH0 PUSH2 0x5BE PUSH2 0x3E5 CALLVALUE PUSH2 0x17DF JUMP JUMPDEST SWAP1 POP DUP1 PUSH2 0x3E8 PUSH1 0x7 SLOAD PUSH2 0x5D1 SWAP2 SWAP1 PUSH2 0x17DF JUMP JUMPDEST PUSH2 0x5DB SWAP2 SWAP1 PUSH2 0x17F6 JUMP JUMPDEST PUSH1 0x8 SLOAD PUSH2 0x5E8 SWAP1 DUP4 PUSH2 0x17DF JUMP JUMPDEST PUSH2 0x5F2 SWAP2 SWAP1 PUSH2 0x1809 JUMP JUMPDEST SWAP2 POP PUSH0 DUP3 GT PUSH2 0x63F JUMPI PUSH1 0x40 MLOAD PUSH3 0x461BCD PUSH1 0xE5 SHL DUP2 MSTORE PUSH1 0x20 PUSH1 0x4 DUP3 ADD MSTORE PUSH1 0x19 PUSH1 0x24 DUP3 ADD MSTORE PUSH25 0x141BDBDB0E881A5B9CDD59999A58DA595B9D081BDD5D1C1D5D PUSH1 0x3A SHL PUSH1 0x44 DUP3 ADD MSTORE PUSH1 0x64 ADD PUSH2 0x198 JUMP JUMPDEST PUSH1 0x8 SLOAD DUP3 LT PUSH2 0x690 JUMPI PUSH1 0x40 MLOAD PUSH3 0x461BCD PUSH1 0xE5 SHL DUP2 MSTORE PUSH1 0x20 PUSH1 0x4 DUP3 ADD MSTORE PUSH1 0x1C PUSH1 0x24 DUP3 ADD MSTORE PUSH32 0x506F6F6C3A20696E73756666696369656E74206C697175696469747900000000 PUSH1 0x44 DUP3 ADD MSTORE PUSH1 0x64 ADD PUSH2 0x198 JUMP JUMPDEST DUP3 DUP3 LT ISZERO PUSH2 0x6B0 JUMPI PUSH1 0x40 MLOAD PUSH3 0x461BCD PUSH1 0xE5 SHL DUP2 MSTORE PUSH1 0x4 ADD PUSH2 0x198 SWAP1 PUSH2 0x1828 JUMP JUMPDEST CALLVALUE PUSH1 0x7 PUSH0 DUP3 DUP3 SLOAD PUSH2 0x6C1 SWAP2 SWAP1 PUSH2 0x17F6 JUMP JUMPDEST SWAP3 POP POP DUP2 SWAP1 SSTORE POP DUP2 PUSH1 0x8 PUSH0 DUP3 DUP3 SLOAD PUSH2 0x6D9 SWAP2 SWAP1 PUSH2 0x1850 JUMP JUMPDEST SWAP1 SWAP2 SSTORE POP POP PUSH1 0x6 SLOAD PUSH2 0x6F5 SWAP1 PUSH1 0x1 PUSH1 0x1 PUSH1 0xA0 SHL SUB AND CALLER DUP5 PUSH2 0x119E JUMP JUMPDEST PUSH1 0x40 DUP1 MLOAD CALLVALUE DUP2 MSTORE PUSH1 0x20 DUP2 ADD DUP5 SWAP1 MSTORE PUSH0 SWAP2 CALLER SWAP2 PUSH32 0xFA2DDA1CC1B86E41239702756B13EFFBC1A092B5C57E3AD320FBE4F3B13FE235 SWAP2 ADD PUSH1 0x40 MLOAD DUP1 SWAP2 SUB SWAP1 LOG3 POP PUSH2 0x749 PUSH1 0x1 PUSH0 DUP1 MLOAD PUSH1 0x20 PUSH2 0x1864 DUP4 CODECOPY DUP2 MLOAD SWAP2 MSTORE SSTORE JUMP JUMPDEST SWAP2 SWAP1 POP JUMP JUMPDEST PUSH0 PUSH2 0x757 PUSH2 0x1183 JUMP JUMPDEST PUSH0 DUP4 GT PUSH2 0x796 JUMPI PUSH1 0x40 MLOAD PUSH3 0x461BCD PUSH1 0xE5 SHL DUP2 MSTORE PUSH1 0x20 PUSH1 0x4 DUP3 ADD MSTORE PUSH1 0xD PUSH1 0x24 DUP3 ADD MSTORE PUSH13 0x2837B7B61D103D32B9379034B7 PUSH1 0x99 SHL PUSH1 0x44 DUP3 ADD MSTORE PUSH1 0x64 ADD PUSH2 0x198 JUMP JUMPDEST PUSH1 0x6 SLOAD PUSH2 0x7AE SWAP1 PUSH1 0x1 PUSH1 0x1 PUSH1 0xA0 SHL SUB AND CALLER ADDRESS DUP7 PUSH2 0x11D3 JUMP JUMPDEST PUSH0 PUSH2 0x7BB PUSH2 0x3E5 DUP6 PUSH2 0x17DF JUMP JUMPDEST SWAP1 POP DUP1 PUSH2 0x3E8 PUSH1 0x8 SLOAD PUSH2 0x7CE SWAP2 SWAP1 PUSH2 0x17DF JUMP JUMPDEST PUSH2 0x7D8 SWAP2 SWAP1 PUSH2 0x17F6 JUMP JUMPDEST PUSH1 0x7 SLOAD PUSH2 0x7E5 SWAP1 DUP4 PUSH2 0x17DF JUMP JUMPDEST PUSH2 0x7EF SWAP2 SWAP1 PUSH2 0x1809 JUMP JUMPDEST SWAP2 POP PUSH0 DUP3 GT PUSH2 0x83C JUMPI PUSH1 0x40 MLOAD PUSH3 0x461BCD PUSH1 0xE5 SHL DUP2 MSTORE PUSH1 0x20 PUSH1 0x4 DUP3 ADD MSTORE PUSH1 0x19 PUSH1 0x24 DUP3 ADD MSTORE PUSH25 0x141BDBDB0E881A5B9CDD59999A58DA595B9D081BDD5D1C1D5D PUSH1 0x3A SHL PUSH1 0x44 DUP3 ADD MSTORE PUSH1 0x64 ADD PUSH2 0x198 JUMP JUMPDEST PUSH1 0x7 SLOAD DUP3 LT PUSH2 0x88D JUMPI PUSH1 0x40 MLOAD PUSH3 0x461BCD PUSH1 0xE5 SHL DUP2 MSTORE PUSH1 0x20 PUSH1 0x4 DUP3 ADD MSTORE PUSH1 0x1C PUSH1 0x24 DUP3 ADD MSTORE PUSH32 0x506F6F6C3A20696E73756666696369656E74206C697175696469747900000000 PUSH1 0x44 DUP3 ADD MSTORE PUSH1 0x64 ADD PUSH2 0x198 JUMP JUMPDEST DUP3 DUP3 LT ISZERO PUSH2 0x8AD JUMPI PUSH1 0x40 MLOAD PUSH3 0x461BCD PUSH1 0xE5 SHL DUP2 MSTORE PUSH1 0x4 ADD PUSH2 0x198 SWAP1 PUSH2 0x1828 JUMP JUMPDEST DUP4 PUSH1 0x8 PUSH0 DUP3 DUP3 SLOAD PUSH2 0x8BE SWAP2 SWAP1 PUSH2 0x17F6 JUMP JUMPDEST SWAP3 POP POP DUP2 SWAP1 SSTORE POP DUP2 PUSH1 0x7 PUSH0 DUP3 DUP3 SLOAD PUSH2 0x8D6 SWAP2 SWAP1 PUSH2 0x1850 JUMP JUMPDEST SWAP1 SWAP2 SSTORE POP POP PUSH1 0x40 MLOAD PUSH0 SWAP1 CALLER SWAP1 DUP5 SWAP1 DUP4 DUP2 DUP2 DUP2 DUP6 DUP8 GAS CALL SWAP3 POP POP POP RETURNDATASIZE DUP1 PUSH0 DUP2 EQ PUSH2 0x91A JUMPI PUSH1 0x40 MLOAD SWAP2 POP PUSH1 0x1F NOT PUSH1 0x3F RETURNDATASIZE ADD AND DUP3 ADD PUSH1 0x40 MSTORE RETURNDATASIZE DUP3 MSTORE RETURNDATASIZE PUSH0 PUSH1 0x20 DUP5 ADD RETURNDATACOPY PUSH2 0x91F JUMP JUMPDEST PUSH1 0x60 SWAP2 POP JUMPDEST POP POP SWAP1 POP DUP1 PUSH2 0x96C JUMPI PUSH1 0x40 MLOAD PUSH3 0x461BCD PUSH1 0xE5 SHL DUP2 MSTORE PUSH1 0x20 PUSH1 0x4 DUP3 ADD MSTORE PUSH1 0x19 PUSH1 0x24 DUP3 ADD MSTORE PUSH25 0x141BDBDB0E88115512081D1C985B9CD9995C8819985A5B1959 PUSH1 0x3A SHL PUSH1 0x44 DUP3 ADD MSTORE PUSH1 0x64 ADD PUSH2 0x198 JUMP JUMPDEST PUSH1 0x6 SLOAD PUSH1 0x40 DUP1 MLOAD DUP8 DUP2 MSTORE PUSH1 0x20 DUP2 ADD DUP7 SWAP1 MSTORE PUSH1 0x1 PUSH1 0x1 PUSH1 0xA0 SHL SUB SWAP1 SWAP3 AND SWAP2 CALLER SWAP2 PUSH32 0xFA2DDA1CC1B86E41239702756B13EFFBC1A092B5C57E3AD320FBE4F3B13FE235 SWAP2 ADD PUSH1 0x40 MLOAD DUP1 SWAP2 SUB SWAP1 LOG3 POP POP PUSH2 0x540 PUSH1 0x1 PUSH0 DUP1 MLOAD PUSH1 0x20 PUSH2 0x1864 DUP4 CODECOPY DUP2 MLOAD SWAP2 MSTORE SSTORE JUMP JUMPDEST PUSH2 0x9D6 PUSH2 0x1209 JUMP JUMPDEST PUSH2 0x9DF PUSH0 PUSH2 0x1236 JUMP JUMPDEST JUMP JUMPDEST PUSH0 PUSH1 0x7 SLOAD PUSH0 EQ DUP1 PUSH2 0x9F2 JUMPI POP PUSH1 0x8 SLOAD ISZERO JUMPDEST ISZERO PUSH2 0x9FE JUMPI POP PUSH0 SWAP2 SWAP1 POP JUMP JUMPDEST PUSH0 PUSH2 0xA0B PUSH2 0x3E5 DUP5 PUSH2 0x17DF JUMP JUMPDEST SWAP1 POP DUP1 PUSH2 0x3E8 PUSH1 0x7 SLOAD PUSH2 0xA1E SWAP2 SWAP1 PUSH2 0x17DF JUMP JUMPDEST PUSH2 0xA28 SWAP2 SWAP1 PUSH2 0x17F6 JUMP JUMPDEST PUSH1 0x8 SLOAD PUSH2 0xA35 SWAP1 DUP4 PUSH2 0x17DF JUMP JUMPDEST PUSH2 0xA3F SWAP2 SWAP1 PUSH2 0x1809 JUMP JUMPDEST SWAP4 SWAP3 POP POP POP JUMP JUMPDEST PUSH1 0x60 PUSH1 0x4 DUP1 SLOAD PUSH2 0x4AC SWAP1 PUSH2 0x1799 JUMP JUMPDEST PUSH0 PUSH1 0x7 SLOAD PUSH0 EQ DUP1 PUSH2 0xA66 JUMPI POP PUSH1 0x8 SLOAD ISZERO JUMPDEST ISZERO PUSH2 0xA72 JUMPI POP PUSH0 SWAP2 SWAP1 POP JUMP JUMPDEST PUSH0 PUSH2 0xA7F PUSH2 0x3E5 DUP5 PUSH2 0x17DF JUMP JUMPDEST SWAP1 POP DUP1 PUSH2 0x3E8 PUSH1 0x8 SLOAD PUSH2 0xA92 SWAP2 SWAP1 PUSH2 0x17DF JUMP JUMPDEST PUSH2 0xA9C SWAP2 SWAP1 PUSH2 0x17F6 JUMP JUMPDEST PUSH1 0x7 SLOAD PUSH2 0xA35 SWAP1 DUP4 PUSH2 0x17DF JUMP JUMPDEST PUSH0 DUP1 PUSH2 0xAB3 PUSH2 0x1183 JUMP JUMPDEST PUSH0 DUP4 GT PUSH2 0xAF2 JUMPI PUSH1 0x40 MLOAD PUSH3 0x461BCD PUSH1 0xE5 SHL DUP2 MSTORE PUSH1 0x20 PUSH1 0x4 DUP3 ADD MSTORE PUSH1 0xD PUSH1 0x24 DUP3 ADD MSTORE PUSH13 0x506F6F6C3A207A65726F206C7 PUSH1 0x9C SHL PUSH1 0x44 DUP3 ADD MSTORE PUSH1 0x64 ADD PUSH2 0x198 JUMP JUMPDEST PUSH0 PUSH2 0xAFC PUSH1 0x2 SLOAD SWAP1 JUMP JUMPDEST SWAP1 POP DUP1 PUSH1 0x7 SLOAD DUP6 PUSH2 0xB0D SWAP2 SWAP1 PUSH2 0x17DF JUMP JUMPDEST PUSH2 0xB17 SWAP2 SWAP1 PUSH2 0x1809 JUMP JUMPDEST SWAP3 POP DUP1 PUSH1 0x8 SLOAD DUP6 PUSH2 0xB28 SWAP2 SWAP1 PUSH2 0x17DF JUMP JUMPDEST PUSH2 0xB32 SWAP2 SWAP1 PUSH2 0x1809 JUMP JUMPDEST SWAP2 POP PUSH0 DUP4 GT DUP1 ISZERO PUSH2 0xB42 JUMPI POP PUSH0 DUP3 GT JUMPDEST PUSH2 0xB8E JUMPI PUSH1 0x40 MLOAD PUSH3 0x461BCD PUSH1 0xE5 SHL DUP2 MSTORE PUSH1 0x20 PUSH1 0x4 DUP3 ADD MSTORE PUSH1 0x1B PUSH1 0x24 DUP3 ADD MSTORE PUSH32 0x506F6F6C3A20696E73756666696369656E742072657365727665730000000000 PUSH1 0x44 DUP3 ADD MSTORE PUSH1 0x64 ADD PUSH2 0x198 JUMP JUMPDEST PUSH2 0xB98 CALLER DUP6 PUSH2 0x1287 JUMP JUMPDEST DUP3 PUSH1 0x7 PUSH0 DUP3 DUP3 SLOAD PUSH2 0xBA9 SWAP2 SWAP1 PUSH2 0x1850 JUMP JUMPDEST SWAP3 POP POP DUP2 SWAP1 SSTORE POP DUP2 PUSH1 0x8 PUSH0 DUP3 DUP3 SLOAD PUSH2 0xBC1 SWAP2 SWAP1 PUSH2 0x1850 JUMP JUMPDEST SWAP1 SWAP2 SSTORE POP POP PUSH1 0x6 SLOAD PUSH2 0xBDD SWAP1 PUSH1 0x1 PUSH1 0x1 PUSH1 0xA0 SHL SUB AND CALLER DUP5 PUSH2 0x119E JUMP JUMPDEST PUSH1 0x40 MLOAD PUSH0 SWAP1 CALLER SWAP1 DUP6 SWAP1 DUP4 DUP2 DUP2 DUP2 DUP6 DUP8 GAS CALL SWAP3 POP POP POP RETURNDATASIZE DUP1 PUSH0 DUP2 EQ PUSH2 0xC1C JUMPI PUSH1 0x40 MLOAD SWAP2 POP PUSH1 0x1F NOT PUSH1 0x3F RETURNDATASIZE ADD AND DUP3 ADD PUSH1 0x40 MSTORE RETURNDATASIZE DUP3 MSTORE RETURNDATASIZE PUSH0 PUSH1 0x20 DUP5 ADD RETURNDATACOPY PUSH2 0xC21 JUMP JUMPDEST PUSH1 0x60 SWAP2 POP JUMPDEST POP POP SWAP1 POP DUP1 PUSH2 0xC6E JUMPI PUSH1 0x40 MLOAD PUSH3 0x461BCD PUSH1 0xE5 SHL DUP2 MSTORE PUSH1 0x20 PUSH1 0x4 DUP3 ADD MSTORE PUSH1 0x19 PUSH1 0x24 DUP3 ADD MSTORE PUSH25 0x141BDBDB0E88115512081D1C985B9CD9995C8819985A5B1959 PUSH1 0x3A SHL PUSH1 0x44 DUP3 ADD MSTORE PUSH1 0x64 ADD PUSH2 0x198 JUMP JUMPDEST PUSH1 0x40 DUP1 MLOAD DUP6 DUP2 MSTORE PUSH1 0x20 DUP2 ADD DUP6 SWAP1 MSTORE SWAP1 DUP2 ADD DUP7 SWAP1 MSTORE CALLER SWAP1 PUSH32 0x1DC8BB69DF2B8E91FBDCBFCF93D951B3F0000F085A95FE3F7946D6161439245D SWAP1 PUSH1 0x60 ADD PUSH1 0x40 MLOAD DUP1 SWAP2 SUB SWAP1 LOG2 POP POP PUSH2 0xCC9 PUSH1 0x1 PUSH0 DUP1 MLOAD PUSH1 0x20 PUSH2 0x1864 DUP4 CODECOPY DUP2 MLOAD SWAP2 MSTORE SSTORE JUMP JUMPDEST SWAP2 POP SWAP2 JUMP JUMPDEST PUSH0 PUSH2 0xCD7 PUSH2 0x1183 JUMP JUMPDEST PUSH1 0x6 SLOAD PUSH1 0x1 PUSH1 0x1 PUSH1 0xA0 SHL SUB AND PUSH2 0xD27 JUMPI PUSH1 0x40 MLOAD PUSH3 0x461BCD PUSH1 0xE5 SHL DUP2 MSTORE PUSH1 0x20 PUSH1 0x4 DUP3 ADD MSTORE PUSH1 0x15 PUSH1 0x24 DUP3 ADD MSTORE PUSH21 0x141BDBDB0E881B9BDD081A5B9A5D1A585B1A5CD959 PUSH1 0x5A SHL PUSH1 0x44 DUP3 ADD MSTORE PUSH1 0x64 ADD PUSH2 0x198 JUMP JUMPDEST PUSH0 CALLVALUE GT DUP1 ISZERO PUSH2 0xD35 JUMPI POP PUSH0 DUP4 GT JUMPDEST PUSH2 0xD75 JUMPI PUSH1 0x40 MLOAD PUSH3 0x461BCD PUSH1 0xE5 SHL DUP2 MSTORE PUSH1 0x20 PUSH1 0x4 DUP3 ADD MSTORE PUSH1 0x11 PUSH1 0x24 DUP3 ADD MSTORE PUSH17 0x141BDBDB0E881E995C9BC8185B5BDD5B9D PUSH1 0x7A SHL PUSH1 0x44 DUP3 ADD MSTORE PUSH1 0x64 ADD PUSH2 0x198 JUMP JUMPDEST PUSH0 PUSH2 0xD7F PUSH1 0x2 SLOAD SWAP1 JUMP JUMPDEST SWAP1 POP DUP1 PUSH0 SUB PUSH2 0xE0F JUMPI PUSH0 PUSH2 0xD9B PUSH2 0xD96 DUP7 CALLVALUE PUSH2 0x17DF JUMP JUMPDEST PUSH2 0x12BF JUMP JUMPDEST SWAP1 POP PUSH2 0x3E8 DUP2 GT PUSH2 0xDEE JUMPI PUSH1 0x40 MLOAD PUSH3 0x461BCD PUSH1 0xE5 SHL DUP2 MSTORE PUSH1 0x20 PUSH1 0x4 DUP3 ADD MSTORE PUSH1 0x1D PUSH1 0x24 DUP3 ADD MSTORE PUSH32 0x506F6F6C3A206669727374206465706F73697420746F6F20736D616C6C000000 PUSH1 0x44 DUP3 ADD MSTORE PUSH1 0x64 ADD PUSH2 0x198 JUMP JUMPDEST PUSH2 0xDFB PUSH1 0x1 PUSH2 0x3E8 PUSH2 0x132C JUMP JUMPDEST PUSH2 0xE07 PUSH2 0x3E8 DUP3 PUSH2 0x1850 JUMP JUMPDEST SWAP3 POP POP PUSH2 0xE5A JUMP JUMPDEST PUSH1 0x7 SLOAD PUSH0 SWAP1 PUSH2 0xE1E DUP4 CALLVALUE PUSH2 0x17DF JUMP JUMPDEST PUSH2 0xE28 SWAP2 SWAP1 PUSH2 0x1809 JUMP JUMPDEST SWAP1 POP PUSH0 PUSH1 0x8 SLOAD DUP4 DUP8 PUSH2 0xE3A SWAP2 SWAP1 PUSH2 0x17DF JUMP JUMPDEST PUSH2 0xE44 SWAP2 SWAP1 PUSH2 0x1809 JUMP JUMPDEST SWAP1 POP DUP1 DUP3 LT PUSH2 0xE53 JUMPI DUP1 PUSH2 0xE55 JUMP JUMPDEST DUP2 JUMPDEST SWAP4 POP POP POP JUMPDEST PUSH0 DUP3 GT PUSH2 0xEB5 JUMPI PUSH1 0x40 MLOAD PUSH3 0x461BCD PUSH1 0xE5 SHL DUP2 MSTORE PUSH1 0x20 PUSH1 0x4 DUP3 ADD MSTORE PUSH1 0x23 PUSH1 0x24 DUP3 ADD MSTORE PUSH32 0x506F6F6C3A20696E73756666696369656E74206C6971756964697479206D696E PUSH1 0x44 DUP3 ADD MSTORE PUSH3 0x1D1959 PUSH1 0xEA SHL PUSH1 0x64 DUP3 ADD MSTORE PUSH1 0x84 ADD PUSH2 0x198 JUMP JUMPDEST DUP3 DUP3 LT ISZERO PUSH2 0xED5 JUMPI PUSH1 0x40 MLOAD PUSH3 0x461BCD PUSH1 0xE5 SHL DUP2 MSTORE PUSH1 0x4 ADD PUSH2 0x198 SWAP1 PUSH2 0x1828 JUMP JUMPDEST PUSH1 0x6 SLOAD PUSH2 0xEED SWAP1 PUSH1 0x1 PUSH1 0x1 PUSH1 0xA0 SHL SUB AND CALLER ADDRESS DUP8 PUSH2 0x11D3 JUMP JUMPDEST CALLVALUE PUSH1 0x7 PUSH0 DUP3 DUP3 SLOAD PUSH2 0xEFE SWAP2 SWAP1 PUSH2 0x17F6 JUMP JUMPDEST SWAP3 POP POP DUP2 SWAP1 SSTORE POP DUP4 PUSH1 0x8 PUSH0 DUP3 DUP3 SLOAD PUSH2 0xF16 SWAP2 SWAP1 PUSH2 0x17F6 JUMP JUMPDEST SWAP1 SWAP2 SSTORE POP PUSH2 0xF26 SWAP1 POP CALLER DUP4 PUSH2 0x132C JUMP JUMPDEST PUSH1 0x40 DUP1 MLOAD CALLVALUE DUP2 MSTORE PUSH1 0x20 DUP2 ADD DUP7 SWAP1 MSTORE SWAP1 DUP2 ADD DUP4 SWAP1 MSTORE CALLER SWAP1 PUSH32 0x64B83944E79C3CE8D4C297411DE637C3E102D064677AAC0C163976EBDCD6F50E SWAP1 PUSH1 0x60 ADD PUSH1 0x40 MLOAD DUP1 SWAP2 SUB SWAP1 LOG2 POP PUSH2 0x540 PUSH1 0x1 PUSH0 DUP1 MLOAD PUSH1 0x20 PUSH2 0x1864 DUP4 CODECOPY DUP2 MLOAD SWAP2 MSTORE SSTORE JUMP JUMPDEST PUSH2 0xF88 PUSH2 0x1209 JUMP JUMPDEST PUSH1 0x1 PUSH1 0x1 PUSH1 0xA0 SHL SUB DUP2 AND PUSH2 0xFD3 JUMPI PUSH1 0x40 MLOAD PUSH3 0x461BCD PUSH1 0xE5 SHL DUP2 MSTORE PUSH1 0x20 PUSH1 0x4 DUP3 ADD MSTORE PUSH1 0x12 PUSH1 0x24 DUP3 ADD MSTORE PUSH18 0x506F6F6C3A207A65726F2061646472657373 PUSH1 0x70 SHL PUSH1 0x44 DUP3 ADD MSTORE PUSH1 0x64 ADD PUSH2 0x198 JUMP JUMPDEST PUSH1 0x6 SLOAD PUSH1 0x1 PUSH1 0x1 PUSH1 0xA0 SHL SUB AND ISZERO PUSH2 0x102C JUMPI PUSH1 0x40 MLOAD PUSH3 0x461BCD PUSH1 0xE5 SHL DUP2 MSTORE PUSH1 0x20 PUSH1 0x4 DUP3 ADD MSTORE PUSH1 0x17 PUSH1 0x24 DUP3 ADD MSTORE PUSH32 0x506F6F6C3A20746F6B656E20616C726561647920736574000000000000000000 PUSH1 0x44 DUP3 ADD MSTORE PUSH1 0x64 ADD PUSH2 0x198 JUMP JUMPDEST PUSH1 0x6 DUP1 SLOAD PUSH1 0x1 PUSH1 0x1 PUSH1 0xA0 SHL SUB NOT AND PUSH1 0x1 PUSH1 0x1 PUSH1 0xA0 SHL SUB SWAP3 SWAP1 SWAP3 AND SWAP2 SWAP1 SWAP2 OR SWAP1 SSTORE JUMP JUMPDEST PUSH0 CALLER PUSH2 0x53A DUP2 DUP6 DUP6 PUSH2 0x1126 JUMP JUMPDEST PUSH2 0x1063 PUSH2 0x1209 JUMP JUMPDEST PUSH1 0x1 PUSH1 0x1 PUSH1 0xA0 SHL SUB DUP2 AND PUSH2 0x108C JUMPI PUSH1 0x40 MLOAD PUSH4 0x1E4FBDF7 PUSH1 0xE0 SHL DUP2 MSTORE PUSH0 PUSH1 0x4 DUP3 ADD MSTORE PUSH1 0x24 ADD PUSH2 0x198 JUMP JUMPDEST PUSH2 0x1095 DUP2 PUSH2 0x1236 JUMP JUMPDEST POP JUMP JUMPDEST PUSH2 0x10A5 DUP4 DUP4 DUP4 PUSH1 0x1 PUSH2 0x1360 JUMP JUMPDEST POP POP POP JUMP JUMPDEST PUSH1 0x1 PUSH1 0x1 PUSH1 0xA0 SHL SUB DUP4 DUP2 AND PUSH0 SWAP1 DUP2 MSTORE PUSH1 0x1 PUSH1 0x20 SWAP1 DUP2 MSTORE PUSH1 0x40 DUP1 DUP4 KECCAK256 SWAP4 DUP7 AND DUP4 MSTORE SWAP3 SWAP1 MSTORE KECCAK256 SLOAD PUSH0 NOT DUP2 LT ISZERO PUSH2 0x1120 JUMPI DUP2 DUP2 LT ISZERO PUSH2 0x1112 JUMPI PUSH1 0x40 MLOAD PUSH4 0x7DC7A0D9 PUSH1 0xE1 SHL DUP2 MSTORE PUSH1 0x1 PUSH1 0x1 PUSH1 0xA0 SHL SUB DUP5 AND PUSH1 0x4 DUP3 ADD MSTORE PUSH1 0x24 DUP2 ADD DUP3 SWAP1 MSTORE PUSH1 0x44 DUP2 ADD DUP4 SWAP1 MSTORE PUSH1 0x64 ADD PUSH2 0x198 JUMP JUMPDEST PUSH2 0x1120 DUP5 DUP5 DUP5 DUP5 SUB PUSH0 PUSH2 0x1360 JUMP JUMPDEST POP POP POP POP JUMP JUMPDEST PUSH1 0x1 PUSH1 0x1 PUSH1 0xA0 SHL SUB DUP4 AND PUSH2 0x114F JUMPI PUSH1 0x40 MLOAD PUSH4 0x4B637E8F PUSH1 0xE1 SHL DUP2 MSTORE PUSH0 PUSH1 0x4 DUP3 ADD MSTORE PUSH1 0x24 ADD PUSH2 0x198 JUMP JUMPDEST PUSH1 0x1 PUSH1 0x1 PUSH1 0xA0 SHL SUB DUP3 AND PUSH2 0x1178 JUMPI PUSH1 0x40 MLOAD PUSH4 0xEC442F05 PUSH1 0xE0 SHL DUP2 MSTORE PUSH0 PUSH1 0x4 DUP3 ADD MSTORE PUSH1 0x24 ADD PUSH2 0x198 JUMP JUMPDEST PUSH2 0x10A5 DUP4 DUP4 DUP4 PUSH2 0x1432 JUMP JUMPDEST PUSH2 0x118B PUSH2 0x1558 JUMP JUMPDEST PUSH1 0x2 PUSH0 DUP1 MLOAD PUSH1 0x20 PUSH2 0x1864 DUP4 CODECOPY DUP2 MLOAD SWAP2 MSTORE SSTORE JUMP JUMPDEST PUSH2 0x11AB DUP4 DUP4 DUP4 PUSH1 0x1 PUSH2 0x1587 JUMP JUMPDEST PUSH2 0x10A5 JUMPI PUSH1 0x40 MLOAD PUSH4 0x5274AFE7 PUSH1 0xE0 SHL DUP2 MSTORE PUSH1 0x1 PUSH1 0x1 PUSH1 0xA0 SHL SUB DUP5 AND PUSH1 0x4 DUP3 ADD MSTORE PUSH1 0x24 ADD PUSH2 0x198 JUMP JUMPDEST PUSH2 0x11E1 DUP5 DUP5 DUP5 DUP5 PUSH1 0x1 PUSH2 0x15E9 JUMP JUMPDEST PUSH2 0x1120 JUMPI PUSH1 0x40 MLOAD PUSH4 0x5274AFE7 PUSH1 0xE0 SHL DUP2 MSTORE PUSH1 0x1 PUSH1 0x1 PUSH1 0xA0 SHL SUB DUP6 AND PUSH1 0x4 DUP3 ADD MSTORE PUSH1 0x24 ADD PUSH2 0x198 JUMP JUMPDEST PUSH1 0x5 SLOAD PUSH1 0x1 PUSH1 0x1 PUSH1 0xA0 SHL SUB AND CALLER EQ PUSH2 0x9DF JUMPI PUSH1 0x40 MLOAD PUSH4 0x118CDAA7 PUSH1 0xE0 SHL DUP2 MSTORE CALLER PUSH1 0x4 DUP3 ADD MSTORE PUSH1 0x24 ADD PUSH2 0x198 JUMP JUMPDEST PUSH1 0x5 DUP1 SLOAD PUSH1 0x1 PUSH1 0x1 PUSH1 0xA0 SHL SUB DUP4 DUP2 AND PUSH1 0x1 PUSH1 0x1 PUSH1 0xA0 SHL SUB NOT DUP4 AND DUP2 OR SWAP1 SWAP4 SSTORE PUSH1 0x40 MLOAD SWAP2 AND SWAP2 SWAP1 DUP3 SWAP1 PUSH32 0x8BE0079C531659141344CD1FD0A4F28419497F9722A3DAAFE3B4186F6B6457E0 SWAP1 PUSH0 SWAP1 LOG3 POP POP JUMP JUMPDEST PUSH1 0x1 PUSH1 0x1 PUSH1 0xA0 SHL SUB DUP3 AND PUSH2 0x12B0 JUMPI PUSH1 0x40 MLOAD PUSH4 0x4B637E8F PUSH1 0xE1 SHL DUP2 MSTORE PUSH0 PUSH1 0x4 DUP3 ADD MSTORE PUSH1 0x24 ADD PUSH2 0x198 JUMP JUMPDEST PUSH2 0x12BB DUP3 PUSH0 DUP4 PUSH2 0x1432 JUMP JUMPDEST POP POP JUMP JUMPDEST PUSH0 PUSH1 0x3 DUP3 GT ISZERO PUSH2 0x131E JUMPI POP DUP1 PUSH0 PUSH2 0x12D7 PUSH1 0x2 DUP4 PUSH2 0x1809 JUMP JUMPDEST PUSH2 0x12E2 SWAP1 PUSH1 0x1 PUSH2 0x17F6 JUMP JUMPDEST SWAP1 POP JUMPDEST DUP2 DUP2 LT ISZERO PUSH2 0x1318 JUMPI SWAP1 POP DUP1 PUSH1 0x2 DUP2 PUSH2 0x12FD DUP2 DUP7 PUSH2 0x1809 JUMP JUMPDEST PUSH2 0x1307 SWAP2 SWAP1 PUSH2 0x17F6 JUMP JUMPDEST PUSH2 0x1311 SWAP2 SWAP1 PUSH2 0x1809 JUMP JUMPDEST SWAP1 POP PUSH2 0x12E5 JUMP JUMPDEST POP SWAP2 SWAP1 POP JUMP JUMPDEST DUP2 ISZERO PUSH2 0x749 JUMPI POP PUSH1 0x1 SWAP2 SWAP1 POP JUMP JUMPDEST PUSH1 0x1 PUSH1 0x1 PUSH1 0xA0 SHL SUB DUP3 AND PUSH2 0x1355 JUMPI PUSH1 0x40 MLOAD PUSH4 0xEC442F05 PUSH1 0xE0 SHL DUP2 MSTORE PUSH0 PUSH1 0x4 DUP3 ADD MSTORE PUSH1 0x24 ADD PUSH2 0x198 JUMP JUMPDEST PUSH2 0x12BB PUSH0 DUP4 DUP4 PUSH2 0x1432 JUMP JUMPDEST PUSH1 0x1 PUSH1 0x1 PUSH1 0xA0 SHL SUB DUP5 AND PUSH2 0x1389 JUMPI PUSH1 0x40 MLOAD PUSH4 0xE602DF05 PUSH1 0xE0 SHL DUP2 MSTORE PUSH0 PUSH1 0x4 DUP3 ADD MSTORE PUSH1 0x24 ADD PUSH2 0x198 JUMP JUMPDEST PUSH1 0x1 PUSH1 0x1 PUSH1 0xA0 SHL SUB DUP4 AND PUSH2 0x13B2 JUMPI PUSH1 0x40 MLOAD PUSH4 0x4A1406B1 PUSH1 0xE1 SHL DUP2 MSTORE PUSH0 PUSH1 0x4 DUP3 ADD MSTORE PUSH1 0x24 ADD PUSH2 0x198 JUMP JUMPDEST PUSH1 0x1 PUSH1 0x1 PUSH1 0xA0 SHL SUB DUP1 DUP6 AND PUSH0 SWAP1 DUP2 MSTORE PUSH1 0x1 PUSH1 0x20 SWAP1 DUP2 MSTORE PUSH1 0x40 DUP1 DUP4 KECCAK256 SWAP4 DUP8 AND DUP4 MSTORE SWAP3 SWAP1 MSTORE KECCAK256 DUP3 SWAP1 SSTORE DUP1 ISZERO PUSH2 0x1120 JUMPI DUP3 PUSH1 0x1 PUSH1 0x1 PUSH1 0xA0 SHL SUB AND DUP5 PUSH1 0x1 PUSH1 0x1 PUSH1 0xA0 SHL SUB AND PUSH32 0x8C5BE1E5EBEC7D5BD14F71427D1E84F3DD0314C0F7B2291E5B200AC8C7C3B925 DUP5 PUSH1 0x40 MLOAD PUSH2 0x1424 SWAP2 DUP2 MSTORE PUSH1 0x20 ADD SWAP1 JUMP JUMPDEST PUSH1 0x40 MLOAD DUP1 SWAP2 SUB SWAP1 LOG3 POP POP POP POP JUMP JUMPDEST PUSH1 0x1 PUSH1 0x1 PUSH1 0xA0 SHL SUB DUP4 AND PUSH2 0x145C JUMPI DUP1 PUSH1 0x2 PUSH0 DUP3 DUP3 SLOAD PUSH2 0x1451 SWAP2 SWAP1 PUSH2 0x17F6 JUMP JUMPDEST SWAP1 SWAP2 SSTORE POP PUSH2 0x14CC SWAP1 POP JUMP JUMPDEST PUSH1 0x1 PUSH1 0x1 PUSH1 0xA0 SHL SUB DUP4 AND PUSH0 SWAP1 DUP2 MSTORE PUSH1 0x20 DUP2 SWAP1 MSTORE PUSH1 0x40 SWAP1 KECCAK256 SLOAD DUP2 DUP2 LT ISZERO PUSH2 0x14AE JUMPI PUSH1 0x40 MLOAD PUSH4 0x391434E3 PUSH1 0xE2 SHL DUP2 MSTORE PUSH1 0x1 PUSH1 0x1 PUSH1 0xA0 SHL SUB DUP6 AND PUSH1 0x4 DUP3 ADD MSTORE PUSH1 0x24 DUP2 ADD DUP3 SWAP1 MSTORE PUSH1 0x44 DUP2 ADD DUP4 SWAP1 MSTORE PUSH1 0x64 ADD PUSH2 0x198 JUMP JUMPDEST PUSH1 0x1 PUSH1 0x1 PUSH1 0xA0 SHL SUB DUP5 AND PUSH0 SWAP1 DUP2 MSTORE PUSH1 0x20 DUP2 SWAP1 MSTORE PUSH1 0x40 SWAP1 KECCAK256 SWAP1 DUP3 SWAP1 SUB SWAP1 SSTORE JUMPDEST PUSH1 0x1 PUSH1 0x1 PUSH1 0xA0 SHL SUB DUP3 AND PUSH2 0x14E8 JUMPI PUSH1 0x2 DUP1 SLOAD DUP3 SWAP1 SUB SWAP1 SSTORE PUSH2 0x1506 JUMP JUMPDEST PUSH1 0x1 PUSH1 0x1 PUSH1 0xA0 SHL SUB DUP3 AND PUSH0 SWAP1 DUP2 MSTORE PUSH1 0x20 DUP2 SWAP1 MSTORE PUSH1 0x40 SWAP1 KECCAK256 DUP1 SLOAD DUP3 ADD SWAP1 SSTORE JUMPDEST DUP2 PUSH1 0x1 PUSH1 0x1 PUSH1 0xA0 SHL SUB AND DUP4 PUSH1 0x1 PUSH1 0x1 PUSH1 0xA0 SHL SUB AND PUSH32 0xDDF252AD1BE2C89B69C2B068FC378DAA952BA7F163C4A11628F55A4DF523B3EF DUP4 PUSH1 0x40 MLOAD PUSH2 0x154B SWAP2 DUP2 MSTORE PUSH1 0x20 ADD SWAP1 JUMP JUMPDEST PUSH1 0x40 MLOAD DUP1 SWAP2 SUB SWAP1 LOG3 POP POP POP JUMP JUMPDEST PUSH0 DUP1 MLOAD PUSH1 0x20 PUSH2 0x1864 DUP4 CODECOPY DUP2 MLOAD SWAP2 MSTORE SLOAD PUSH1 0x2 SUB PUSH2 0x9DF JUMPI PUSH1 0x40 MLOAD PUSH4 0x3EE5AEB5 PUSH1 0xE0 SHL DUP2 MSTORE PUSH1 0x4 ADD PUSH1 0x40 MLOAD DUP1 SWAP2 SUB SWAP1 REVERT JUMPDEST PUSH1 0x40 MLOAD PUSH4 0xA9059CBB PUSH1 0xE0 SHL PUSH0 DUP2 DUP2 MSTORE PUSH1 0x1 PUSH1 0x1 PUSH1 0xA0 SHL SUB DUP7 AND PUSH1 0x4 MSTORE PUSH1 0x24 DUP6 SWAP1 MSTORE SWAP2 PUSH1 0x20 DUP4 PUSH1 0x44 DUP2 DUP1 DUP12 GAS CALL SWAP3 POP PUSH1 0x1 PUSH0 MLOAD EQ DUP4 AND PUSH2 0x15DD JUMPI DUP4 DUP4 ISZERO AND ISZERO PUSH2 0x15D1 JUMPI RETURNDATASIZE PUSH0 DUP3 RETURNDATACOPY RETURNDATASIZE DUP2 REVERT JUMPDEST PUSH0 DUP8 EXTCODESIZE GT RETURNDATASIZE ISZERO AND DUP4 AND SWAP3 POP JUMPDEST PUSH1 0x40 MSTORE POP SWAP5 SWAP4 POP POP POP POP JUMP JUMPDEST PUSH1 0x40 MLOAD PUSH4 0x23B872DD PUSH1 0xE0 SHL PUSH0 DUP2 DUP2 MSTORE PUSH1 0x1 PUSH1 0x1 PUSH1 0xA0 SHL SUB DUP8 DUP2 AND PUSH1 0x4 MSTORE DUP7 AND PUSH1 0x24 MSTORE PUSH1 0x44 DUP6 SWAP1 MSTORE SWAP2 PUSH1 0x20 DUP4 PUSH1 0x64 DUP2 DUP1 DUP13 GAS CALL SWAP3 POP PUSH1 0x1 PUSH0 MLOAD EQ DUP4 AND PUSH2 0x1645 JUMPI DUP4 DUP4 ISZERO AND ISZERO PUSH2 0x1639 JUMPI RETURNDATASIZE PUSH0 DUP3 RETURNDATACOPY RETURNDATASIZE DUP2 REVERT JUMPDEST PUSH0 DUP9 EXTCODESIZE GT RETURNDATASIZE ISZERO AND DUP4 AND SWAP3 POP JUMPDEST PUSH1 0x40 MSTORE POP PUSH0 PUSH1 0x60 MSTORE SWAP6 SWAP5 POP POP POP POP POP JUMP JUMPDEST PUSH0 PUSH1 0x20 DUP1 DUP4 MSTORE DUP4 MLOAD DUP1 DUP3 DUP6 ADD MSTORE PUSH0 JUMPDEST DUP2 DUP2 LT ISZERO PUSH2 0x1681 JUMPI DUP6 DUP2 ADD DUP4 ADD MLOAD DUP6 DUP3 ADD PUSH1 0x40 ADD MSTORE DUP3 ADD PUSH2 0x1665 JUMP JUMPDEST POP PUSH0 PUSH1 0x40 DUP3 DUP7 ADD ADD MSTORE PUSH1 0x40 PUSH1 0x1F NOT PUSH1 0x1F DUP4 ADD AND DUP6 ADD ADD SWAP3 POP POP POP SWAP3 SWAP2 POP POP JUMP JUMPDEST DUP1 CALLDATALOAD PUSH1 0x1 PUSH1 0x1 PUSH1 0xA0 SHL SUB DUP2 AND DUP2 EQ PUSH2 0x749 JUMPI PUSH0 DUP1 REVERT JUMPDEST PUSH0 DUP1 PUSH1 0x40 DUP4 DUP6 SUB SLT ISZERO PUSH2 0x16C8 JUMPI PUSH0 DUP1 REVERT JUMPDEST PUSH2 0x16D1 DUP4 PUSH2 0x16A1 JUMP JUMPDEST SWAP5 PUSH1 0x20 SWAP4 SWAP1 SWAP4 ADD CALLDATALOAD SWAP4 POP POP POP JUMP JUMPDEST PUSH0 DUP1 PUSH0 PUSH1 0x60 DUP5 DUP7 SUB SLT ISZERO PUSH2 0x16F1 JUMPI PUSH0 DUP1 REVERT JUMPDEST PUSH2 0x16FA DUP5 PUSH2 0x16A1 JUMP JUMPDEST SWAP3 POP PUSH2 0x1708 PUSH1 0x20 DUP6 ADD PUSH2 0x16A1 JUMP JUMPDEST SWAP2 POP PUSH1 0x40 DUP5 ADD CALLDATALOAD SWAP1 POP SWAP3 POP SWAP3 POP SWAP3 JUMP JUMPDEST PUSH0 PUSH1 0x20 DUP3 DUP5 SUB SLT ISZERO PUSH2 0x1728 JUMPI PUSH0 DUP1 REVERT JUMPDEST POP CALLDATALOAD SWAP2 SWAP1 POP JUMP JUMPDEST PUSH0 DUP1 PUSH1 0x40 DUP4 DUP6 SUB SLT ISZERO PUSH2 0x1740 JUMPI PUSH0 DUP1 REVERT JUMPDEST POP POP DUP1 CALLDATALOAD SWAP3 PUSH1 0x20 SWAP1 SWAP2 ADD CALLDATALOAD SWAP2 POP JUMP JUMPDEST PUSH0 PUSH1 0x20 DUP3 DUP5 SUB SLT ISZERO PUSH2 0x175F JUMPI PUSH0 DUP1 REVERT JUMPDEST PUSH2 0xA3F DUP3 PUSH2 0x16A1 JUMP JUMPDEST PUSH0 DUP1 PUSH1 0x40 DUP4 DUP6 SUB SLT ISZERO PUSH2 0x1779 JUMPI PUSH0 DUP1 REVERT JUMPDEST PUSH2 0x1782 DUP4 PUSH2 0x16A1 JUMP JUMPDEST SWAP2 POP PUSH2 0x1790 PUSH1 0x20 DUP5 ADD PUSH2 0x16A1 JUMP JUMPDEST SWAP1 POP SWAP3 POP SWAP3 SWAP1 POP JUMP JUMPDEST PUSH1 0x1 DUP2 DUP2 SHR SWAP1 DUP3 AND DUP1 PUSH2 0x17AD JUMPI PUSH1 0x7F DUP3 AND SWAP2 POP JUMPDEST PUSH1 0x20 DUP3 LT DUP2 SUB PUSH2 0x1318 JUMPI PUSH4 0x4E487B71 PUSH1 0xE0 SHL PUSH0 MSTORE PUSH1 0x22 PUSH1 0x4 MSTORE PUSH1 0x24 PUSH0 REVERT JUMPDEST PUSH4 0x4E487B71 PUSH1 0xE0 SHL PUSH0 MSTORE PUSH1 0x11 PUSH1 0x4 MSTORE PUSH1 0x24 PUSH0 REVERT JUMPDEST DUP1 DUP3 MUL DUP2 ISZERO DUP3 DUP3 DIV DUP5 EQ OR PUSH2 0x540 JUMPI PUSH2 0x540 PUSH2 0x17CB JUMP JUMPDEST DUP1 DUP3 ADD DUP1 DUP3 GT ISZERO PUSH2 0x540 JUMPI PUSH2 0x540 PUSH2 0x17CB JUMP JUMPDEST PUSH0 DUP3 PUSH2 0x1823 JUMPI PUSH4 0x4E487B71 PUSH1 0xE0 SHL PUSH0 MSTORE PUSH1 0x12 PUSH1 0x4 MSTORE PUSH1 0x24 PUSH0 REVERT JUMPDEST POP DIV SWAP1 JUMP JUMPDEST PUSH1 0x20 DUP1 DUP3 MSTORE PUSH1 0xE SWAP1 DUP3 ADD MSTORE PUSH14 0x506F6F6C3A20736C697070616765 PUSH1 0x90 SHL PUSH1 0x40 DUP3 ADD MSTORE PUSH1 0x60 ADD SWAP1 JUMP JUMPDEST DUP2 DUP2 SUB DUP2 DUP2 GT ISZERO PUSH2 0x540 JUMPI PUSH2 0x540 PUSH2 0x17CB JUMP INVALID SWAP12 PUSH24 0x9B17422D0DF92223018B32B4D1FA46E071723D6817E2486D STOP EXTCODESIZE 0xEC 0xC5 PUSH0 STOP LOG2 PUSH5 0x6970667358 0x22 SLT KECCAK256 0xEC DUP6 0x2B CALLDATASIZE 0xBC CREATE2 0xEF SHL RETURNDATASIZE 0xEE 0xED RETURNDATACOPY 0xD5 DUP9 RETURNDATACOPY PC DUP8 PUSH10 0x726EA664B05DB2F41B7B ISZERO MSTORE DUP5 SWAP7 PUSH5 0x736F6C6343 STOP ADDMOD EQ STOP CALLER "},"methodIdentifiers":{"addLiquidity(uint256,uint256)":"9cd441da","allowance(address,address)":"dd62ed3e","approve(address,uint256)":"095ea7b3","balanceOf(address)":"70a08231","decimals()":"313ce567","ethReserve()":"d62ccb3f","funReserve()":"85bd3bc2","funToken()":"845380a2","getReserves()":"0902f1ac","name()":"06fdde03","owner()":"8da5cb5b","quoteEthForFun(uint256)":"768e061c","quoteFunForEth(uint256)":"96120636","removeLiquidity(uint256)":"9c8f9f23","renounceOwnership()":"715018a6","setTokens(address)":"a639eb4d","swapEthForFun(uint256)":"54ec83ec","swapFunForEth(uint256,uint256)":"6e42c241","symbol()":"95d89b41","totalSupply()":"18160ddd","transfer(address,uint256)":"a9059cbb","transferFrom(address,address,uint256)":"23b872dd","transferOwnership(address)":"f2fde38b"}}}}}