{"project/contracts/GameHub.sol":{"GameHub":{"abi":[{"inputs":[{"internalType":"address","name":"_coordinator","type":"address"},{"internalType":"uint256","name":"_subscriptionId","type":"uint256"},{"internalType":"bytes32","name":"_keyHash","type":"bytes32"}],"stateMutability":"payable","type":"constructor"},{"inputs":[{"internalType":"address","name":"have","type":"address"},{"internalType":"address","name":"want","type":"address"}],"name":"OnlyCoordinatorCanFulfill","type":"error"},{"inputs":[{"internalType":"address","name":"have","type":"address"},{"internalType":"address","name":"owner","type":"address"},{"internalType":"address","name":"coordinator","type":"address"}],"name":"OnlyOwnerOrCoordinator","type":"error"},{"inputs":[],"name":"ReentrancyGuardReentrantCall","type":"error"},{"inputs":[],"name":"ZeroAddress","type":"error"},{"anonymous":false,"inputs":[{"indexed":false,"internalType":"address","name":"vrfCoordinator","type":"address"}],"name":"CoordinatorSet","type":"event"},{"anonymous":false,"inputs":[{"indexed":false,"internalType":"address","name":"token","type":"address"}],"name":"FunTokenSet","type":"event"},{"anonymous":false,"inputs":[{"indexed":true,"internalType":"address","name":"by","type":"address"},{"indexed":false,"internalType":"uint256","name":"amount","type":"uint256"}],"name":"FundsDeposited","type":"event"},{"anonymous":false,"inputs":[{"indexed":true,"internalType":"address","name":"to","type":"address"},{"indexed":false,"internalType":"uint256","name":"amount","type":"uint256"}],"name":"FundsWithdrawn","type":"event"},{"anonymous":false,"inputs":[{"indexed":true,"internalType":"address","name":"player","type":"address"},{"indexed":true,"internalType":"enum GameHub.GameType","name":"game","type":"uint8"},{"indexed":false,"internalType":"uint256","name":"betAmount","type":"uint256"},{"indexed":false,"internalType":"uint256","name":"choice","type":"uint256"},{"indexed":false,"internalType":"uint256","name":"requestId","type":"uint256"}],"name":"GameCommitted","type":"event"},{"anonymous":false,"inputs":[{"indexed":true,"internalType":"address","name":"player","type":"address"},{"indexed":true,"internalType":"enum GameHub.GameType","name":"game","type":"uint8"},{"indexed":false,"internalType":"uint256","name":"choice","type":"uint256"},{"indexed":false,"internalType":"uint256","name":"result","type":"uint256"},{"indexed":false,"internalType":"bool","name":"won","type":"bool"},{"indexed":false,"internalType":"uint256","name":"payout","type":"uint256"},{"indexed":false,"internalType":"uint256","name":"funRewarded","type":"uint256"}],"name":"GamePlayed","type":"event"},{"anonymous":false,"inputs":[{"indexed":true,"internalType":"address","name":"from","type":"address"},{"indexed":true,"internalType":"address","name":"to","type":"address"}],"name":"OwnershipTransferRequested","type":"event"},{"anonymous":false,"inputs":[{"indexed":true,"internalType":"address","name":"from","type":"address"},{"indexed":true,"internalType":"address","name":"to","type":"address"}],"name":"OwnershipTransferred","type":"event"},{"inputs":[],"name":"REQUEST_CONFIRMATIONS","outputs":[{"internalType":"uint16","name":"","type":"uint16"}],"stateMutability":"view","type":"function"},{"inputs":[],"name":"acceptOwnership","outputs":[],"stateMutability":"nonpayable","type":"function"},{"inputs":[{"internalType":"address","name":"","type":"address"}],"name":"activeRequest","outputs":[{"internalType":"uint256","name":"","type":"uint256"}],"stateMutability":"view","type":"function"},{"inputs":[],"name":"callbackGasLimit","outputs":[{"internalType":"uint32","name":"","type":"uint32"}],"stateMutability":"view","type":"function"},{"inputs":[{"internalType":"enum GameHub.GameType","name":"game","type":"uint8"},{"internalType":"uint256","name":"choice","type":"uint256"}],"name":"commitPlay","outputs":[{"internalType":"uint256","name":"requestId","type":"uint256"}],"stateMutability":"payable","type":"function"},{"inputs":[],"name":"deposit","outputs":[],"stateMutability":"payable","type":"function"},{"inputs":[],"name":"funRewardRate","outputs":[{"internalType":"uint256","name":"","type":"uint256"}],"stateMutability":"view","type":"function"},{"inputs":[],"name":"funToken","outputs":[{"internalType":"contract IFunToken","name":"","type":"address"}],"stateMutability":"view","type":"function"},{"inputs":[{"internalType":"address","name":"player","type":"address"}],"name":"getActiveRequest","outputs":[{"internalType":"uint256","name":"","type":"uint256"}],"stateMutability":"view","type":"function"},{"inputs":[],"name":"houseBalance","outputs":[{"internalType":"uint256","name":"","type":"uint256"}],"stateMutability":"view","type":"function"},{"inputs":[],"name":"keyHash","outputs":[{"internalType":"bytes32","name":"","type":"bytes32"}],"stateMutability":"view","type":"function"},{"inputs":[],"name":"maxBet","outputs":[{"internalType":"uint256","name":"","type":"uint256"}],"stateMutability":"view","type":"function"},{"inputs":[],"name":"minBet","outputs":[{"internalType":"uint256","name":"","type":"uint256"}],"stateMutability":"view","type":"function"},{"inputs":[],"name":"owner","outputs":[{"internalType":"address","name":"","type":"address"}],"stateMutability":"view","type":"function"},{"inputs":[{"internalType":"uint256","name":"","type":"uint256"}],"name":"pendingGames","outputs":[{"internalType":"address","name":"player","type":"address"},{"internalType":"enum GameHub.GameType","name":"game","type":"uint8"},{"internalType":"uint256","name":"betAmount","type":"uint256"},{"internalType":"uint256","name":"choice","type":"uint256"}],"stateMutability":"view","type":"function"},{"inputs":[{"internalType":"uint256","name":"requestId","type":"uint256"},{"internalType":"uint256[]","name":"randomWords","type":"uint256[]"}],"name":"rawFulfillRandomWords","outputs":[],"stateMutability":"nonpayable","type":"function"},{"inputs":[],"name":"s_vrfCoordinator","outputs":[{"internalType":"contract IVRFCoordinatorV2Plus","name":"","type":"address"}],"stateMutability":"view","type":"function"},{"inputs":[{"internalType":"uint256","name":"_min","type":"uint256"},{"internalType":"uint256","name":"_max","type":"uint256"}],"name":"setBetLimits","outputs":[],"stateMutability":"nonpayable","type":"function"},{"inputs":[{"internalType":"address","name":"_vrfCoordinator","type":"address"}],"name":"setCoordinator","outputs":[],"stateMutability":"nonpayable","type":"function"},{"inputs":[{"internalType":"address","name":"_token","type":"address"}],"name":"setFunToken","outputs":[],"stateMutability":"nonpayable","type":"function"},{"inputs":[{"internalType":"uint256","name":"rate","type":"uint256"}],"name":"setRewardRate","outputs":[],"stateMutability":"nonpayable","type":"function"},{"inputs":[{"internalType":"bytes32","name":"_keyHash","type":"bytes32"},{"internalType":"uint32","name":"_callbackGasLimit","type":"uint32"}],"name":"setVrfConfig","outputs":[],"stateMutability":"nonpayable","type":"function"},{"inputs":[],"name":"subscriptionId","outputs":[{"internalType":"uint256","name":"","type":"uint256"}],"stateMutability":"view","type":"function"},{"inputs":[{"internalType":"address","name":"to","type":"address"}],"name":"transferOwnership","outputs":[],"stateMutability":"nonpayable","type":"function"},{"inputs":[{"internalType":"uint256","name":"amount","type":"uint256"}],"name":"withdraw","outputs":[],"stateMutability":"nonpayable","type":"function"},{"stateMutability":"payable","type":"receive"}],"evm":{"bytecode":{"linkReferences":{},"object":"60a060408190526005805463ffffffff191662030d40179055655af3107a400060065567016345785d8a0000600755620f4240600855620018e03881900390819083398101604081905262000054916200021e565b8233805f81620000ab5760405162461bcd60e51b815260206004820152601860248201527f43616e6e6f7420736574206f776e657220746f207a65726f000000000000000060448201526064015b60405180910390fd5b5f80546001600160a01b0319166001600160a01b0384811691909117909155811615620000dd57620000dd8162000174565b5050506001600160a01b038116620001085760405163d92e233d60e01b815260040160405180910390fd5b600280546001600160a01b0319166001600160a01b0392909216919091179055600162000159620001567f9b779b17422d0df92223018b32b4d1fa46e071723d6817e2486d003becc55f0090565b90565b556001600160a01b039092166080526003556004556200025f565b336001600160a01b03821603620001ce5760405162461bcd60e51b815260206004820152601760248201527f43616e6e6f74207472616e7366657220746f2073656c660000000000000000006044820152606401620000a2565b600180546001600160a01b0319166001600160a01b038381169182179092555f8054604051929316917fed8889f560326eb138920d842192f0eb3dd22b4f139c87a2c57538e05bae12789190a350565b5f805f6060848603121562000231575f80fd5b83516001600160a01b038116811462000248575f80fd5b602085015160409095015190969495509392505050565b608051611668620002785f395f6108a901526116685ff3fe608060405260043610610164575f3560e01c80637687dd49116100cd5780639e447fc611610087578063d0e30db011610062578063d0e30db014610486578063e8cbe6a91461048e578063f10092d7146104ad578063f2fde38b146104cc575f80fd5b80639e447fc61461041d5780639eccacf61461043c578063c2c779381461045b575f80fd5b80637687dd491461035b57806379ba50971461037a578063845380a21461038e5780638da5cb5b146103cd5780638ea98117146103e95780639619367d14610408575f80fd5b80633233582a1161011e5780633233582a14610267578063336baa931461029b578063579e94ee146102ae57806361728f391461030d57806367084eb31461032257806367f082b014610334575f80fd5b806309c1ba2e146101a45780631fe543e3146101cc57806320f8fc77146101ed57806324f74697146102025780632e1a7d4d146102335780632e5b216814610252575f80fd5b366101a05760405134815233907f543ba50a5eec5e6178218e364b1d0f396157b3c8fa278522c2cb7fd99407d4749060200160405180910390a2005b5f80fd5b3480156101af575f80fd5b506101b960035481565b6040519081526020015b60405180910390f35b3480156101d7575f80fd5b506101eb6101e636600461135c565b6104eb565b005b3480156101f8575f80fd5b506101b960085481565b34801561020d575f80fd5b5060055461021e9063ffffffff1681565b60405163ffffffff90911681526020016101c3565b34801561023e575f80fd5b506101eb61024d3660046113d4565b610540565b34801561025d575f80fd5b506101b960075481565b348015610272575f80fd5b506101b96102813660046113eb565b6001600160a01b03165f908152600a602052604090205490565b6101b96102a9366004611418565b610666565b3480156102b9575f80fd5b506102fd6102c83660046113d4565b60096020525f90815260409020805460018201546002909201546001600160a01b03821692600160a01b90920460ff16919084565b6040516101c39493929190611459565b348015610318575f80fd5b506101b960045481565b34801561032d575f80fd5b50476101b9565b34801561033f575f80fd5b50610348600381565b60405161ffff90911681526020016101c3565b348015610366575f80fd5b506101eb6103753660046114a0565b610a84565b348015610385575f80fd5b506101eb610ae6565b348015610399575f80fd5b506005546103b59064010000000090046001600160a01b031681565b6040516001600160a01b0390911681526020016101c3565b3480156103d8575f80fd5b505f546001600160a01b03166103b5565b3480156103f4575f80fd5b506101eb6104033660046113eb565b610b8f565b348015610413575f80fd5b506101b960065481565b348015610428575f80fd5b506101eb6104373660046113d4565b610c80565b348015610447575f80fd5b506002546103b5906001600160a01b031681565b348015610466575f80fd5b506101b96104753660046113eb565b600a6020525f908152604090205481565b6101eb610c8d565b348015610499575f80fd5b506101eb6104a83660046113eb565b610ccc565b3480156104b8575f80fd5b506101eb6104c73660046114c0565b610d30565b3480156104d7575f80fd5b506101eb6104e63660046113eb565b610d59565b6002546001600160a01b031633146105305760025460405163073e64fd60e21b81523360048201526001600160a01b0390911660248201526044015b60405180910390fd5b61053b838383610d6d565b505050565b61054861117f565b804710156105985760405162461bcd60e51b815260206004820152601d60248201527f47616d654875623a20696e73756666696369656e742062616c616e63650000006044820152606401610527565b6040515f90339083908381818185875af1925050503d805f81146105d7576040519150601f19603f3d011682016040523d82523d5f602084013e6105dc565b606091505b505090508061062d5760405162461bcd60e51b815260206004820152601860248201527f47616d654875623a207769746864726177206661696c656400000000000000006044820152606401610527565b60405182815233907feaff4b37086828766ad3268786972c0cd24259d4c87a80f9d3963a3c3d999b0d9060200160405180910390a25050565b5f61066f6111d3565b6006543410156106c15760405162461bcd60e51b815260206004820152601a60248201527f47616d654875623a206265742062656c6f77206d696e696d756d0000000000006044820152606401610527565b6007543411156107135760405162461bcd60e51b815260206004820152601a60248201527f47616d654875623a206265742061626f7665206d6178696d756d0000000000006044820152606401610527565b335f908152600a60205260409020541561076f5760405162461bcd60e51b815260206004820152601c60248201527f47616d654875623a2070656e64696e672067616d6520657869737473000000006044820152606401610527565b5f83600281111561078257610782611445565b036107e5578115806107945750816001145b6107e05760405162461bcd60e51b815260206004820152601e60248201527f47616d654875623a2063686f696365206d7573742062652030206f72203100006044820152606401610527565b61085c565b60018360028111156107f9576107f9611445565b0361085c5760018210158015610810575060068211155b61085c5760405162461bcd60e51b815260206004820152601b60248201527f47616d654875623a2063686f696365206d75737420626520312d3600000000006044820152606401610527565b6040805160c0810182526004548152600380546020808401919091528284019190915260055463ffffffff1660608301526001608083015282519081019092525f82526001600160a01b037f00000000000000000000000000000000000000000000000000000000000000001691639b1c385e919060a08201906108df90611201565b8152506040518263ffffffff1660e01b81526004016108fe91906114f6565b6020604051808303815f875af115801561091a573d5f803e3d5ffd5b505050506040513d601f19601f8201168201806040525081019061093e919061158f565b90506040518060800160405280336001600160a01b0316815260200184600281111561096c5761096c611445565b81523460208083019190915260409182018590525f8481526009825291909120825181546001600160a01b039091166001600160a01b031982168117835592840151919283916001600160a81b03191617600160a01b8360028111156109d4576109d4611445565b02179055506040828101516001830155606090920151600291820155335f908152600a602052919091208290558390811115610a1257610a12611445565b604080513481526020810185905290810183905233907f8ab9588f98c47c27efe9da8d6bb8dc4620cc165da5454e59307b2eec44bdec2d9060600160405180910390a3610a7e60017f9b779b17422d0df92223018b32b4d1fa46e071723d6817e2486d003becc55f0055565b92915050565b610a8c61117f565b808210610adb5760405162461bcd60e51b815260206004820152601760248201527f47616d654875623a20696e76616c6964206c696d6974730000000000000000006044820152606401610527565b600691909155600755565b6001546001600160a01b03163314610b395760405162461bcd60e51b815260206004820152601660248201527526bab9ba10313290383937b837b9b2b21037bbb732b960511b6044820152606401610527565b5f8054336001600160a01b0319808316821784556001805490911690556040516001600160a01b0390921692909183917f8be0079c531659141344cd1fd0a4f28419497f9722a3daafe3b4186f6b6457e091a350565b5f546001600160a01b03163314801590610bb457506002546001600160a01b03163314155b15610c045733610bcb5f546001600160a01b031690565b60025460405163061db9c160e01b81526001600160a01b0393841660048201529183166024830152919091166044820152606401610527565b6001600160a01b038116610c2b5760405163d92e233d60e01b815260040160405180910390fd5b600280546001600160a01b0319166001600160a01b0383169081179091556040519081527fd1a6a14209a385a964d036e404cb5cfb71f4000cdb03c9366292430787261be6906020015b60405180910390a150565b610c8861117f565b600855565b610c9561117f565b60405134815233907f543ba50a5eec5e6178218e364b1d0f396157b3c8fa278522c2cb7fd99407d4749060200160405180910390a2565b610cd461117f565b60058054640100000000600160c01b0319166401000000006001600160a01b038416908102919091179091556040519081527fad7172730c4d7f71b64063b3b542daec2b240b80e131567d78da5eb5346d5a7e90602001610c75565b610d3861117f565b6004919091556005805463ffffffff191663ffffffff909216919091179055565b610d6161117f565b610d6a81611272565b50565b5f83815260096020908152604080832081516080810190925280546001600160a01b03811683529192909190830190600160a01b900460ff166002811115610db757610db7611445565b6002811115610dc857610dc8611445565b81526020016001820154815260200160028201548152505090505f816040015111610e355760405162461bcd60e51b815260206004820152601860248201527f47616d654875623a20756e6b6e6f776e207265717565737400000000000000006044820152606401610527565b5f84815260096020908152604080832080546001600160a81b03191681556001810184905560020183905583516001600160a01b03168352600a909152812081905583838281610e8757610e876115a6565b602002919091013591505f905080808085602001516002811115610ead57610ead611445565b03610ef357610ebd6002856115ce565b92508285606001511490508015610eee576064856040015160be610ee191906115f5565b610eeb919061160c565b91505b610fb5565b600185602001516002811115610f0b57610f0b611445565b03610f4b57610f1b6006856115ce565b610f2690600161161f565b92508285606001511490508015610eee576064856040015161023a610ee191906115f5565b610f566008856115ce565b9250825f03610f8857606485604001516101db610f7391906115f5565b610f7d919061160c565b915060019050610fb5565b6003831015610fb5576064856040015160be610fa491906115f5565b610fae919061160c565b9150600190505b5f818015610fc257505f83115b8015610fce5750824710155b156110ee5785516040515f916001600160a01b03169085908381818185875af1925050503d805f811461101c576040519150601f19603f3d011682016040523d82523d5f602084013e611021565b606091505b5050905080156110e15760055464010000000090046001600160a01b0316156110dc57670de0b6b3a7640000600854886040015161105f91906115f5565b611069919061160c565b915081156110dc5760055487516040516340c10f1960e01b81526001600160a01b0391821660048201526024810185905264010000000090920416906340c10f19906044015f604051808303815f87803b1580156110c5575f80fd5b505af11580156110d7573d5f803e3d5ffd5b505050505b6110e8565b5f92505f93505b506110fb565b81156110fb575f91505f92505b8560200151600281111561111157611111611445565b8651606080890151604080519182526020820189905286151590820152908101869052608081018490526001600160a01b03909116907f01409bb1b48983f6425a853e99eac03b246087927fa0daf61d17c38bb438e3b29060a00160405180910390a3505050505050505050565b5f546001600160a01b031633146111d15760405162461bcd60e51b815260206004820152601660248201527527b7363c9031b0b63630b1363290313c9037bbb732b960511b6044820152606401610527565b565b6111db61131a565b60027f9b779b17422d0df92223018b32b4d1fa46e071723d6817e2486d003becc55f0055565b60607f92fd13387c7fe7befbc38d303d6468778fb9731bc4583f17d92989c6fcfdeaaa8260405160240161123a91511515815260200190565b60408051601f198184030181529190526020810180516001600160e01b03166001600160e01b03199093169290921790915292915050565b336001600160a01b038216036112ca5760405162461bcd60e51b815260206004820152601760248201527f43616e6e6f74207472616e7366657220746f2073656c660000000000000000006044820152606401610527565b600180546001600160a01b0319166001600160a01b038381169182179092555f8054604051929316917fed8889f560326eb138920d842192f0eb3dd22b4f139c87a2c57538e05bae12789190a350565b7f9b779b17422d0df92223018b32b4d1fa46e071723d6817e2486d003becc55f00546002036111d157604051633ee5aeb560e01b815260040160405180910390fd5b5f805f6040848603121561136e575f80fd5b83359250602084013567ffffffffffffffff8082111561138c575f80fd5b818601915086601f83011261139f575f80fd5b8135818111156113ad575f80fd5b8760208260051b85010111156113c1575f80fd5b6020830194508093505050509250925092565b5f602082840312156113e4575f80fd5b5035919050565b5f602082840312156113fb575f80fd5b81356001600160a01b0381168114611411575f80fd5b9392505050565b5f8060408385031215611429575f80fd5b823560038110611437575f80fd5b946020939093013593505050565b634e487b7160e01b5f52602160045260245ffd5b6001600160a01b0385168152608081016003851061148557634e487b7160e01b5f52602160045260245ffd5b84602083015283604083015282606083015295945050505050565b5f80604083850312156114b1575f80fd5b50508035926020909101359150565b5f80604083850312156114d1575f80fd5b82359150602083013563ffffffff811681146114eb575f80fd5b809150509250929050565b5f602080835283518184015280840151604084015261ffff6040850151166060840152606084015163ffffffff80821660808601528060808701511660a0860152505060a084015160c08085015280518060e08601525f5b8181101561156b578281018401518682016101000152830161154e565b5061010092505f83828701015282601f19601f830116860101935050505092915050565b5f6020828403121561159f575f80fd5b5051919050565b634e487b7160e01b5f52603260045260245ffd5b634e487b7160e01b5f52601260045260245ffd5b5f826115dc576115dc6115ba565b500690565b634e487b7160e01b5f52601160045260245ffd5b8082028115828204841417610a7e57610a7e6115e1565b5f8261161a5761161a6115ba565b500490565b80820180821115610a7e57610a7e6115e156fea2646970667358221220fd8010d60a5b4a0046920d1e3756675ffa5abfd44c957cc84e14a766701abaeb64736f6c63430008140033","opcodes":"PUSH1 0xA0 PUSH1 0x40 DUP2 SWAP1 MSTORE PUSH1 0x5 DUP1 SLOAD PUSH4 0xFFFFFFFF NOT AND PUSH3 0x30D40 OR SWAP1 SSTORE PUSH6 0x5AF3107A4000 PUSH1 0x6 SSTORE PUSH8 0x16345785D8A0000 PUSH1 0x7 SSTORE PUSH3 0xF4240 PUSH1 0x8 SSTORE PUSH3 0x18E0 CODESIZE DUP2 SWAP1 SUB SWAP1 DUP2 SWAP1 DUP4 CODECOPY DUP2 ADD PUSH1 0x40 DUP2 SWAP1 MSTORE PUSH3 0x54 SWAP2 PUSH3 0x21E JUMP JUMPDEST DUP3 CALLER DUP1 PUSH0 DUP2 PUSH3 0xAB JUMPI PUSH1 0x40 MLOAD PUSH3 0x461BCD PUSH1 0xE5 SHL DUP2 MSTORE PUSH1 0x20 PUSH1 0x4 DUP3 ADD MSTORE PUSH1 0x18 PUSH1 0x24 DUP3 ADD MSTORE PUSH32 0x43616E6E6F7420736574206F776E657220746F207A65726F0000000000000000 PUSH1 0x44 DUP3 ADD MSTORE PUSH1 0x64 ADD JUMPDEST PUSH1 0x40 MLOAD DUP1 SWAP2 SUB SWAP1 REVERT JUMPDEST PUSH0 DUP1 SLOAD PUSH1 0x1 PUSH1 0x1 PUSH1 0xA0 SHL SUB NOT AND PUSH1 0x1 PUSH1 0x1 PUSH1 0xA0 SHL SUB DUP5 DUP2 AND SWAP2 SWAP1 SWAP2 OR SWAP1 SWAP2 SSTORE DUP2 AND ISZERO PUSH3 0xDD JUMPI PUSH3 0xDD DUP2 PUSH3 0x174 JUMP JUMPDEST POP POP POP PUSH1 0x1 PUSH1 0x1 PUSH1 0xA0 SHL SUB DUP2 AND PUSH3 0x108 JUMPI PUSH1 0x40 MLOAD PUSH4 0xD92E233D PUSH1 0xE0 SHL DUP2 MSTORE PUSH1 0x4 ADD PUSH1 0x40 MLOAD DUP1 SWAP2 SUB SWAP1 REVERT JUMPDEST PUSH1 0x2 DUP1 SLOAD PUSH1 0x1 PUSH1 0x1 PUSH1 0xA0 SHL SUB NOT AND PUSH1 0x1 PUSH1 0x1 PUSH1 0xA0 SHL SUB SWAP3 SWAP1 SWAP3 AND SWAP2 SWAP1 SWAP2 OR SWAP1 SSTORE PUSH1 0x1 PUSH3 0x159 PUSH3 0x156 PUSH32 0x9B779B17422D0DF92223018B32B4D1FA46E071723D6817E2486D003BECC55F00 SWAP1 JUMP JUMPDEST SWAP1 JUMP JUMPDEST SSTORE PUSH1 0x1 PUSH1 0x1 PUSH1 0xA0 SHL SUB SWAP1 SWAP3 AND PUSH1 0x80 MSTORE PUSH1 0x3 SSTORE PUSH1 0x4 SSTORE PUSH3 0x25F JUMP JUMPDEST CALLER PUSH1 0x1 PUSH1 0x1 PUSH1 0xA0 SHL SUB DUP3 AND SUB PUSH3 0x1CE JUMPI PUSH1 0x40 MLOAD PUSH3 0x461BCD PUSH1 0xE5 SHL DUP2 MSTORE PUSH1 0x20 PUSH1 0x4 DUP3 ADD MSTORE PUSH1 0x17 PUSH1 0x24 DUP3 ADD MSTORE PUSH32 0x43616E6E6F74207472616E7366657220746F2073656C66000000000000000000 PUSH1 0x44 DUP3 ADD MSTORE PUSH1 0x64 ADD PUSH3 0xA2 JUMP JUMPDEST PUSH1 0x1 DUP1 SLOAD PUSH1 0x1 PUSH1 0x1 PUSH1 0xA0 SHL SUB NOT AND PUSH1 0x1 PUSH1 0x1 PUSH1 0xA0 SHL SUB DUP4 DUP2 AND SWAP2 DUP3 OR SWAP1 SWAP3 SSTORE PUSH0 DUP1 SLOAD PUSH1 0x40 MLOAD SWAP3 SWAP4 AND SWAP2 PUSH32 0xED8889F560326EB138920D842192F0EB3DD22B4F139C87A2C57538E05BAE1278 SWAP2 SWAP1 LOG3 POP JUMP JUMPDEST PUSH0 DUP1 PUSH0 PUSH1 0x60 DUP5 DUP7 SUB SLT ISZERO PUSH3 0x231 JUMPI PUSH0 DUP1 REVERT JUMPDEST DUP4 MLOAD PUSH1 0x1 PUSH1 0x1 PUSH1 0xA0 SHL SUB DUP2 AND DUP2 EQ PUSH3 0x248 JUMPI PUSH0 DUP1 REVERT JUMPDEST PUSH1 0x20 DUP6 ADD MLOAD PUSH1 0x40 SWAP1 SWAP6 ADD MLOAD SWAP1 SWAP7 SWAP5 SWAP6 POP SWAP4 SWAP3 POP POP POP JUMP JUMPDEST PUSH1 0x80 MLOAD PUSH2 0x1668 PUSH3 0x278 PUSH0 CODECOPY PUSH0 PUSH2 0x8A9 ADD MSTORE PUSH2 0x1668 PUSH0 RETURN INVALID PUSH1 0x80 PUSH1 0x40 MSTORE PUSH1 0x4 CALLDATASIZE LT PUSH2 0x164 JUMPI PUSH0 CALLDATALOAD PUSH1 0xE0 SHR DUP1 PUSH4 0x7687DD49 GT PUSH2 0xCD JUMPI DUP1 PUSH4 0x9E447FC6 GT PUSH2 0x87 JUMPI DUP1 PUSH4 0xD0E30DB0 GT PUSH2 0x62 JUMPI DUP1 PUSH4 0xD0E30DB0 EQ PUSH2 0x486 JUMPI DUP1 PUSH4 0xE8CBE6A9 EQ PUSH2 0x48E JUMPI DUP1 PUSH4 0xF10092D7 EQ PUSH2 0x4AD JUMPI DUP1 PUSH4 0xF2FDE38B EQ PUSH2 0x4CC JUMPI PUSH0 DUP1 REVERT JUMPDEST DUP1 PUSH4 0x9E447FC6 EQ PUSH2 0x41D JUMPI DUP1 PUSH4 0x9ECCACF6 EQ PUSH2 0x43C JUMPI DUP1 PUSH4 0xC2C77938 EQ PUSH2 0x45B JUMPI PUSH0 DUP1 REVERT JUMPDEST DUP1 PUSH4 0x7687DD49 EQ PUSH2 0x35B JUMPI DUP1 PUSH4 0x79BA5097 EQ PUSH2 0x37A JUMPI DUP1 PUSH4 0x845380A2 EQ PUSH2 0x38E JUMPI DUP1 PUSH4 0x8DA5CB5B EQ PUSH2 0x3CD JUMPI DUP1 PUSH4 0x8EA98117 EQ PUSH2 0x3E9 JUMPI DUP1 PUSH4 0x9619367D EQ PUSH2 0x408 JUMPI PUSH0 DUP1 REVERT JUMPDEST DUP1 PUSH4 0x3233582A GT PUSH2 0x11E JUMPI DUP1 PUSH4 0x3233582A EQ PUSH2 0x267 JUMPI DUP1 PUSH4 0x336BAA93 EQ PUSH2 0x29B JUMPI DUP1 PUSH4 0x579E94EE EQ PUSH2 0x2AE JUMPI DUP1 PUSH4 0x61728F39 EQ PUSH2 0x30D JUMPI DUP1 PUSH4 0x67084EB3 EQ PUSH2 0x322 JUMPI DUP1 PUSH4 0x67F082B0 EQ PUSH2 0x334 JUMPI PUSH0 DUP1 REVERT JUMPDEST DUP1 PUSH4 0x9C1BA2E EQ PUSH2 0x1A4 JUMPI DUP1 PUSH4 0x1FE543E3 EQ PUSH2 0x1CC JUMPI DUP1 PUSH4 0x20F8FC77 EQ PUSH2 0x1ED JUMPI DUP1 PUSH4 0x24F74697 EQ PUSH2 0x202 JUMPI DUP1 PUSH4 0x2E1A7D4D EQ PUSH2 0x233 JUMPI DUP1 PUSH4 0x2E5B2168 EQ PUSH2 0x252 JUMPI PUSH0 DUP1 REVERT JUMPDEST CALLDATASIZE PUSH2 0x1A0 JUMPI PUSH1 0x40 MLOAD CALLVALUE DUP2 MSTORE CALLER SWAP1 PUSH32 0x543BA50A5EEC5E6178218E364B1D0F396157B3C8FA278522C2CB7FD99407D474 SWAP1 PUSH1 0x20 ADD PUSH1 0x40 MLOAD DUP1 SWAP2 SUB SWAP1 LOG2 STOP JUMPDEST PUSH0 DUP1 REVERT JUMPDEST CALLVALUE DUP1 ISZERO PUSH2 0x1AF JUMPI PUSH0 DUP1 REVERT JUMPDEST POP PUSH2 0x1B9 PUSH1 0x3 SLOAD DUP2 JUMP JUMPDEST PUSH1 0x40 MLOAD SWAP1 DUP2 MSTORE PUSH1 0x20 ADD JUMPDEST PUSH1 0x40 MLOAD DUP1 SWAP2 SUB SWAP1 RETURN JUMPDEST CALLVALUE DUP1 ISZERO PUSH2 0x1D7 JUMPI PUSH0 DUP1 REVERT JUMPDEST POP PUSH2 0x1EB PUSH2 0x1E6 CALLDATASIZE PUSH1 0x4 PUSH2 0x135C JUMP JUMPDEST PUSH2 0x4EB JUMP JUMPDEST STOP JUMPDEST CALLVALUE DUP1 ISZERO PUSH2 0x1F8 JUMPI PUSH0 DUP1 REVERT JUMPDEST POP PUSH2 0x1B9 PUSH1 0x8 SLOAD DUP2 JUMP JUMPDEST CALLVALUE DUP1 ISZERO PUSH2 0x20D JUMPI PUSH0 DUP1 REVERT JUMPDEST POP PUSH1 0x5 SLOAD PUSH2 0x21E SWAP1 PUSH4 0xFFFFFFFF AND DUP2 JUMP JUMPDEST PUSH1 0x40 MLOAD PUSH4 0xFFFFFFFF SWAP1 SWAP2 AND DUP2 MSTORE PUSH1 0x20 ADD PUSH2 0x1C3 JUMP JUMPDEST CALLVALUE DUP1 ISZERO PUSH2 0x23E JUMPI PUSH0 DUP1 REVERT JUMPDEST POP PUSH2 0x1EB PUSH2 0x24D CALLDATASIZE PUSH1 0x4 PUSH2 0x13D4 JUMP JUMPDEST PUSH2 0x540 JUMP JUMPDEST CALLVALUE DUP1 ISZERO PUSH2 0x25D JUMPI PUSH0 DUP1 REVERT JUMPDEST POP PUSH2 0x1B9 PUSH1 0x7 SLOAD DUP2 JUMP JUMPDEST CALLVALUE DUP1 ISZERO PUSH2 0x272 JUMPI PUSH0 DUP1 REVERT JUMPDEST POP PUSH2 0x1B9 PUSH2 0x281 CALLDATASIZE PUSH1 0x4 PUSH2 0x13EB JUMP JUMPDEST PUSH1 0x1 PUSH1 0x1 PUSH1 0xA0 SHL SUB AND PUSH0 SWAP1 DUP2 MSTORE PUSH1 0xA PUSH1 0x20 MSTORE PUSH1 0x40 SWAP1 KECCAK256 SLOAD SWAP1 JUMP JUMPDEST PUSH2 0x1B9 PUSH2 0x2A9 CALLDATASIZE PUSH1 0x4 PUSH2 0x1418 JUMP JUMPDEST PUSH2 0x666 JUMP JUMPDEST CALLVALUE DUP1 ISZERO PUSH2 0x2B9 JUMPI PUSH0 DUP1 REVERT JUMPDEST POP PUSH2 0x2FD PUSH2 0x2C8 CALLDATASIZE PUSH1 0x4 PUSH2 0x13D4 JUMP JUMPDEST PUSH1 0x9 PUSH1 0x20 MSTORE PUSH0 SWAP1 DUP2 MSTORE PUSH1 0x40 SWAP1 KECCAK256 DUP1 SLOAD PUSH1 0x1 DUP3 ADD SLOAD PUSH1 0x2 SWAP1 SWAP3 ADD SLOAD PUSH1 0x1 PUSH1 0x1 PUSH1 0xA0 SHL SUB DUP3 AND SWAP3 PUSH1 0x1 PUSH1 0xA0 SHL SWAP1 SWAP3 DIV PUSH1 0xFF AND SWAP2 SWAP1 DUP5 JUMP JUMPDEST PUSH1 0x40 MLOAD PUSH2 0x1C3 SWAP5 SWAP4 SWAP3 SWAP2 SWAP1 PUSH2 0x1459 JUMP JUMPDEST CALLVALUE DUP1 ISZERO PUSH2 0x318 JUMPI PUSH0 DUP1 REVERT JUMPDEST POP PUSH2 0x1B9 PUSH1 0x4 SLOAD DUP2 JUMP JUMPDEST CALLVALUE DUP1 ISZERO PUSH2 0x32D JUMPI PUSH0 DUP1 REVERT JUMPDEST POP SELFBALANCE PUSH2 0x1B9 JUMP JUMPDEST CALLVALUE DUP1 ISZERO PUSH2 0x33F JUMPI PUSH0 DUP1 REVERT JUMPDEST POP PUSH2 0x348 PUSH1 0x3 DUP2 JUMP JUMPDEST PUSH1 0x40 MLOAD PUSH2 0xFFFF SWAP1 SWAP2 AND DUP2 MSTORE PUSH1 0x20 ADD PUSH2 0x1C3 JUMP JUMPDEST CALLVALUE DUP1 ISZERO PUSH2 0x366 JUMPI PUSH0 DUP1 REVERT JUMPDEST POP PUSH2 0x1EB PUSH2 0x375 CALLDATASIZE PUSH1 0x4 PUSH2 0x14A0 JUMP JUMPDEST PUSH2 0xA84 JUMP JUMPDEST CALLVALUE DUP1 ISZERO PUSH2 0x385 JUMPI PUSH0 DUP1 REVERT JUMPDEST POP PUSH2 0x1EB PUSH2 0xAE6 JUMP JUMPDEST CALLVALUE DUP1 ISZERO PUSH2 0x399 JUMPI PUSH0 DUP1 REVERT JUMPDEST POP PUSH1 0x5 SLOAD PUSH2 0x3B5 SWAP1 PUSH5 0x100000000 SWAP1 DIV PUSH1 0x1 PUSH1 0x1 PUSH1 0xA0 SHL SUB AND DUP2 JUMP JUMPDEST PUSH1 0x40 MLOAD PUSH1 0x1 PUSH1 0x1 PUSH1 0xA0 SHL SUB SWAP1 SWAP2 AND DUP2 MSTORE PUSH1 0x20 ADD PUSH2 0x1C3 JUMP JUMPDEST CALLVALUE DUP1 ISZERO PUSH2 0x3D8 JUMPI PUSH0 DUP1 REVERT JUMPDEST POP PUSH0 SLOAD PUSH1 0x1 PUSH1 0x1 PUSH1 0xA0 SHL SUB AND PUSH2 0x3B5 JUMP JUMPDEST CALLVALUE DUP1 ISZERO PUSH2 0x3F4 JUMPI PUSH0 DUP1 REVERT JUMPDEST POP PUSH2 0x1EB PUSH2 0x403 CALLDATASIZE PUSH1 0x4 PUSH2 0x13EB JUMP JUMPDEST PUSH2 0xB8F JUMP JUMPDEST CALLVALUE DUP1 ISZERO PUSH2 0x413 JUMPI PUSH0 DUP1 REVERT JUMPDEST POP PUSH2 0x1B9 PUSH1 0x6 SLOAD DUP2 JUMP JUMPDEST CALLVALUE DUP1 ISZERO PUSH2 0x428 JUMPI PUSH0 DUP1 REVERT JUMPDEST POP PUSH2 0x1EB PUSH2 0x437 CALLDATASIZE PUSH1 0x4 PUSH2 0x13D4 JUMP JUMPDEST PUSH2 0xC80 JUMP JUMPDEST CALLVALUE DUP1 ISZERO PUSH2 0x447 JUMPI PUSH0 DUP1 REVERT JUMPDEST POP PUSH1 0x2 SLOAD PUSH2 0x3B5 SWAP1 PUSH1 0x1 PUSH1 0x1 PUSH1 0xA0 SHL SUB AND DUP2 JUMP JUMPDEST CALLVALUE DUP1 ISZERO PUSH2 0x466 JUMPI PUSH0 DUP1 REVERT JUMPDEST POP PUSH2 0x1B9 PUSH2 0x475 CALLDATASIZE PUSH1 0x4 PUSH2 0x13EB JUMP JUMPDEST PUSH1 0xA PUSH1 0x20 MSTORE PUSH0 SWAP1 DUP2 MSTORE PUSH1 0x40 SWAP1 KECCAK256 SLOAD DUP2 JUMP JUMPDEST PUSH2 0x1EB PUSH2 0xC8D JUMP JUMPDEST CALLVALUE DUP1 ISZERO PUSH2 0x499 JUMPI PUSH0 DUP1 REVERT JUMPDEST POP PUSH2 0x1EB PUSH2 0x4A8 CALLDATASIZE PUSH1 0x4 PUSH2 0x13EB JUMP JUMPDEST PUSH2 0xCCC JUMP JUMPDEST CALLVALUE DUP1 ISZERO PUSH2 0x4B8 JUMPI PUSH0 DUP1 REVERT JUMPDEST POP PUSH2 0x1EB PUSH2 0x4C7 CALLDATASIZE PUSH1 0x4 PUSH2 0x14C0 JUMP JUMPDEST PUSH2 0xD30 JUMP JUMPDEST CALLVALUE DUP1 ISZERO PUSH2 0x4D7 JUMPI PUSH0 DUP1 REVERT JUMPDEST POP PUSH2 0x1EB PUSH2 0x4E6 CALLDATASIZE PUSH1 0x4 PUSH2 0x13EB JUMP JUMPDEST PUSH2 0xD59 JUMP JUMPDEST PUSH1 0x2 SLOAD PUSH1 0x1 PUSH1 0x1 PUSH1 0xA0 SHL SUB AND CALLER EQ PUSH2 0x530 JUMPI PUSH1 0x2 SLOAD PUSH1 0x40 MLOAD PUSH4 0x73E64FD PUSH1 0xE2 SHL DUP2 MSTORE CALLER PUSH1 0x4 DUP3 ADD MSTORE PUSH1 0x1 PUSH1 0x1 PUSH1 0xA0 SHL SUB SWAP1 SWAP2 AND PUSH1 0x24 DUP3 ADD MSTORE PUSH1 0x44 ADD JUMPDEST PUSH1 0x40 MLOAD DUP1 SWAP2 SUB SWAP1 REVERT JUMPDEST PUSH2 0x53B DUP4 DUP4 DUP4 PUSH2 0xD6D JUMP JUMPDEST POP POP POP JUMP JUMPDEST PUSH2 0x548 PUSH2 0x117F JUMP JUMPDEST DUP1 SELFBALANCE LT ISZERO PUSH2 0x598 JUMPI PUSH1 0x40 MLOAD PUSH3 0x461BCD PUSH1 0xE5 SHL DUP2 MSTORE PUSH1 0x20 PUSH1 0x4 DUP3 ADD MSTORE PUSH1 0x1D PUSH1 0x24 DUP3 ADD MSTORE PUSH32 0x47616D654875623A20696E73756666696369656E742062616C616E6365000000 PUSH1 0x44 DUP3 ADD MSTORE PUSH1 0x64 ADD PUSH2 0x527 JUMP JUMPDEST PUSH1 0x40 MLOAD PUSH0 SWAP1 CALLER SWAP1 DUP4 SWAP1 DUP4 DUP2 DUP2 DUP2 DUP6 DUP8 GAS CALL SWAP3 POP POP POP RETURNDATASIZE DUP1 PUSH0 DUP2 EQ PUSH2 0x5D7 JUMPI PUSH1 0x40 MLOAD SWAP2 POP PUSH1 0x1F NOT PUSH1 0x3F RETURNDATASIZE ADD AND DUP3 ADD PUSH1 0x40 MSTORE RETURNDATASIZE DUP3 MSTORE RETURNDATASIZE PUSH0 PUSH1 0x20 DUP5 ADD RETURNDATACOPY PUSH2 0x5DC JUMP JUMPDEST PUSH1 0x60 SWAP2 POP JUMPDEST POP POP SWAP1 POP DUP1 PUSH2 0x62D JUMPI PUSH1 0x40 MLOAD PUSH3 0x461BCD PUSH1 0xE5 SHL DUP2 MSTORE PUSH1 0x20 PUSH1 0x4 DUP3 ADD MSTORE PUSH1 0x18 PUSH1 0x24 DUP3 ADD MSTORE PUSH32 0x47616D654875623A207769746864726177206661696C65640000000000000000 PUSH1 0x44 DUP3 ADD MSTORE PUSH1 0x64 ADD PUSH2 0x527 JUMP JUMPDEST PUSH1 0x40 MLOAD DUP3 DUP2 MSTORE CALLER SWAP1 PUSH32 0xEAFF4B37086828766AD3268786972C0CD24259D4C87A80F9D3963A3C3D999B0D SWAP1 PUSH1 0x20 ADD PUSH1 0x40 MLOAD DUP1 SWAP2 SUB SWAP1 LOG2 POP POP JUMP JUMPDEST PUSH0 PUSH2 0x66F PUSH2 0x11D3 JUMP JUMPDEST PUSH1 0x6 SLOAD CALLVALUE LT ISZERO PUSH2 0x6C1 JUMPI PUSH1 0x40 MLOAD PUSH3 0x461BCD PUSH1 0xE5 SHL DUP2 MSTORE PUSH1 0x20 PUSH1 0x4 DUP3 ADD MSTORE PUSH1 0x1A PUSH1 0x24 DUP3 ADD MSTORE PUSH32 0x47616D654875623A206265742062656C6F77206D696E696D756D000000000000 PUSH1 0x44 DUP3 ADD MSTORE PUSH1 0x64 ADD PUSH2 0x527 JUMP JUMPDEST PUSH1 0x7 SLOAD CALLVALUE GT ISZERO PUSH2 0x713 JUMPI PUSH1 0x40 MLOAD PUSH3 0x461BCD PUSH1 0xE5 SHL DUP2 MSTORE PUSH1 0x20 PUSH1 0x4 DUP3 ADD MSTORE PUSH1 0x1A PUSH1 0x24 DUP3 ADD MSTORE PUSH32 0x47616D654875623A206265742061626F7665206D6178696D756D000000000000 PUSH1 0x44 DUP3 ADD MSTORE PUSH1 0x64 ADD PUSH2 0x527 JUMP JUMPDEST CALLER PUSH0 SWAP1 DUP2 MSTORE PUSH1 0xA PUSH1 0x20 MSTORE PUSH1 0x40 SWAP1 KECCAK256 SLOAD ISZERO PUSH2 0x76F JUMPI PUSH1 0x40 MLOAD PUSH3 0x461BCD PUSH1 0xE5 SHL DUP2 MSTORE PUSH1 0x20 PUSH1 0x4 DUP3 ADD MSTORE PUSH1 0x1C PUSH1 0x24 DUP3 ADD MSTORE PUSH32 0x47616D654875623A2070656E64696E672067616D652065786973747300000000 PUSH1 0x44 DUP3 ADD MSTORE PUSH1 0x64 ADD PUSH2 0x527 JUMP JUMPDEST PUSH0 DUP4 PUSH1 0x2 DUP2 GT ISZERO PUSH2 0x782 JUMPI PUSH2 0x782 PUSH2 0x1445 JUMP JUMPDEST SUB PUSH2 0x7E5 JUMPI DUP2 ISZERO DUP1 PUSH2 0x794 JUMPI POP DUP2 PUSH1 0x1 EQ JUMPDEST PUSH2 0x7E0 JUMPI PUSH1 0x40 MLOAD PUSH3 0x461BCD PUSH1 0xE5 SHL DUP2 MSTORE PUSH1 0x20 PUSH1 0x4 DUP3 ADD MSTORE PUSH1 0x1E PUSH1 0x24 DUP3 ADD MSTORE PUSH32 0x47616D654875623A2063686F696365206D7573742062652030206F7220310000 PUSH1 0x44 DUP3 ADD MSTORE PUSH1 0x64 ADD PUSH2 0x527 JUMP JUMPDEST PUSH2 0x85C JUMP JUMPDEST PUSH1 0x1 DUP4 PUSH1 0x2 DUP2 GT ISZERO PUSH2 0x7F9 JUMPI PUSH2 0x7F9 PUSH2 0x1445 JUMP JUMPDEST SUB PUSH2 0x85C JUMPI PUSH1 0x1 DUP3 LT ISZERO DUP1 ISZERO PUSH2 0x810 JUMPI POP PUSH1 0x6 DUP3 GT ISZERO JUMPDEST PUSH2 0x85C JUMPI PUSH1 0x40 MLOAD PUSH3 0x461BCD PUSH1 0xE5 SHL DUP2 MSTORE PUSH1 0x20 PUSH1 0x4 DUP3 ADD MSTORE PUSH1 0x1B PUSH1 0x24 DUP3 ADD MSTORE PUSH32 0x47616D654875623A2063686F696365206D75737420626520312D360000000000 PUSH1 0x44 DUP3 ADD MSTORE PUSH1 0x64 ADD PUSH2 0x527 JUMP JUMPDEST PUSH1 0x40 DUP1 MLOAD PUSH1 0xC0 DUP2 ADD DUP3 MSTORE PUSH1 0x4 SLOAD DUP2 MSTORE PUSH1 0x3 DUP1 SLOAD PUSH1 0x20 DUP1 DUP5 ADD SWAP2 SWAP1 SWAP2 MSTORE DUP3 DUP5 ADD SWAP2 SWAP1 SWAP2 MSTORE PUSH1 0x5 SLOAD PUSH4 0xFFFFFFFF AND PUSH1 0x60 DUP4 ADD MSTORE PUSH1 0x1 PUSH1 0x80 DUP4 ADD MSTORE DUP3 MLOAD SWAP1 DUP2 ADD SWAP1 SWAP3 MSTORE PUSH0 DUP3 MSTORE PUSH1 0x1 PUSH1 0x1 PUSH1 0xA0 SHL SUB PUSH32 0x0 AND SWAP2 PUSH4 0x9B1C385E SWAP2 SWAP1 PUSH1 0xA0 DUP3 ADD SWAP1 PUSH2 0x8DF SWAP1 PUSH2 0x1201 JUMP JUMPDEST DUP2 MSTORE POP PUSH1 0x40 MLOAD DUP3 PUSH4 0xFFFFFFFF AND PUSH1 0xE0 SHL DUP2 MSTORE PUSH1 0x4 ADD PUSH2 0x8FE SWAP2 SWAP1 PUSH2 0x14F6 JUMP JUMPDEST PUSH1 0x20 PUSH1 0x40 MLOAD DUP1 DUP4 SUB DUP2 PUSH0 DUP8 GAS CALL ISZERO DUP1 ISZERO PUSH2 0x91A JUMPI RETURNDATASIZE PUSH0 DUP1 RETURNDATACOPY RETURNDATASIZE PUSH0 REVERT JUMPDEST POP POP POP POP PUSH1 0x40 MLOAD RETURNDATASIZE PUSH1 0x1F NOT PUSH1 0x1F DUP3 ADD AND DUP3 ADD DUP1 PUSH1 0x40 MSTORE POP DUP2 ADD SWAP1 PUSH2 0x93E SWAP2 SWAP1 PUSH2 0x158F JUMP JUMPDEST SWAP1 POP PUSH1 0x40 MLOAD DUP1 PUSH1 0x80 ADD PUSH1 0x40 MSTORE DUP1 CALLER PUSH1 0x1 PUSH1 0x1 PUSH1 0xA0 SHL SUB AND DUP2 MSTORE PUSH1 0x20 ADD DUP5 PUSH1 0x2 DUP2 GT ISZERO PUSH2 0x96C JUMPI PUSH2 0x96C PUSH2 0x1445 JUMP JUMPDEST DUP2 MSTORE CALLVALUE PUSH1 0x20 DUP1 DUP4 ADD SWAP2 SWAP1 SWAP2 MSTORE PUSH1 0x40 SWAP2 DUP3 ADD DUP6 SWAP1 MSTORE PUSH0 DUP5 DUP2 MSTORE PUSH1 0x9 DUP3 MSTORE SWAP2 SWAP1 SWAP2 KECCAK256 DUP3 MLOAD DUP2 SLOAD PUSH1 0x1 PUSH1 0x1 PUSH1 0xA0 SHL SUB SWAP1 SWAP2 AND PUSH1 0x1 PUSH1 0x1 PUSH1 0xA0 SHL SUB NOT DUP3 AND DUP2 OR DUP4 SSTORE SWAP3 DUP5 ADD MLOAD SWAP2 SWAP3 DUP4 SWAP2 PUSH1 0x1 PUSH1 0x1 PUSH1 0xA8 SHL SUB NOT AND OR PUSH1 0x1 PUSH1 0xA0 SHL DUP4 PUSH1 0x2 DUP2 GT ISZERO PUSH2 0x9D4 JUMPI PUSH2 0x9D4 PUSH2 0x1445 JUMP JUMPDEST MUL OR SWAP1 SSTORE POP PUSH1 0x40 DUP3 DUP2 ADD MLOAD PUSH1 0x1 DUP4 ADD SSTORE PUSH1 0x60 SWAP1 SWAP3 ADD MLOAD PUSH1 0x2 SWAP2 DUP3 ADD SSTORE CALLER PUSH0 SWAP1 DUP2 MSTORE PUSH1 0xA PUSH1 0x20 MSTORE SWAP2 SWAP1 SWAP2 KECCAK256 DUP3 SWAP1 SSTORE DUP4 SWAP1 DUP2 GT ISZERO PUSH2 0xA12 JUMPI PUSH2 0xA12 PUSH2 0x1445 JUMP JUMPDEST PUSH1 0x40 DUP1 MLOAD CALLVALUE DUP2 MSTORE PUSH1 0x20 DUP2 ADD DUP6 SWAP1 MSTORE SWAP1 DUP2 ADD DUP4 SWAP1 MSTORE CALLER SWAP1 PUSH32 0x8AB9588F98C47C27EFE9DA8D6BB8DC4620CC165DA5454E59307B2EEC44BDEC2D SWAP1 PUSH1 0x60 ADD PUSH1 0x40 MLOAD DUP1 SWAP2 SUB SWAP1 LOG3 PUSH2 0xA7E PUSH1 0x1 PUSH32 0x9B779B17422D0DF92223018B32B4D1FA46E071723D6817E2486D003BECC55F00 SSTORE JUMP JUMPDEST SWAP3 SWAP2 POP POP JUMP JUMPDEST PUSH2 0xA8C PUSH2 0x117F JUMP JUMPDEST DUP1 DUP3 LT PUSH2 0xADB JUMPI PUSH1 0x40 MLOAD PUSH3 0x461BCD PUSH1 0xE5 SHL DUP2 MSTORE PUSH1 0x20 PUSH1 0x4 DUP3 ADD MSTORE PUSH1 0x17 PUSH1 0x24 DUP3 ADD MSTORE PUSH32 0x47616D654875623A20696E76616C6964206C696D697473000000000000000000 PUSH1 0x44 DUP3 ADD MSTORE PUSH1 0x64 ADD PUSH2 0x527 JUMP JUMPDEST PUSH1 0x6 SWAP2 SWAP1 SWAP2 SSTORE PUSH1 0x7 SSTORE JUMP JUMPDEST PUSH1 0x1 SLOAD PUSH1 0x1 PUSH1 0x1 PUSH1 0xA0 SHL SUB AND CALLER EQ PUSH2 0xB39 JUMPI PUSH1 0x40 MLOAD PUSH3 0x461BCD PUSH1 0xE5 SHL DUP2 MSTORE PUSH1 0x20 PUSH1 0x4 DUP3 ADD MSTORE PUSH1 0x16 PUSH1 0x24 DUP3 ADD MSTORE PUSH22 0x26BAB9BA10313290383937B837B9B2B21037BBB732B9 PUSH1 0x51 SHL PUSH1 0x44 DUP3 ADD MSTORE PUSH1 0x64 ADD PUSH2 0x527 JUMP JUMPDEST PUSH0 DUP1 SLOAD CALLER PUSH1 0x1 PUSH1 0x1 PUSH1 0xA0 SHL SUB NOT DUP1 DUP4 AND DUP3 OR DUP5 SSTORE PUSH1 0x1 DUP1 SLOAD SWAP1 SWAP2 AND SWAP1 SSTORE PUSH1 0x40 MLOAD PUSH1 0x1 PUSH1 0x1 PUSH1 0xA0 SHL SUB SWAP1 SWAP3 AND SWAP3 SWAP1 SWAP2 DUP4 SWAP2 PUSH32 0x8BE0079C531659141344CD1FD0A4F28419497F9722A3DAAFE3B4186F6B6457E0 SWAP2 LOG3 POP JUMP JUMPDEST PUSH0 SLOAD PUSH1 0x1 PUSH1 0x1 PUSH1 0xA0 SHL SUB AND CALLER EQ DUP1 ISZERO SWAP1 PUSH2 0xBB4 JUMPI POP PUSH1 0x2 SLOAD PUSH1 0x1 PUSH1 0x1 PUSH1 0xA0 SHL SUB AND CALLER EQ ISZERO JUMPDEST ISZERO PUSH2 0xC04 JUMPI CALLER PUSH2 0xBCB PUSH0 SLOAD PUSH1 0x1 PUSH1 0x1 PUSH1 0xA0 SHL SUB AND SWAP1 JUMP JUMPDEST PUSH1 0x2 SLOAD PUSH1 0x40 MLOAD PUSH4 0x61DB9C1 PUSH1 0xE0 SHL DUP2 MSTORE PUSH1 0x1 PUSH1 0x1 PUSH1 0xA0 SHL SUB SWAP4 DUP5 AND PUSH1 0x4 DUP3 ADD MSTORE SWAP2 DUP4 AND PUSH1 0x24 DUP4 ADD MSTORE SWAP2 SWAP1 SWAP2 AND PUSH1 0x44 DUP3 ADD MSTORE PUSH1 0x64 ADD PUSH2 0x527 JUMP JUMPDEST PUSH1 0x1 PUSH1 0x1 PUSH1 0xA0 SHL SUB DUP2 AND PUSH2 0xC2B JUMPI PUSH1 0x40 MLOAD PUSH4 0xD92E233D PUSH1 0xE0 SHL DUP2 MSTORE PUSH1 0x4 ADD PUSH1 0x40 MLOAD DUP1 SWAP2 SUB SWAP1 REVERT JUMPDEST PUSH1 0x2 DUP1 SLOAD PUSH1 0x1 PUSH1 0x1 PUSH1 0xA0 SHL SUB NOT AND PUSH1 0x1 PUSH1 0x1 PUSH1 0xA0 SHL SUB DUP4 AND SWAP1 DUP2 OR SWAP1 SWAP2 SSTORE PUSH1 0x40 MLOAD SWAP1 DUP2 MSTORE PUSH32 0xD1A6A14209A385A964D036E404CB5CFB71F4000CDB03C9366292430787261BE6 SWAP1 PUSH1 0x20 ADD JUMPDEST PUSH1 0x40 MLOAD DUP1 SWAP2 SUB SWAP1 LOG1 POP JUMP JUMPDEST PUSH2 0xC88 PUSH2 0x117F JUMP JUMPDEST PUSH1 0x8 SSTORE JUMP JUMPDEST PUSH2 0xC95 PUSH2 0x117F JUMP JUMPDEST PUSH1 0x40 MLOAD CALLVALUE DUP2 MSTORE CALLER SWAP1 PUSH32 0x543BA50A5EEC5E6178218E364B1D0F396157B3C8FA278522C2CB7FD99407D474 SWAP1 PUSH1 0x20 ADD PUSH1 0x40 MLOAD DUP1 SWAP2 SUB SWAP1 LOG2 JUMP JUMPDEST PUSH2 0xCD4 PUSH2 0x117F JUMP JUMPDEST PUSH1 0x5 DUP1 SLOAD PUSH5 0x100000000 PUSH1 0x1 PUSH1 0xC0 SHL SUB NOT AND PUSH5 0x100000000 PUSH1 0x1 PUSH1 0x1 PUSH1 0xA0 SHL SUB DUP5 AND SWAP1 DUP2 MUL SWAP2 SWAP1 SWAP2 OR SWAP1 SWAP2 SSTORE PUSH1 0x40 MLOAD SWAP1 DUP2 MSTORE PUSH32 0xAD7172730C4D7F71B64063B3B542DAEC2B240B80E131567D78DA5EB5346D5A7E SWAP1 PUSH1 0x20 ADD PUSH2 0xC75 JUMP JUMPDEST PUSH2 0xD38 PUSH2 0x117F JUMP JUMPDEST PUSH1 0x4 SWAP2 SWAP1 SWAP2 SSTORE PUSH1 0x5 DUP1 SLOAD PUSH4 0xFFFFFFFF NOT AND PUSH4 0xFFFFFFFF SWAP1 SWAP3 AND SWAP2 SWAP1 SWAP2 OR SWAP1 SSTORE JUMP JUMPDEST PUSH2 0xD61 PUSH2 0x117F JUMP JUMPDEST PUSH2 0xD6A DUP2 PUSH2 0x1272 JUMP JUMPDEST POP JUMP JUMPDEST PUSH0 DUP4 DUP2 MSTORE PUSH1 0x9 PUSH1 0x20 SWAP1 DUP2 MSTORE PUSH1 0x40 DUP1 DUP4 KECCAK256 DUP2 MLOAD PUSH1 0x80 DUP2 ADD SWAP1 SWAP3 MSTORE DUP1 SLOAD PUSH1 0x1 PUSH1 0x1 PUSH1 0xA0 SHL SUB DUP2 AND DUP4 MSTORE SWAP2 SWAP3 SWAP1 SWAP2 SWAP1 DUP4 ADD SWAP1 PUSH1 0x1 PUSH1 0xA0 SHL SWAP1 DIV PUSH1 0xFF AND PUSH1 0x2 DUP2 GT ISZERO PUSH2 0xDB7 JUMPI PUSH2 0xDB7 PUSH2 0x1445 JUMP JUMPDEST PUSH1 0x2 DUP2 GT ISZERO PUSH2 0xDC8 JUMPI PUSH2 0xDC8 PUSH2 0x1445 JUMP JUMPDEST DUP2 MSTORE PUSH1 0x20 ADD PUSH1 0x1 DUP3 ADD SLOAD DUP2 MSTORE PUSH1 0x20 ADD PUSH1 0x2 DUP3 ADD SLOAD DUP2 MSTORE POP POP SWAP1 POP PUSH0 DUP2 PUSH1 0x40 ADD MLOAD GT PUSH2 0xE35 JUMPI PUSH1 0x40 MLOAD PUSH3 0x461BCD PUSH1 0xE5 SHL DUP2 MSTORE PUSH1 0x20 PUSH1 0x4 DUP3 ADD MSTORE PUSH1 0x18 PUSH1 0x24 DUP3 ADD MSTORE PUSH32 0x47616D654875623A20756E6B6E6F776E20726571756573740000000000000000 PUSH1 0x44 DUP3 ADD MSTORE PUSH1 0x64 ADD PUSH2 0x527 JUMP JUMPDEST PUSH0 DUP5 DUP2 MSTORE PUSH1 0x9 PUSH1 0x20 SWAP1 DUP2 MSTORE PUSH1 0x40 DUP1 DUP4 KECCAK256 DUP1 SLOAD PUSH1 0x1 PUSH1 0x1 PUSH1 0xA8 SHL SUB NOT AND DUP2 SSTORE PUSH1 0x1 DUP2 ADD DUP5 SWAP1 SSTORE PUSH1 0x2 ADD DUP4 SWAP1 SSTORE DUP4 MLOAD PUSH1 0x1 PUSH1 0x1 PUSH1 0xA0 SHL SUB AND DUP4 MSTORE PUSH1 0xA SWAP1 SWAP2 MSTORE DUP2 KECCAK256 DUP2 SWAP1 SSTORE DUP4 DUP4 DUP3 DUP2 PUSH2 0xE87 JUMPI PUSH2 0xE87 PUSH2 0x15A6 JUMP JUMPDEST PUSH1 0x20 MUL SWAP2 SWAP1 SWAP2 ADD CALLDATALOAD SWAP2 POP PUSH0 SWAP1 POP DUP1 DUP1 DUP1 DUP6 PUSH1 0x20 ADD MLOAD PUSH1 0x2 DUP2 GT ISZERO PUSH2 0xEAD JUMPI PUSH2 0xEAD PUSH2 0x1445 JUMP JUMPDEST SUB PUSH2 0xEF3 JUMPI PUSH2 0xEBD PUSH1 0x2 DUP6 PUSH2 0x15CE JUMP JUMPDEST SWAP3 POP DUP3 DUP6 PUSH1 0x60 ADD MLOAD EQ SWAP1 POP DUP1 ISZERO PUSH2 0xEEE JUMPI PUSH1 0x64 DUP6 PUSH1 0x40 ADD MLOAD PUSH1 0xBE PUSH2 0xEE1 SWAP2 SWAP1 PUSH2 0x15F5 JUMP JUMPDEST PUSH2 0xEEB SWAP2 SWAP1 PUSH2 0x160C JUMP JUMPDEST SWAP2 POP JUMPDEST PUSH2 0xFB5 JUMP JUMPDEST PUSH1 0x1 DUP6 PUSH1 0x20 ADD MLOAD PUSH1 0x2 DUP2 GT ISZERO PUSH2 0xF0B JUMPI PUSH2 0xF0B PUSH2 0x1445 JUMP JUMPDEST SUB PUSH2 0xF4B JUMPI PUSH2 0xF1B PUSH1 0x6 DUP6 PUSH2 0x15CE JUMP JUMPDEST PUSH2 0xF26 SWAP1 PUSH1 0x1 PUSH2 0x161F JUMP JUMPDEST SWAP3 POP DUP3 DUP6 PUSH1 0x60 ADD MLOAD EQ SWAP1 POP DUP1 ISZERO PUSH2 0xEEE JUMPI PUSH1 0x64 DUP6 PUSH1 0x40 ADD MLOAD PUSH2 0x23A PUSH2 0xEE1 SWAP2 SWAP1 PUSH2 0x15F5 JUMP JUMPDEST PUSH2 0xF56 PUSH1 0x8 DUP6 PUSH2 0x15CE JUMP JUMPDEST SWAP3 POP DUP3 PUSH0 SUB PUSH2 0xF88 JUMPI PUSH1 0x64 DUP6 PUSH1 0x40 ADD MLOAD PUSH2 0x1DB PUSH2 0xF73 SWAP2 SWAP1 PUSH2 0x15F5 JUMP JUMPDEST PUSH2 0xF7D SWAP2 SWAP1 PUSH2 0x160C JUMP JUMPDEST SWAP2 POP PUSH1 0x1 SWAP1 POP PUSH2 0xFB5 JUMP JUMPDEST PUSH1 0x3 DUP4 LT ISZERO PUSH2 0xFB5 JUMPI PUSH1 0x64 DUP6 PUSH1 0x40 ADD MLOAD PUSH1 0xBE PUSH2 0xFA4 SWAP2 SWAP1 PUSH2 0x15F5 JUMP JUMPDEST PUSH2 0xFAE SWAP2 SWAP1 PUSH2 0x160C JUMP JUMPDEST SWAP2 POP PUSH1 0x1 SWAP1 POP JUMPDEST PUSH0 DUP2 DUP1 ISZERO PUSH2 0xFC2 JUMPI POP PUSH0 DUP4 GT JUMPDEST DUP1 ISZERO PUSH2 0xFCE JUMPI POP DUP3 SELFBALANCE LT ISZERO JUMPDEST ISZERO PUSH2 0x10EE JUMPI DUP6 MLOAD PUSH1 0x40 MLOAD PUSH0 SWAP2 PUSH1 0x1 PUSH1 0x1 PUSH1 0xA0 SHL SUB AND SWAP1 DUP6 SWAP1 DUP4 DUP2 DUP2 DUP2 DUP6 DUP8 GAS CALL SWAP3 POP POP POP RETURNDATASIZE DUP1 PUSH0 DUP2 EQ PUSH2 0x101C JUMPI PUSH1 0x40 MLOAD SWAP2 POP PUSH1 0x1F NOT PUSH1 0x3F RETURNDATASIZE ADD AND DUP3 ADD PUSH1 0x40 MSTORE RETURNDATASIZE DUP3 MSTORE RETURNDATASIZE PUSH0 PUSH1 0x20 DUP5 ADD RETURNDATACOPY PUSH2 0x1021 JUMP JUMPDEST PUSH1 0x60 SWAP2 POP JUMPDEST POP POP SWAP1 POP DUP1 ISZERO PUSH2 0x10E1 JUMPI PUSH1 0x5 SLOAD PUSH5 0x100000000 SWAP1 DIV PUSH1 0x1 PUSH1 0x1 PUSH1 0xA0 SHL SUB AND ISZERO PUSH2 0x10DC JUMPI PUSH8 0xDE0B6B3A7640000 PUSH1 0x8 SLOAD DUP9 PUSH1 0x40 ADD MLOAD PUSH2 0x105F SWAP2 SWAP1 PUSH2 0x15F5 JUMP JUMPDEST PUSH2 0x1069 SWAP2 SWAP1 PUSH2 0x160C JUMP JUMPDEST SWAP2 POP DUP2 ISZERO PUSH2 0x10DC JUMPI PUSH1 0x5 SLOAD DUP8 MLOAD PUSH1 0x40 MLOAD PUSH4 0x40C10F19 PUSH1 0xE0 SHL DUP2 MSTORE PUSH1 0x1 PUSH1 0x1 PUSH1 0xA0 SHL SUB SWAP2 DUP3 AND PUSH1 0x4 DUP3 ADD MSTORE PUSH1 0x24 DUP2 ADD DUP6 SWAP1 MSTORE PUSH5 0x100000000 SWAP1 SWAP3 DIV AND SWAP1 PUSH4 0x40C10F19 SWAP1 PUSH1 0x44 ADD PUSH0 PUSH1 0x40 MLOAD DUP1 DUP4 SUB DUP2 PUSH0 DUP8 DUP1 EXTCODESIZE ISZERO DUP1 ISZERO PUSH2 0x10C5 JUMPI PUSH0 DUP1 REVERT JUMPDEST POP GAS CALL ISZERO DUP1 ISZERO PUSH2 0x10D7 JUMPI RETURNDATASIZE PUSH0 DUP1 RETURNDATACOPY RETURNDATASIZE PUSH0 REVERT JUMPDEST POP POP POP POP JUMPDEST PUSH2 0x10E8 JUMP JUMPDEST PUSH0 SWAP3 POP PUSH0 SWAP4 POP JUMPDEST POP PUSH2 0x10FB JUMP JUMPDEST DUP2 ISZERO PUSH2 0x10FB JUMPI PUSH0 SWAP2 POP PUSH0 SWAP3 POP JUMPDEST DUP6 PUSH1 0x20 ADD MLOAD PUSH1 0x2 DUP2 GT ISZERO PUSH2 0x1111 JUMPI PUSH2 0x1111 PUSH2 0x1445 JUMP JUMPDEST DUP7 MLOAD PUSH1 0x60 DUP1 DUP10 ADD MLOAD PUSH1 0x40 DUP1 MLOAD SWAP2 DUP3 MSTORE PUSH1 0x20 DUP3 ADD DUP10 SWAP1 MSTORE DUP7 ISZERO ISZERO SWAP1 DUP3 ADD MSTORE SWAP1 DUP2 ADD DUP7 SWAP1 MSTORE PUSH1 0x80 DUP2 ADD DUP5 SWAP1 MSTORE PUSH1 0x1 PUSH1 0x1 PUSH1 0xA0 SHL SUB SWAP1 SWAP2 AND SWAP1 PUSH32 0x1409BB1B48983F6425A853E99EAC03B246087927FA0DAF61D17C38BB438E3B2 SWAP1 PUSH1 0xA0 ADD PUSH1 0x40 MLOAD DUP1 SWAP2 SUB SWAP1 LOG3 POP POP POP POP POP POP POP POP POP JUMP JUMPDEST PUSH0 SLOAD PUSH1 0x1 PUSH1 0x1 PUSH1 0xA0 SHL SUB AND CALLER EQ PUSH2 0x11D1 JUMPI PUSH1 0x40 MLOAD PUSH3 0x461BCD PUSH1 0xE5 SHL DUP2 MSTORE PUSH1 0x20 PUSH1 0x4 DUP3 ADD MSTORE PUSH1 0x16 PUSH1 0x24 DUP3 ADD MSTORE PUSH22 0x27B7363C9031B0B63630B1363290313C9037BBB732B9 PUSH1 0x51 SHL PUSH1 0x44 DUP3 ADD MSTORE PUSH1 0x64 ADD PUSH2 0x527 JUMP JUMPDEST JUMP JUMPDEST PUSH2 0x11DB PUSH2 0x131A JUMP JUMPDEST PUSH1 0x2 PUSH32 0x9B779B17422D0DF92223018B32B4D1FA46E071723D6817E2486D003BECC55F00 SSTORE JUMP JUMPDEST PUSH1 0x60 PUSH32 0x92FD13387C7FE7BEFBC38D303D6468778FB9731BC4583F17D92989C6FCFDEAAA DUP3 PUSH1 0x40 MLOAD PUSH1 0x24 ADD PUSH2 0x123A SWAP2 MLOAD ISZERO ISZERO DUP2 MSTORE PUSH1 0x20 ADD SWAP1 JUMP JUMPDEST PUSH1 0x40 DUP1 MLOAD PUSH1 0x1F NOT DUP2 DUP5 SUB ADD DUP2 MSTORE SWAP2 SWAP1 MSTORE PUSH1 0x20 DUP2 ADD DUP1 MLOAD PUSH1 0x1 PUSH1 0x1 PUSH1 0xE0 SHL SUB AND PUSH1 0x1 PUSH1 0x1 PUSH1 0xE0 SHL SUB NOT SWAP1 SWAP4 AND SWAP3 SWAP1 SWAP3 OR SWAP1 SWAP2 MSTORE SWAP3 SWAP2 POP POP JUMP JUMPDEST CALLER PUSH1 0x1 PUSH1 0x1 PUSH1 0xA0 SHL SUB DUP3 AND SUB PUSH2 0x12CA JUMPI PUSH1 0x40 MLOAD PUSH3 0x461BCD PUSH1 0xE5 SHL DUP2 MSTORE PUSH1 0x20 PUSH1 0x4 DUP3 ADD MSTORE PUSH1 0x17 PUSH1 0x24 DUP3 ADD MSTORE PUSH32 0x43616E6E6F74207472616E7366657220746F2073656C66000000000000000000 PUSH1 0x44 DUP3 ADD MSTORE PUSH1 0x64 ADD PUSH2 0x527 JUMP JUMPDEST PUSH1 0x1 DUP1 SLOAD PUSH1 0x1 PUSH1 0x1 PUSH1 0xA0 SHL SUB NOT AND PUSH1 0x1 PUSH1 0x1 PUSH1 0xA0 SHL SUB DUP4 DUP2 AND SWAP2 DUP3 OR SWAP1 SWAP3 SSTORE PUSH0 DUP1 SLOAD PUSH1 0x40 MLOAD SWAP3 SWAP4 AND SWAP2 PUSH32 0xED8889F560326EB138920D842192F0EB3DD22B4F139C87A2C57538E05BAE1278 SWAP2 SWAP1 LOG3 POP JUMP JUMPDEST PUSH32 0x9B779B17422D0DF92223018B32B4D1FA46E071723D6817E2486D003BECC55F00 SLOAD PUSH1 0x2 SUB PUSH2 0x11D1 JUMPI PUSH1 0x40 MLOAD PUSH4 0x3EE5AEB5 PUSH1 0xE0 SHL DUP2 MSTORE PUSH1 0x4 ADD PUSH1 0x40 MLOAD DUP1 SWAP2 SUB SWAP1 REVERT JUMPDEST PUSH0 DUP1 PUSH0 PUSH1 0x40 DUP5 DUP7 SUB SLT ISZERO PUSH2 0x136E JUMPI PUSH0 DUP1 REVERT JUMPDEST DUP4 CALLDATALOAD SWAP3 POP PUSH1 0x20 DUP5 ADD CALLDATALOAD PUSH8 0xFFFFFFFFFFFFFFFF DUP1 DUP3 GT ISZERO PUSH2 0x138C JUMPI PUSH0 DUP1 REVERT JUMPDEST DUP2 DUP7 ADD SWAP2 POP DUP7 PUSH1 0x1F DUP4 ADD SLT PUSH2 0x139F JUMPI PUSH0 DUP1 REVERT JUMPDEST DUP2 CALLDATALOAD DUP2 DUP2 GT ISZERO PUSH2 0x13AD JUMPI PUSH0 DUP1 REVERT JUMPDEST DUP8 PUSH1 0x20 DUP3 PUSH1 0x5 SHL DUP6 ADD ADD GT ISZERO PUSH2 0x13C1 JUMPI PUSH0 DUP1 REVERT JUMPDEST PUSH1 0x20 DUP4 ADD SWAP5 POP DUP1 SWAP4 POP POP POP POP SWAP3 POP SWAP3 POP SWAP3 JUMP JUMPDEST PUSH0 PUSH1 0x20 DUP3 DUP5 SUB SLT ISZERO PUSH2 0x13E4 JUMPI PUSH0 DUP1 REVERT JUMPDEST POP CALLDATALOAD SWAP2 SWAP1 POP JUMP JUMPDEST PUSH0 PUSH1 0x20 DUP3 DUP5 SUB SLT ISZERO PUSH2 0x13FB JUMPI PUSH0 DUP1 REVERT JUMPDEST DUP2 CALLDATALOAD PUSH1 0x1 PUSH1 0x1 PUSH1 0xA0 SHL SUB DUP2 AND DUP2 EQ PUSH2 0x1411 JUMPI PUSH0 DUP1 REVERT JUMPDEST SWAP4 SWAP3 POP POP POP JUMP JUMPDEST PUSH0 DUP1 PUSH1 0x40 DUP4 DUP6 SUB SLT ISZERO PUSH2 0x1429 JUMPI PUSH0 DUP1 REVERT JUMPDEST DUP3 CALLDATALOAD PUSH1 0x3 DUP2 LT PUSH2 0x1437 JUMPI PUSH0 DUP1 REVERT JUMPDEST SWAP5 PUSH1 0x20 SWAP4 SWAP1 SWAP4 ADD CALLDATALOAD SWAP4 POP POP POP JUMP JUMPDEST PUSH4 0x4E487B71 PUSH1 0xE0 SHL PUSH0 MSTORE PUSH1 0x21 PUSH1 0x4 MSTORE PUSH1 0x24 PUSH0 REVERT JUMPDEST PUSH1 0x1 PUSH1 0x1 PUSH1 0xA0 SHL SUB DUP6 AND DUP2 MSTORE PUSH1 0x80 DUP2 ADD PUSH1 0x3 DUP6 LT PUSH2 0x1485 JUMPI PUSH4 0x4E487B71 PUSH1 0xE0 SHL PUSH0 MSTORE PUSH1 0x21 PUSH1 0x4 MSTORE PUSH1 0x24 PUSH0 REVERT JUMPDEST DUP5 PUSH1 0x20 DUP4 ADD MSTORE DUP4 PUSH1 0x40 DUP4 ADD MSTORE DUP3 PUSH1 0x60 DUP4 ADD MSTORE SWAP6 SWAP5 POP POP POP POP POP JUMP JUMPDEST PUSH0 DUP1 PUSH1 0x40 DUP4 DUP6 SUB SLT ISZERO PUSH2 0x14B1 JUMPI PUSH0 DUP1 REVERT JUMPDEST POP POP DUP1 CALLDATALOAD SWAP3 PUSH1 0x20 SWAP1 SWAP2 ADD CALLDATALOAD SWAP2 POP JUMP JUMPDEST PUSH0 DUP1 PUSH1 0x40 DUP4 DUP6 SUB SLT ISZERO PUSH2 0x14D1 JUMPI PUSH0 DUP1 REVERT JUMPDEST DUP3 CALLDATALOAD SWAP2 POP PUSH1 0x20 DUP4 ADD CALLDATALOAD PUSH4 0xFFFFFFFF DUP2 AND DUP2 EQ PUSH2 0x14EB JUMPI PUSH0 DUP1 REVERT JUMPDEST DUP1 SWAP2 POP POP SWAP3 POP SWAP3 SWAP1 POP JUMP JUMPDEST PUSH0 PUSH1 0x20 DUP1 DUP4 MSTORE DUP4 MLOAD DUP2 DUP5 ADD MSTORE DUP1 DUP5 ADD MLOAD PUSH1 0x40 DUP5 ADD MSTORE PUSH2 0xFFFF PUSH1 0x40 DUP6 ADD MLOAD AND PUSH1 0x60 DUP5 ADD MSTORE PUSH1 0x60 DUP5 ADD MLOAD PUSH4 0xFFFFFFFF DUP1 DUP3 AND PUSH1 0x80 DUP7 ADD MSTORE DUP1 PUSH1 0x80 DUP8 ADD MLOAD AND PUSH1 0xA0 DUP7 ADD MSTORE POP POP PUSH1 0xA0 DUP5 ADD MLOAD PUSH1 0xC0 DUP1 DUP6 ADD MSTORE DUP1 MLOAD DUP1 PUSH1 0xE0 DUP7 ADD MSTORE PUSH0 JUMPDEST DUP2 DUP2 LT ISZERO PUSH2 0x156B JUMPI DUP3 DUP2 ADD DUP5 ADD MLOAD DUP7 DUP3 ADD PUSH2 0x100 ADD MSTORE DUP4 ADD PUSH2 0x154E JUMP JUMPDEST POP PUSH2 0x100 SWAP3 POP PUSH0 DUP4 DUP3 DUP8 ADD ADD MSTORE DUP3 PUSH1 0x1F NOT PUSH1 0x1F DUP4 ADD AND DUP7 ADD ADD SWAP4 POP POP POP POP SWAP3 SWAP2 POP POP JUMP JUMPDEST PUSH0 PUSH1 0x20 DUP3 DUP5 SUB SLT ISZERO PUSH2 0x159F JUMPI PUSH0 DUP1 REVERT JUMPDEST POP MLOAD SWAP2 SWAP1 POP JUMP JUMPDEST PUSH4 0x4E487B71 PUSH1 0xE0 SHL PUSH0 MSTORE PUSH1 0x32 PUSH1 0x4 MSTORE PUSH1 0x24 PUSH0 REVERT JUMPDEST PUSH4 0x4E487B71 PUSH1 0xE0 SHL PUSH0 MSTORE PUSH1 0x12 PUSH1 0x4 MSTORE PUSH1 0x24 PUSH0 REVERT JUMPDEST PUSH0 DUP3 PUSH2 0x15DC JUMPI PUSH2 0x15DC PUSH2 0x15BA JUMP JUMPDEST POP MOD SWAP1 JUMP JUMPDEST PUSH4 0x4E487B71 PUSH1 0xE0 SHL PUSH0 MSTORE PUSH1 0x11 PUSH1 0x4 MSTORE PUSH1 0x24 PUSH0 REVERT JUMPDEST DUP1 DUP3 MUL DUP2 ISZERO DUP3 DUP3 DIV DUP5 EQ OR PUSH2 0xA7E JUMPI PUSH2 0xA7E PUSH2 0x15E1 JUMP JUMPDEST PUSH0 DUP3 PUSH2 0x161A JUMPI PUSH2 0x161A PUSH2 0x15BA JUMP JUMPDEST POP DIV SWAP1 JUMP JUMPDEST DUP1 DUP3 ADD DUP1 DUP3 GT ISZERO PUSH2 0xA7E JUMPI PUSH2 0xA7E PUSH2 0x15E1 JUMP INVALID LOG2 PUSH5 0x6970667358 0x22 SLT KECCAK256 REVERT DUP1 LT 0xD6 EXP JUMPDEST 0x4A STOP CHAINID SWAP3 0xD 0x1E CALLDATACOPY JUMP PUSH8 0x5FFA5ABFD44C957C 0xC8 0x4E EQ 0xA7 PUSH7 0x701ABAEB64736F PUSH13 0x63430008140033000000000000 "},"methodIdentifiers":{"REQUEST_CONFIRMATIONS()":"67f082b0","acceptOwnership()":"79ba5097","activeRequest(address)":"c2c77938","callbackGasLimit()":"24f74697","commitPlay(uint8,uint256)":"336baa93","deposit()":"d0e30db0","funRewardRate()":"20f8fc77","funToken()":"845380a2","getActiveRequest(address)":"3233582a","houseBalance()":"67084eb3","keyHash()":"61728f39","maxBet()":"2e5b2168","minBet()":"9619367d","owner()":"8da5cb5b","pendingGames(uint256)":"579e94ee","rawFulfillRandomWords(uint256,uint256[])":"1fe543e3","s_vrfCoordinator()":"9eccacf6","setBetLimits(uint256,uint256)":"7687dd49","setCoordinator(address)":"8ea98117","setFunToken(address)":"e8cbe6a9","setRewardRate(uint256)":"9e447fc6","setVrfConfig(bytes32,uint32)":"f10092d7","subscriptionId()":"09c1ba2e","transferOwnership(address)":"f2fde38b","withdraw(uint256)":"2e1a7d4d"}}}}}