{"project/contracts/HubarbPool.sol":{"HubarbPool":{"abi":[{"inputs":[],"stateMutability":"nonpayable","type":"constructor"},{"inputs":[{"internalType":"address","name":"spender","type":"address"},{"internalType":"uint256","name":"allowance","type":"uint256"},{"internalType":"uint256","name":"needed","type":"uint256"}],"name":"ERC20InsufficientAllowance","type":"error"},{"inputs":[{"internalType":"address","name":"sender","type":"address"},{"internalType":"uint256","name":"balance","type":"uint256"},{"internalType":"uint256","name":"needed","type":"uint256"}],"name":"ERC20InsufficientBalance","type":"error"},{"inputs":[{"internalType":"address","name":"approver","type":"address"}],"name":"ERC20InvalidApprover","type":"error"},{"inputs":[{"internalType":"address","name":"receiver","type":"address"}],"name":"ERC20InvalidReceiver","type":"error"},{"inputs":[{"internalType":"address","name":"sender","type":"address"}],"name":"ERC20InvalidSender","type":"error"},{"inputs":[{"internalType":"address","name":"spender","type":"address"}],"name":"ERC20InvalidSpender","type":"error"},{"inputs":[{"internalType":"address","name":"owner","type":"address"}],"name":"OwnableInvalidOwner","type":"error"},{"inputs":[{"internalType":"address","name":"account","type":"address"}],"name":"OwnableUnauthorizedAccount","type":"error"},{"inputs":[],"name":"ReentrancyGuardReentrantCall","type":"error"},{"anonymous":false,"inputs":[{"indexed":true,"internalType":"address","name":"owner","type":"address"},{"indexed":true,"internalType":"address","name":"spender","type":"address"},{"indexed":false,"internalType":"uint256","name":"value","type":"uint256"}],"name":"Approval","type":"event"},{"anonymous":false,"inputs":[{"indexed":true,"internalType":"address","name":"by","type":"address"},{"indexed":false,"internalType":"uint256","name":"ethAmount","type":"uint256"},{"indexed":false,"internalType":"uint256","name":"funAmount","type":"uint256"},{"indexed":false,"internalType":"uint256","name":"lpMinted","type":"uint256"}],"name":"LiquidityAdded","type":"event"},{"anonymous":false,"inputs":[{"indexed":true,"internalType":"address","name":"by","type":"address"},{"indexed":false,"internalType":"uint256","name":"ethAmount","type":"uint256"},{"indexed":false,"internalType":"uint256","name":"funAmount","type":"uint256"},{"indexed":false,"internalType":"uint256","name":"lpBurned","type":"uint256"}],"name":"LiquidityRemoved","type":"event"},{"anonymous":false,"inputs":[{"indexed":true,"internalType":"address","name":"previousOwner","type":"address"},{"indexed":true,"internalType":"address","name":"newOwner","type":"address"}],"name":"OwnershipTransferred","type":"event"},{"anonymous":false,"inputs":[{"indexed":true,"internalType":"address","name":"by","type":"address"},{"indexed":true,"internalType":"address","name":"tokenIn","type":"address"},{"indexed":false,"internalType":"uint256","name":"amountIn","type":"uint256"},{"indexed":false,"internalType":"uint256","name":"amountOut","type":"uint256"}],"name":"Swap","type":"event"},{"anonymous":false,"inputs":[{"indexed":true,"internalType":"address","name":"from","type":"address"},{"indexed":true,"internalType":"address","name":"to","type":"address"},{"indexed":false,"internalType":"uint256","name":"value","type":"uint256"}],"name":"Transfer","type":"event"},{"inputs":[{"internalType":"uint256","name":"funAmount","type":"uint256"}],"name":"addLiquidity","outputs":[{"internalType":"uint256","name":"lpMinted","type":"uint256"}],"stateMutability":"payable","type":"function"},{"inputs":[{"internalType":"address","name":"owner","type":"address"},{"internalType":"address","name":"spender","type":"address"}],"name":"allowance","outputs":[{"internalType":"uint256","name":"","type":"uint256"}],"stateMutability":"view","type":"function"},{"inputs":[{"internalType":"address","name":"spender","type":"address"},{"internalType":"uint256","name":"value","type":"uint256"}],"name":"approve","outputs":[{"internalType":"bool","name":"","type":"bool"}],"stateMutability":"nonpayable","type":"function"},{"inputs":[{"internalType":"address","name":"account","type":"address"}],"name":"balanceOf","outputs":[{"internalType":"uint256","name":"","type":"uint256"}],"stateMutability":"view","type":"function"},{"inputs":[],"name":"decimals","outputs":[{"internalType":"uint8","name":"","type":"uint8"}],"stateMutability":"view","type":"function"},{"inputs":[],"name":"ethReserve","outputs":[{"internalType":"uint256","name":"","type":"uint256"}],"stateMutability":"view","type":"function"},{"inputs":[],"name":"funReserve","outputs":[{"internalType":"uint256","name":"","type":"uint256"}],"stateMutability":"view","type":"function"},{"inputs":[],"name":"funToken","outputs":[{"internalType":"contract IERC20","name":"","type":"address"}],"stateMutability":"view","type":"function"},{"inputs":[],"name":"getReserves","outputs":[{"internalType":"uint256","name":"eth","type":"uint256"},{"internalType":"uint256","name":"fun","type":"uint256"}],"stateMutability":"view","type":"function"},{"inputs":[],"name":"name","outputs":[{"internalType":"string","name":"","type":"string"}],"stateMutability":"view","type":"function"},{"inputs":[],"name":"owner","outputs":[{"internalType":"address","name":"","type":"address"}],"stateMutability":"view","type":"function"},{"inputs":[{"internalType":"uint256","name":"ethIn","type":"uint256"}],"name":"quoteEthForFun","outputs":[{"internalType":"uint256","name":"funOut","type":"uint256"}],"stateMutability":"view","type":"function"},{"inputs":[{"internalType":"uint256","name":"funIn","type":"uint256"}],"name":"quoteFunForEth","outputs":[{"internalType":"uint256","name":"ethOut","type":"uint256"}],"stateMutability":"view","type":"function"},{"inputs":[{"internalType":"uint256","name":"lpAmount","type":"uint256"}],"name":"removeLiquidity","outputs":[{"internalType":"uint256","name":"ethOut","type":"uint256"},{"internalType":"uint256","name":"funOut","type":"uint256"}],"stateMutability":"nonpayable","type":"function"},{"inputs":[],"name":"renounceOwnership","outputs":[],"stateMutability":"nonpayable","type":"function"},{"inputs":[{"internalType":"address","name":"_fun","type":"address"}],"name":"setTokens","outputs":[],"stateMutability":"nonpayable","type":"function"},{"inputs":[],"name":"swapEthForFun","outputs":[{"internalType":"uint256","name":"funOut","type":"uint256"}],"stateMutability":"payable","type":"function"},{"inputs":[{"internalType":"uint256","name":"funIn","type":"uint256"}],"name":"swapFunForEth","outputs":[{"internalType":"uint256","name":"ethOut","type":"uint256"}],"stateMutability":"nonpayable","type":"function"},{"inputs":[],"name":"symbol","outputs":[{"internalType":"string","name":"","type":"string"}],"stateMutability":"view","type":"function"},{"inputs":[],"name":"totalSupply","outputs":[{"internalType":"uint256","name":"","type":"uint256"}],"stateMutability":"view","type":"function"},{"inputs":[{"internalType":"address","name":"to","type":"address"},{"internalType":"uint256","name":"value","type":"uint256"}],"name":"transfer","outputs":[{"internalType":"bool","name":"","type":"bool"}],"stateMutability":"nonpayable","type":"function"},{"inputs":[{"internalType":"address","name":"from","type":"address"},{"internalType":"address","name":"to","type":"address"},{"internalType":"uint256","name":"value","type":"uint256"}],"name":"transferFrom","outputs":[{"internalType":"bool","name":"","type":"bool"}],"stateMutability":"nonpayable","type":"function"},{"inputs":[{"internalType":"address","name":"newOwner","type":"address"}],"name":"transferOwnership","outputs":[],"stateMutability":"nonpayable","type":"function"},{"stateMutability":"payable","type":"receive"}],"evm":{"bytecode":{"linkReferences":{},"object":"608060405234801562000010575f80fd5b5033604051806040016040528060098152602001680485542415242204c560bc1b815250604051806040016040528060038152602001620484c560ec1b8152508160039081620000619190620001c8565b506004620000708282620001c8565b5050506001600160a01b038116620000a157604051631e4fbdf760e01b81525f600482015260240160405180910390fd5b620000ac81620000d7565b5060017f9b779b17422d0df92223018b32b4d1fa46e071723d6817e2486d003becc55f005562000290565b600580546001600160a01b038381166001600160a01b0319831681179093556040519116919082907f8be0079c531659141344cd1fd0a4f28419497f9722a3daafe3b4186f6b6457e0905f90a35050565b634e487b7160e01b5f52604160045260245ffd5b600181811c908216806200015157607f821691505b6020821081036200017057634e487b7160e01b5f52602260045260245ffd5b50919050565b601f821115620001c3575f81815260208120601f850160051c810160208610156200019e5750805b601f850160051c820191505b81811015620001bf57828155600101620001aa565b5050505b505050565b81516001600160401b03811115620001e457620001e462000128565b620001fc81620001f584546200013c565b8462000176565b602080601f83116001811462000232575f84156200021a5750858301515b5f19600386901b1c1916600185901b178555620001bf565b5f85815260208120601f198616915b82811015620002625788860151825594840194600190910190840162000241565b50858210156200028057878501515f19600388901b60f8161c191681555b5050505050600190811b01905550565b61175a806200029e5f395ff3fe60806040526004361061013f575f3560e01c806385bd3bc2116100b3578063a9059cbb1161006d578063a9059cbb14610379578063c438b8bb14610398578063d62ccb3f146103b7578063da3b9f0f146103cc578063dd62ed3e146103d4578063f2fde38b14610418575f80fd5b806385bd3bc2146102d65780638da5cb5b146102eb57806395d89b4114610308578063961206361461031c5780639c8f9f231461033b578063a639eb4d1461035a575f80fd5b8063313ce56711610104578063313ce5671461020857806351c6590a1461022357806370a0823114610236578063715018a61461026a578063768e061c14610280578063845380a21461029f575f80fd5b806306fdde031461014a5780630902f1ac14610174578063095ea7b31461019c57806318160ddd146101cb57806323b872dd146101e9575f80fd5b3661014657005b5f80fd5b348015610155575f80fd5b5061015e610437565b60405161016b9190611520565b60405180910390f35b34801561017f575f80fd5b506007546008545b6040805192835260208301919091520161016b565b3480156101a7575f80fd5b506101bb6101b6366004611581565b6104c7565b604051901515815260200161016b565b3480156101d6575f80fd5b506002545b60405190815260200161016b565b3480156101f4575f80fd5b506101bb6102033660046115a9565b6104e0565b348015610213575f80fd5b506040516012815260200161016b565b6101db6102313660046115e2565b610503565b348015610241575f80fd5b506101db6102503660046115f9565b6001600160a01b03165f9081526020819052604090205490565b348015610275575f80fd5b5061027e610792565b005b34801561028b575f80fd5b506101db61029a3660046115e2565b6107a5565b3480156102aa575f80fd5b506006546102be906001600160a01b031681565b6040516001600160a01b03909116815260200161016b565b3480156102e1575f80fd5b506101db60085481565b3480156102f6575f80fd5b506005546001600160a01b03166102be565b348015610313575f80fd5b5061015e61080a565b348015610327575f80fd5b506101db6103363660046115e2565b610819565b348015610346575f80fd5b506101876103553660046115e2565b61086d565b348015610365575f80fd5b5061027e6103743660046115f9565b610aee565b348015610384575f80fd5b506101bb610393366004611581565b610b63565b3480156103a3575f80fd5b506101db6103b23660046115e2565b610b70565b3480156103c2575f80fd5b506101db60075481565b6101db610e31565b3480156103df575f80fd5b506101db6103ee366004611612565b6001600160a01b039182165f90815260016020908152604080832093909416825291909152205490565b348015610423575f80fd5b5061027e6104323660046115f9565b611050565b60606003805461044690611643565b80601f016020809104026020016040519081016040528092919081815260200182805461047290611643565b80156104bd5780601f10610494576101008083540402835291602001916104bd565b820191905f5260205f20905b8154815290600101906020018083116104a057829003601f168201915b5050505050905090565b5f336104d481858561108d565b60019150505b92915050565b5f336104ed85828561109f565b6104f885858561111b565b506001949350505050565b5f61050c611178565b6006546001600160a01b03166105615760405162461bcd60e51b8152602060048201526015602482015274141bdbdb0e881b9bdd081a5b9a5d1a585b1a5cd959605a1b60448201526064015b60405180910390fd5b5f3411801561056f57505f82115b6105af5760405162461bcd60e51b8152602060048201526011602482015270141bdbdb0e881e995c9bc8185b5bdd5b9d607a1b6044820152606401610558565b5f6105b960025490565b9050805f036105db576105d46105cf8434611689565b611193565b9150610626565b6007545f906105ea8334611689565b6105f491906116a0565b90505f60085483866106069190611689565b61061091906116a0565b905080821061061f5780610621565b815b935050505b5f82116106815760405162461bcd60e51b815260206004820152602360248201527f506f6f6c3a20696e73756666696369656e74206c6971756964697479206d696e6044820152621d195960ea1b6064820152608401610558565b6006546040516323b872dd60e01b8152336004820152306024820152604481018590526001600160a01b03909116906323b872dd906064016020604051808303815f875af11580156106d5573d5f803e3d5ffd5b505050506040513d601f19601f820116820180604052508101906106f991906116bf565b503460075f82825461070b91906116de565b925050819055508260085f82825461072391906116de565b9091555061073390503383611200565b604080513481526020810185905290810183905233907f64b83944e79c3ce8d4c297411de637c3e102d064677aac0c163976ebdcd6f50e9060600160405180910390a25061078d60015f8051602061170583398151915255565b919050565b61079a611238565b6107a35f611265565b565b5f6007545f14806107b65750600854155b156107c257505f919050565b5f6107cf6103e584611689565b9050806103e86007546107e29190611689565b6107ec91906116de565b6008546107f99083611689565b61080391906116a0565b9392505050565b60606004805461044690611643565b5f6007545f148061082a5750600854155b1561083657505f919050565b5f6108436103e584611689565b9050806103e86008546108569190611689565b61086091906116de565b6007546107f99083611689565b5f80610877611178565b5f83116108b65760405162461bcd60e51b815260206004820152600d60248201526c0506f6f6c3a207a65726f206c7609c1b6044820152606401610558565b5f6108c060025490565b905080600754856108d19190611689565b6108db91906116a0565b925080600854856108ec9190611689565b6108f691906116a0565b91505f8311801561090657505f82115b6109525760405162461bcd60e51b815260206004820152601b60248201527f506f6f6c3a20696e73756666696369656e7420726573657276657300000000006044820152606401610558565b61095c33856112b6565b8260075f82825461096d91906116f1565b925050819055508160085f82825461098591906116f1565b909155505060065460405163a9059cbb60e01b8152336004820152602481018490526001600160a01b039091169063a9059cbb906044016020604051808303815f875af11580156109d8573d5f803e3d5ffd5b505050506040513d601f19601f820116820180604052508101906109fc91906116bf565b506040515f90339085908381818185875af1925050503d805f8114610a3c576040519150601f19603f3d011682016040523d82523d5f602084013e610a41565b606091505b5050905080610a8e5760405162461bcd60e51b8152602060048201526019602482015278141bdbdb0e88115512081d1c985b9cd9995c8819985a5b1959603a1b6044820152606401610558565b604080518581526020810185905290810186905233907f1dc8bb69df2b8e91fbdcbfcf93d951b3f0000f085a95fe3f7946d6161439245d9060600160405180910390a25050610ae960015f8051602061170583398151915255565b915091565b610af6611238565b6001600160a01b038116610b415760405162461bcd60e51b8152602060048201526012602482015271506f6f6c3a207a65726f206164647265737360701b6044820152606401610558565b600680546001600160a01b0319166001600160a01b0392909216919091179055565b5f336104d481858561111b565b5f610b79611178565b5f8211610bb85760405162461bcd60e51b815260206004820152600d60248201526c2837b7b61d103d32b9379034b760991b6044820152606401610558565b6006546040516323b872dd60e01b8152336004820152306024820152604481018490526001600160a01b03909116906323b872dd906064016020604051808303815f875af1158015610c0c573d5f803e3d5ffd5b505050506040513d601f19601f82011682018060405250810190610c3091906116bf565b505f610c3e6103e584611689565b9050806103e8600854610c519190611689565b610c5b91906116de565b600754610c689083611689565b610c7291906116a0565b91505f8211610cbf5760405162461bcd60e51b8152602060048201526019602482015278141bdbdb0e881a5b9cdd59999a58da595b9d081bdd5d1c1d5d603a1b6044820152606401610558565b6007548210610d105760405162461bcd60e51b815260206004820152601c60248201527f506f6f6c3a20696e73756666696369656e74206c6971756964697479000000006044820152606401610558565b8260085f828254610d2191906116de565b925050819055508160075f828254610d3991906116f1565b90915550506040515f90339084908381818185875af1925050503d805f8114610d7d576040519150601f19603f3d011682016040523d82523d5f602084013e610d82565b606091505b5050905080610dcf5760405162461bcd60e51b8152602060048201526019602482015278141bdbdb0e88115512081d1c985b9cd9995c8819985a5b1959603a1b6044820152606401610558565b60065460408051868152602081018690526001600160a01b039092169133917ffa2dda1cc1b86e41239702756b13effbc1a092b5c57e3ad320fbe4f3b13fe235910160405180910390a3505061078d60015f8051602061170583398151915255565b5f610e3a611178565b5f3411610e795760405162461bcd60e51b815260206004820152600d60248201526c2837b7b61d103d32b9379034b760991b6044820152606401610558565b5f610e866103e534611689565b9050806103e8600754610e999190611689565b610ea391906116de565b600854610eb09083611689565b610eba91906116a0565b91505f8211610f075760405162461bcd60e51b8152602060048201526019602482015278141bdbdb0e881a5b9cdd59999a58da595b9d081bdd5d1c1d5d603a1b6044820152606401610558565b6008548210610f585760405162461bcd60e51b815260206004820152601c60248201527f506f6f6c3a20696e73756666696369656e74206c6971756964697479000000006044820152606401610558565b3460075f828254610f6991906116de565b925050819055508160085f828254610f8191906116f1565b909155505060065460405163a9059cbb60e01b8152336004820152602481018490526001600160a01b039091169063a9059cbb906044016020604051808303815f875af1158015610fd4573d5f803e3d5ffd5b505050506040513d601f19601f82011682018060405250810190610ff891906116bf565b5060408051348152602081018490525f9133917ffa2dda1cc1b86e41239702756b13effbc1a092b5c57e3ad320fbe4f3b13fe235910160405180910390a35061104d60015f8051602061170583398151915255565b90565b611058611238565b6001600160a01b03811661108157604051631e4fbdf760e01b81525f6004820152602401610558565b61108a81611265565b50565b61109a83838360016112ea565b505050565b6001600160a01b038381165f908152600160209081526040808320938616835292905220545f19811015611115578181101561110757604051637dc7a0d960e11b81526001600160a01b03841660048201526024810182905260448101839052606401610558565b61111584848484035f6112ea565b50505050565b6001600160a01b03831661114457604051634b637e8f60e11b81525f6004820152602401610558565b6001600160a01b03821661116d5760405163ec442f0560e01b81525f6004820152602401610558565b61109a8383836113bc565b6111806114e2565b60025f8051602061170583398151915255565b5f60038211156111f25750805f6111ab6002836116a0565b6111b69060016116de565b90505b818110156111ec579050806002816111d181866116a0565b6111db91906116de565b6111e591906116a0565b90506111b9565b50919050565b811561078d57506001919050565b6001600160a01b0382166112295760405163ec442f0560e01b81525f6004820152602401610558565b6112345f83836113bc565b5050565b6005546001600160a01b031633146107a35760405163118cdaa760e01b8152336004820152602401610558565b600580546001600160a01b038381166001600160a01b0319831681179093556040519116919082907f8be0079c531659141344cd1fd0a4f28419497f9722a3daafe3b4186f6b6457e0905f90a35050565b6001600160a01b0382166112df57604051634b637e8f60e11b81525f6004820152602401610558565b611234825f836113bc565b6001600160a01b0384166113135760405163e602df0560e01b81525f6004820152602401610558565b6001600160a01b03831661133c57604051634a1406b160e11b81525f6004820152602401610558565b6001600160a01b038085165f908152600160209081526040808320938716835292905220829055801561111557826001600160a01b0316846001600160a01b03167f8c5be1e5ebec7d5bd14f71427d1e84f3dd0314c0f7b2291e5b200ac8c7c3b925846040516113ae91815260200190565b60405180910390a350505050565b6001600160a01b0383166113e6578060025f8282546113db91906116de565b909155506114569050565b6001600160a01b0383165f90815260208190526040902054818110156114385760405163391434e360e21b81526001600160a01b03851660048201526024810182905260448101839052606401610558565b6001600160a01b0384165f9081526020819052604090209082900390555b6001600160a01b03821661147257600280548290039055611490565b6001600160a01b0382165f9081526020819052604090208054820190555b816001600160a01b0316836001600160a01b03167fddf252ad1be2c89b69c2b068fc378daa952ba7f163c4a11628f55a4df523b3ef836040516114d591815260200190565b60405180910390a3505050565b6114fb5f60025f80516020611705833981519152611519565b156107a357604051633ee5aeb560e01b815260040160405180910390fd5b5414919050565b5f6020808352835180828501525f5b8181101561154b5785810183015185820160400152820161152f565b505f604082860101526040601f19601f8301168501019250505092915050565b80356001600160a01b038116811461078d575f80fd5b5f8060408385031215611592575f80fd5b61159b8361156b565b946020939093013593505050565b5f805f606084860312156115bb575f80fd5b6115c48461156b565b92506115d26020850161156b565b9150604084013590509250925092565b5f602082840312156115f2575f80fd5b5035919050565b5f60208284031215611609575f80fd5b6108038261156b565b5f8060408385031215611623575f80fd5b61162c8361156b565b915061163a6020840161156b565b90509250929050565b600181811c9082168061165757607f821691505b6020821081036111ec57634e487b7160e01b5f52602260045260245ffd5b634e487b7160e01b5f52601160045260245ffd5b80820281158282048414176104da576104da611675565b5f826116ba57634e487b7160e01b5f52601260045260245ffd5b500490565b5f602082840312156116cf575f80fd5b81518015158114610803575f80fd5b808201808211156104da576104da611675565b818103818111156104da576104da61167556fe9b779b17422d0df92223018b32b4d1fa46e071723d6817e2486d003becc55f00a264697066735822122045a29eeca513680c09fa349642553667dee6fa8b506321e7aabe37709489704e64736f6c63430008140033","opcodes":"PUSH1 0x80 PUSH1 0x40 MSTORE CALLVALUE DUP1 ISZERO PUSH3 0x10 JUMPI PUSH0 DUP1 REVERT JUMPDEST POP CALLER PUSH1 0x40 MLOAD DUP1 PUSH1 0x40 ADD PUSH1 0x40 MSTORE DUP1 PUSH1 0x9 DUP2 MSTORE PUSH1 0x20 ADD PUSH9 0x485542415242204C5 PUSH1 0xBC SHL DUP2 MSTORE POP PUSH1 0x40 MLOAD DUP1 PUSH1 0x40 ADD PUSH1 0x40 MSTORE DUP1 PUSH1 0x3 DUP2 MSTORE PUSH1 0x20 ADD PUSH3 0x484C5 PUSH1 0xEC SHL DUP2 MSTORE POP DUP2 PUSH1 0x3 SWAP1 DUP2 PUSH3 0x61 SWAP2 SWAP1 PUSH3 0x1C8 JUMP JUMPDEST POP PUSH1 0x4 PUSH3 0x70 DUP3 DUP3 PUSH3 0x1C8 JUMP JUMPDEST POP POP POP PUSH1 0x1 PUSH1 0x1 PUSH1 0xA0 SHL SUB DUP2 AND PUSH3 0xA1 JUMPI PUSH1 0x40 MLOAD PUSH4 0x1E4FBDF7 PUSH1 0xE0 SHL DUP2 MSTORE PUSH0 PUSH1 0x4 DUP3 ADD MSTORE PUSH1 0x24 ADD PUSH1 0x40 MLOAD DUP1 SWAP2 SUB SWAP1 REVERT JUMPDEST PUSH3 0xAC DUP2 PUSH3 0xD7 JUMP JUMPDEST POP PUSH1 0x1 PUSH32 0x9B779B17422D0DF92223018B32B4D1FA46E071723D6817E2486D003BECC55F00 SSTORE PUSH3 0x290 JUMP JUMPDEST PUSH1 0x5 DUP1 SLOAD PUSH1 0x1 PUSH1 0x1 PUSH1 0xA0 SHL SUB DUP4 DUP2 AND PUSH1 0x1 PUSH1 0x1 PUSH1 0xA0 SHL SUB NOT DUP4 AND DUP2 OR SWAP1 SWAP4 SSTORE PUSH1 0x40 MLOAD SWAP2 AND SWAP2 SWAP1 DUP3 SWAP1 PUSH32 0x8BE0079C531659141344CD1FD0A4F28419497F9722A3DAAFE3B4186F6B6457E0 SWAP1 PUSH0 SWAP1 LOG3 POP POP JUMP JUMPDEST PUSH4 0x4E487B71 PUSH1 0xE0 SHL PUSH0 MSTORE PUSH1 0x41 PUSH1 0x4 MSTORE PUSH1 0x24 PUSH0 REVERT JUMPDEST PUSH1 0x1 DUP2 DUP2 SHR SWAP1 DUP3 AND DUP1 PUSH3 0x151 JUMPI PUSH1 0x7F DUP3 AND SWAP2 POP JUMPDEST PUSH1 0x20 DUP3 LT DUP2 SUB PUSH3 0x170 JUMPI PUSH4 0x4E487B71 PUSH1 0xE0 SHL PUSH0 MSTORE PUSH1 0x22 PUSH1 0x4 MSTORE PUSH1 0x24 PUSH0 REVERT JUMPDEST POP SWAP2 SWAP1 POP JUMP JUMPDEST PUSH1 0x1F DUP3 GT ISZERO PUSH3 0x1C3 JUMPI PUSH0 DUP2 DUP2 MSTORE PUSH1 0x20 DUP2 KECCAK256 PUSH1 0x1F DUP6 ADD PUSH1 0x5 SHR DUP2 ADD PUSH1 0x20 DUP7 LT ISZERO PUSH3 0x19E JUMPI POP DUP1 JUMPDEST PUSH1 0x1F DUP6 ADD PUSH1 0x5 SHR DUP3 ADD SWAP2 POP JUMPDEST DUP2 DUP2 LT ISZERO PUSH3 0x1BF JUMPI DUP3 DUP2 SSTORE PUSH1 0x1 ADD PUSH3 0x1AA JUMP JUMPDEST POP POP POP JUMPDEST POP POP POP JUMP JUMPDEST DUP2 MLOAD PUSH1 0x1 PUSH1 0x1 PUSH1 0x40 SHL SUB DUP2 GT ISZERO PUSH3 0x1E4 JUMPI PUSH3 0x1E4 PUSH3 0x128 JUMP JUMPDEST PUSH3 0x1FC DUP2 PUSH3 0x1F5 DUP5 SLOAD PUSH3 0x13C JUMP JUMPDEST DUP5 PUSH3 0x176 JUMP JUMPDEST PUSH1 0x20 DUP1 PUSH1 0x1F DUP4 GT PUSH1 0x1 DUP2 EQ PUSH3 0x232 JUMPI PUSH0 DUP5 ISZERO PUSH3 0x21A JUMPI POP DUP6 DUP4 ADD MLOAD JUMPDEST PUSH0 NOT PUSH1 0x3 DUP7 SWAP1 SHL SHR NOT AND PUSH1 0x1 DUP6 SWAP1 SHL OR DUP6 SSTORE PUSH3 0x1BF JUMP JUMPDEST PUSH0 DUP6 DUP2 MSTORE PUSH1 0x20 DUP2 KECCAK256 PUSH1 0x1F NOT DUP7 AND SWAP2 JUMPDEST DUP3 DUP2 LT ISZERO PUSH3 0x262 JUMPI DUP9 DUP7 ADD MLOAD DUP3 SSTORE SWAP5 DUP5 ADD SWAP5 PUSH1 0x1 SWAP1 SWAP2 ADD SWAP1 DUP5 ADD PUSH3 0x241 JUMP JUMPDEST POP DUP6 DUP3 LT ISZERO PUSH3 0x280 JUMPI DUP8 DUP6 ADD MLOAD PUSH0 NOT PUSH1 0x3 DUP9 SWAP1 SHL PUSH1 0xF8 AND SHR NOT AND DUP2 SSTORE JUMPDEST POP POP POP POP POP PUSH1 0x1 SWAP1 DUP2 SHL ADD SWAP1 SSTORE POP JUMP JUMPDEST PUSH2 0x175A DUP1 PUSH3 0x29E PUSH0 CODECOPY PUSH0 RETURN INVALID PUSH1 0x80 PUSH1 0x40 MSTORE PUSH1 0x4 CALLDATASIZE LT PUSH2 0x13F JUMPI PUSH0 CALLDATALOAD PUSH1 0xE0 SHR DUP1 PUSH4 0x85BD3BC2 GT PUSH2 0xB3 JUMPI DUP1 PUSH4 0xA9059CBB GT PUSH2 0x6D JUMPI DUP1 PUSH4 0xA9059CBB EQ PUSH2 0x379 JUMPI DUP1 PUSH4 0xC438B8BB EQ PUSH2 0x398 JUMPI DUP1 PUSH4 0xD62CCB3F EQ PUSH2 0x3B7 JUMPI DUP1 PUSH4 0xDA3B9F0F EQ PUSH2 0x3CC JUMPI DUP1 PUSH4 0xDD62ED3E EQ PUSH2 0x3D4 JUMPI DUP1 PUSH4 0xF2FDE38B EQ PUSH2 0x418 JUMPI PUSH0 DUP1 REVERT JUMPDEST DUP1 PUSH4 0x85BD3BC2 EQ PUSH2 0x2D6 JUMPI DUP1 PUSH4 0x8DA5CB5B EQ PUSH2 0x2EB JUMPI DUP1 PUSH4 0x95D89B41 EQ PUSH2 0x308 JUMPI DUP1 PUSH4 0x96120636 EQ PUSH2 0x31C JUMPI DUP1 PUSH4 0x9C8F9F23 EQ PUSH2 0x33B JUMPI DUP1 PUSH4 0xA639EB4D EQ PUSH2 0x35A JUMPI PUSH0 DUP1 REVERT JUMPDEST DUP1 PUSH4 0x313CE567 GT PUSH2 0x104 JUMPI DUP1 PUSH4 0x313CE567 EQ PUSH2 0x208 JUMPI DUP1 PUSH4 0x51C6590A EQ PUSH2 0x223 JUMPI DUP1 PUSH4 0x70A08231 EQ PUSH2 0x236 JUMPI DUP1 PUSH4 0x715018A6 EQ PUSH2 0x26A JUMPI DUP1 PUSH4 0x768E061C EQ PUSH2 0x280 JUMPI DUP1 PUSH4 0x845380A2 EQ PUSH2 0x29F JUMPI PUSH0 DUP1 REVERT JUMPDEST DUP1 PUSH4 0x6FDDE03 EQ PUSH2 0x14A JUMPI DUP1 PUSH4 0x902F1AC EQ PUSH2 0x174 JUMPI DUP1 PUSH4 0x95EA7B3 EQ PUSH2 0x19C JUMPI DUP1 PUSH4 0x18160DDD EQ PUSH2 0x1CB JUMPI DUP1 PUSH4 0x23B872DD EQ PUSH2 0x1E9 JUMPI PUSH0 DUP1 REVERT JUMPDEST CALLDATASIZE PUSH2 0x146 JUMPI STOP JUMPDEST PUSH0 DUP1 REVERT JUMPDEST CALLVALUE DUP1 ISZERO PUSH2 0x155 JUMPI PUSH0 DUP1 REVERT JUMPDEST POP PUSH2 0x15E PUSH2 0x437 JUMP JUMPDEST PUSH1 0x40 MLOAD PUSH2 0x16B SWAP2 SWAP1 PUSH2 0x1520 JUMP JUMPDEST PUSH1 0x40 MLOAD DUP1 SWAP2 SUB SWAP1 RETURN JUMPDEST CALLVALUE DUP1 ISZERO PUSH2 0x17F JUMPI PUSH0 DUP1 REVERT JUMPDEST POP PUSH1 0x7 SLOAD PUSH1 0x8 SLOAD JUMPDEST PUSH1 0x40 DUP1 MLOAD SWAP3 DUP4 MSTORE PUSH1 0x20 DUP4 ADD SWAP2 SWAP1 SWAP2 MSTORE ADD PUSH2 0x16B JUMP JUMPDEST CALLVALUE DUP1 ISZERO PUSH2 0x1A7 JUMPI PUSH0 DUP1 REVERT JUMPDEST POP PUSH2 0x1BB PUSH2 0x1B6 CALLDATASIZE PUSH1 0x4 PUSH2 0x1581 JUMP JUMPDEST PUSH2 0x4C7 JUMP JUMPDEST PUSH1 0x40 MLOAD SWAP1 ISZERO ISZERO DUP2 MSTORE PUSH1 0x20 ADD PUSH2 0x16B JUMP JUMPDEST CALLVALUE DUP1 ISZERO PUSH2 0x1D6 JUMPI PUSH0 DUP1 REVERT JUMPDEST POP PUSH1 0x2 SLOAD JUMPDEST PUSH1 0x40 MLOAD SWAP1 DUP2 MSTORE PUSH1 0x20 ADD PUSH2 0x16B JUMP JUMPDEST CALLVALUE DUP1 ISZERO PUSH2 0x1F4 JUMPI PUSH0 DUP1 REVERT JUMPDEST POP PUSH2 0x1BB PUSH2 0x203 CALLDATASIZE PUSH1 0x4 PUSH2 0x15A9 JUMP JUMPDEST PUSH2 0x4E0 JUMP JUMPDEST CALLVALUE DUP1 ISZERO PUSH2 0x213 JUMPI PUSH0 DUP1 REVERT JUMPDEST POP PUSH1 0x40 MLOAD PUSH1 0x12 DUP2 MSTORE PUSH1 0x20 ADD PUSH2 0x16B JUMP JUMPDEST PUSH2 0x1DB PUSH2 0x231 CALLDATASIZE PUSH1 0x4 PUSH2 0x15E2 JUMP JUMPDEST PUSH2 0x503 JUMP JUMPDEST CALLVALUE DUP1 ISZERO PUSH2 0x241 JUMPI PUSH0 DUP1 REVERT JUMPDEST POP PUSH2 0x1DB PUSH2 0x250 CALLDATASIZE PUSH1 0x4 PUSH2 0x15F9 JUMP JUMPDEST PUSH1 0x1 PUSH1 0x1 PUSH1 0xA0 SHL SUB AND PUSH0 SWAP1 DUP2 MSTORE PUSH1 0x20 DUP2 SWAP1 MSTORE PUSH1 0x40 SWAP1 KECCAK256 SLOAD SWAP1 JUMP JUMPDEST CALLVALUE DUP1 ISZERO PUSH2 0x275 JUMPI PUSH0 DUP1 REVERT JUMPDEST POP PUSH2 0x27E PUSH2 0x792 JUMP JUMPDEST STOP JUMPDEST CALLVALUE DUP1 ISZERO PUSH2 0x28B JUMPI PUSH0 DUP1 REVERT JUMPDEST POP PUSH2 0x1DB PUSH2 0x29A CALLDATASIZE PUSH1 0x4 PUSH2 0x15E2 JUMP JUMPDEST PUSH2 0x7A5 JUMP JUMPDEST CALLVALUE DUP1 ISZERO PUSH2 0x2AA JUMPI PUSH0 DUP1 REVERT JUMPDEST POP PUSH1 0x6 SLOAD PUSH2 0x2BE SWAP1 PUSH1 0x1 PUSH1 0x1 PUSH1 0xA0 SHL SUB AND DUP2 JUMP JUMPDEST PUSH1 0x40 MLOAD PUSH1 0x1 PUSH1 0x1 PUSH1 0xA0 SHL SUB SWAP1 SWAP2 AND DUP2 MSTORE PUSH1 0x20 ADD PUSH2 0x16B JUMP JUMPDEST CALLVALUE DUP1 ISZERO PUSH2 0x2E1 JUMPI PUSH0 DUP1 REVERT JUMPDEST POP PUSH2 0x1DB PUSH1 0x8 SLOAD DUP2 JUMP JUMPDEST CALLVALUE DUP1 ISZERO PUSH2 0x2F6 JUMPI PUSH0 DUP1 REVERT JUMPDEST POP PUSH1 0x5 SLOAD PUSH1 0x1 PUSH1 0x1 PUSH1 0xA0 SHL SUB AND PUSH2 0x2BE JUMP JUMPDEST CALLVALUE DUP1 ISZERO PUSH2 0x313 JUMPI PUSH0 DUP1 REVERT JUMPDEST POP PUSH2 0x15E PUSH2 0x80A JUMP JUMPDEST CALLVALUE DUP1 ISZERO PUSH2 0x327 JUMPI PUSH0 DUP1 REVERT JUMPDEST POP PUSH2 0x1DB PUSH2 0x336 CALLDATASIZE PUSH1 0x4 PUSH2 0x15E2 JUMP JUMPDEST PUSH2 0x819 JUMP JUMPDEST CALLVALUE DUP1 ISZERO PUSH2 0x346 JUMPI PUSH0 DUP1 REVERT JUMPDEST POP PUSH2 0x187 PUSH2 0x355 CALLDATASIZE PUSH1 0x4 PUSH2 0x15E2 JUMP JUMPDEST PUSH2 0x86D JUMP JUMPDEST CALLVALUE DUP1 ISZERO PUSH2 0x365 JUMPI PUSH0 DUP1 REVERT JUMPDEST POP PUSH2 0x27E PUSH2 0x374 CALLDATASIZE PUSH1 0x4 PUSH2 0x15F9 JUMP JUMPDEST PUSH2 0xAEE JUMP JUMPDEST CALLVALUE DUP1 ISZERO PUSH2 0x384 JUMPI PUSH0 DUP1 REVERT JUMPDEST POP PUSH2 0x1BB PUSH2 0x393 CALLDATASIZE PUSH1 0x4 PUSH2 0x1581 JUMP JUMPDEST PUSH2 0xB63 JUMP JUMPDEST CALLVALUE DUP1 ISZERO PUSH2 0x3A3 JUMPI PUSH0 DUP1 REVERT JUMPDEST POP PUSH2 0x1DB PUSH2 0x3B2 CALLDATASIZE PUSH1 0x4 PUSH2 0x15E2 JUMP JUMPDEST PUSH2 0xB70 JUMP JUMPDEST CALLVALUE DUP1 ISZERO PUSH2 0x3C2 JUMPI PUSH0 DUP1 REVERT JUMPDEST POP PUSH2 0x1DB PUSH1 0x7 SLOAD DUP2 JUMP JUMPDEST PUSH2 0x1DB PUSH2 0xE31 JUMP JUMPDEST CALLVALUE DUP1 ISZERO PUSH2 0x3DF JUMPI PUSH0 DUP1 REVERT JUMPDEST POP PUSH2 0x1DB PUSH2 0x3EE CALLDATASIZE PUSH1 0x4 PUSH2 0x1612 JUMP JUMPDEST PUSH1 0x1 PUSH1 0x1 PUSH1 0xA0 SHL SUB SWAP2 DUP3 AND PUSH0 SWAP1 DUP2 MSTORE PUSH1 0x1 PUSH1 0x20 SWAP1 DUP2 MSTORE PUSH1 0x40 DUP1 DUP4 KECCAK256 SWAP4 SWAP1 SWAP5 AND DUP3 MSTORE SWAP2 SWAP1 SWAP2 MSTORE KECCAK256 SLOAD SWAP1 JUMP JUMPDEST CALLVALUE DUP1 ISZERO PUSH2 0x423 JUMPI PUSH0 DUP1 REVERT JUMPDEST POP PUSH2 0x27E PUSH2 0x432 CALLDATASIZE PUSH1 0x4 PUSH2 0x15F9 JUMP JUMPDEST PUSH2 0x1050 JUMP JUMPDEST PUSH1 0x60 PUSH1 0x3 DUP1 SLOAD PUSH2 0x446 SWAP1 PUSH2 0x1643 JUMP JUMPDEST DUP1 PUSH1 0x1F ADD PUSH1 0x20 DUP1 SWAP2 DIV MUL PUSH1 0x20 ADD PUSH1 0x40 MLOAD SWAP1 DUP2 ADD PUSH1 0x40 MSTORE DUP1 SWAP3 SWAP2 SWAP1 DUP2 DUP2 MSTORE PUSH1 0x20 ADD DUP3 DUP1 SLOAD PUSH2 0x472 SWAP1 PUSH2 0x1643 JUMP JUMPDEST DUP1 ISZERO PUSH2 0x4BD JUMPI DUP1 PUSH1 0x1F LT PUSH2 0x494 JUMPI PUSH2 0x100 DUP1 DUP4 SLOAD DIV MUL DUP4 MSTORE SWAP2 PUSH1 0x20 ADD SWAP2 PUSH2 0x4BD JUMP JUMPDEST DUP3 ADD SWAP2 SWAP1 PUSH0 MSTORE PUSH1 0x20 PUSH0 KECCAK256 SWAP1 JUMPDEST DUP2 SLOAD DUP2 MSTORE SWAP1 PUSH1 0x1 ADD SWAP1 PUSH1 0x20 ADD DUP1 DUP4 GT PUSH2 0x4A0 JUMPI DUP3 SWAP1 SUB PUSH1 0x1F AND DUP3 ADD SWAP2 JUMPDEST POP POP POP POP POP SWAP1 POP SWAP1 JUMP JUMPDEST PUSH0 CALLER PUSH2 0x4D4 DUP2 DUP6 DUP6 PUSH2 0x108D JUMP JUMPDEST PUSH1 0x1 SWAP2 POP POP JUMPDEST SWAP3 SWAP2 POP POP JUMP JUMPDEST PUSH0 CALLER PUSH2 0x4ED DUP6 DUP3 DUP6 PUSH2 0x109F JUMP JUMPDEST PUSH2 0x4F8 DUP6 DUP6 DUP6 PUSH2 0x111B JUMP JUMPDEST POP PUSH1 0x1 SWAP5 SWAP4 POP POP POP POP JUMP JUMPDEST PUSH0 PUSH2 0x50C PUSH2 0x1178 JUMP JUMPDEST PUSH1 0x6 SLOAD PUSH1 0x1 PUSH1 0x1 PUSH1 0xA0 SHL SUB AND PUSH2 0x561 JUMPI PUSH1 0x40 MLOAD PUSH3 0x461BCD PUSH1 0xE5 SHL DUP2 MSTORE PUSH1 0x20 PUSH1 0x4 DUP3 ADD MSTORE PUSH1 0x15 PUSH1 0x24 DUP3 ADD MSTORE PUSH21 0x141BDBDB0E881B9BDD081A5B9A5D1A585B1A5CD959 PUSH1 0x5A SHL PUSH1 0x44 DUP3 ADD MSTORE PUSH1 0x64 ADD JUMPDEST PUSH1 0x40 MLOAD DUP1 SWAP2 SUB SWAP1 REVERT JUMPDEST PUSH0 CALLVALUE GT DUP1 ISZERO PUSH2 0x56F JUMPI POP PUSH0 DUP3 GT JUMPDEST PUSH2 0x5AF JUMPI PUSH1 0x40 MLOAD PUSH3 0x461BCD PUSH1 0xE5 SHL DUP2 MSTORE PUSH1 0x20 PUSH1 0x4 DUP3 ADD MSTORE PUSH1 0x11 PUSH1 0x24 DUP3 ADD MSTORE PUSH17 0x141BDBDB0E881E995C9BC8185B5BDD5B9D PUSH1 0x7A SHL PUSH1 0x44 DUP3 ADD MSTORE PUSH1 0x64 ADD PUSH2 0x558 JUMP JUMPDEST PUSH0 PUSH2 0x5B9 PUSH1 0x2 SLOAD SWAP1 JUMP JUMPDEST SWAP1 POP DUP1 PUSH0 SUB PUSH2 0x5DB JUMPI PUSH2 0x5D4 PUSH2 0x5CF DUP5 CALLVALUE PUSH2 0x1689 JUMP JUMPDEST PUSH2 0x1193 JUMP JUMPDEST SWAP2 POP PUSH2 0x626 JUMP JUMPDEST PUSH1 0x7 SLOAD PUSH0 SWAP1 PUSH2 0x5EA DUP4 CALLVALUE PUSH2 0x1689 JUMP JUMPDEST PUSH2 0x5F4 SWAP2 SWAP1 PUSH2 0x16A0 JUMP JUMPDEST SWAP1 POP PUSH0 PUSH1 0x8 SLOAD DUP4 DUP7 PUSH2 0x606 SWAP2 SWAP1 PUSH2 0x1689 JUMP JUMPDEST PUSH2 0x610 SWAP2 SWAP1 PUSH2 0x16A0 JUMP JUMPDEST SWAP1 POP DUP1 DUP3 LT PUSH2 0x61F JUMPI DUP1 PUSH2 0x621 JUMP JUMPDEST DUP2 JUMPDEST SWAP4 POP POP POP JUMPDEST PUSH0 DUP3 GT PUSH2 0x681 JUMPI PUSH1 0x40 MLOAD PUSH3 0x461BCD PUSH1 0xE5 SHL DUP2 MSTORE PUSH1 0x20 PUSH1 0x4 DUP3 ADD MSTORE PUSH1 0x23 PUSH1 0x24 DUP3 ADD MSTORE PUSH32 0x506F6F6C3A20696E73756666696369656E74206C6971756964697479206D696E PUSH1 0x44 DUP3 ADD MSTORE PUSH3 0x1D1959 PUSH1 0xEA SHL PUSH1 0x64 DUP3 ADD MSTORE PUSH1 0x84 ADD PUSH2 0x558 JUMP JUMPDEST PUSH1 0x6 SLOAD PUSH1 0x40 MLOAD PUSH4 0x23B872DD PUSH1 0xE0 SHL DUP2 MSTORE CALLER PUSH1 0x4 DUP3 ADD MSTORE ADDRESS PUSH1 0x24 DUP3 ADD MSTORE PUSH1 0x44 DUP2 ADD DUP6 SWAP1 MSTORE PUSH1 0x1 PUSH1 0x1 PUSH1 0xA0 SHL SUB SWAP1 SWAP2 AND SWAP1 PUSH4 0x23B872DD SWAP1 PUSH1 0x64 ADD PUSH1 0x20 PUSH1 0x40 MLOAD DUP1 DUP4 SUB DUP2 PUSH0 DUP8 GAS CALL ISZERO DUP1 ISZERO PUSH2 0x6D5 JUMPI RETURNDATASIZE PUSH0 DUP1 RETURNDATACOPY RETURNDATASIZE PUSH0 REVERT JUMPDEST POP POP POP POP PUSH1 0x40 MLOAD RETURNDATASIZE PUSH1 0x1F NOT PUSH1 0x1F DUP3 ADD AND DUP3 ADD DUP1 PUSH1 0x40 MSTORE POP DUP2 ADD SWAP1 PUSH2 0x6F9 SWAP2 SWAP1 PUSH2 0x16BF JUMP JUMPDEST POP CALLVALUE PUSH1 0x7 PUSH0 DUP3 DUP3 SLOAD PUSH2 0x70B SWAP2 SWAP1 PUSH2 0x16DE JUMP JUMPDEST SWAP3 POP POP DUP2 SWAP1 SSTORE POP DUP3 PUSH1 0x8 PUSH0 DUP3 DUP3 SLOAD PUSH2 0x723 SWAP2 SWAP1 PUSH2 0x16DE JUMP JUMPDEST SWAP1 SWAP2 SSTORE POP PUSH2 0x733 SWAP1 POP CALLER DUP4 PUSH2 0x1200 JUMP JUMPDEST PUSH1 0x40 DUP1 MLOAD CALLVALUE DUP2 MSTORE PUSH1 0x20 DUP2 ADD DUP6 SWAP1 MSTORE SWAP1 DUP2 ADD DUP4 SWAP1 MSTORE CALLER SWAP1 PUSH32 0x64B83944E79C3CE8D4C297411DE637C3E102D064677AAC0C163976EBDCD6F50E SWAP1 PUSH1 0x60 ADD PUSH1 0x40 MLOAD DUP1 SWAP2 SUB SWAP1 LOG2 POP PUSH2 0x78D PUSH1 0x1 PUSH0 DUP1 MLOAD PUSH1 0x20 PUSH2 0x1705 DUP4 CODECOPY DUP2 MLOAD SWAP2 MSTORE SSTORE JUMP JUMPDEST SWAP2 SWAP1 POP JUMP JUMPDEST PUSH2 0x79A PUSH2 0x1238 JUMP JUMPDEST PUSH2 0x7A3 PUSH0 PUSH2 0x1265 JUMP JUMPDEST JUMP JUMPDEST PUSH0 PUSH1 0x7 SLOAD PUSH0 EQ DUP1 PUSH2 0x7B6 JUMPI POP PUSH1 0x8 SLOAD ISZERO JUMPDEST ISZERO PUSH2 0x7C2 JUMPI POP PUSH0 SWAP2 SWAP1 POP JUMP JUMPDEST PUSH0 PUSH2 0x7CF PUSH2 0x3E5 DUP5 PUSH2 0x1689 JUMP JUMPDEST SWAP1 POP DUP1 PUSH2 0x3E8 PUSH1 0x7 SLOAD PUSH2 0x7E2 SWAP2 SWAP1 PUSH2 0x1689 JUMP JUMPDEST PUSH2 0x7EC SWAP2 SWAP1 PUSH2 0x16DE JUMP JUMPDEST PUSH1 0x8 SLOAD PUSH2 0x7F9 SWAP1 DUP4 PUSH2 0x1689 JUMP JUMPDEST PUSH2 0x803 SWAP2 SWAP1 PUSH2 0x16A0 JUMP JUMPDEST SWAP4 SWAP3 POP POP POP JUMP JUMPDEST PUSH1 0x60 PUSH1 0x4 DUP1 SLOAD PUSH2 0x446 SWAP1 PUSH2 0x1643 JUMP JUMPDEST PUSH0 PUSH1 0x7 SLOAD PUSH0 EQ DUP1 PUSH2 0x82A JUMPI POP PUSH1 0x8 SLOAD ISZERO JUMPDEST ISZERO PUSH2 0x836 JUMPI POP PUSH0 SWAP2 SWAP1 POP JUMP JUMPDEST PUSH0 PUSH2 0x843 PUSH2 0x3E5 DUP5 PUSH2 0x1689 JUMP JUMPDEST SWAP1 POP DUP1 PUSH2 0x3E8 PUSH1 0x8 SLOAD PUSH2 0x856 SWAP2 SWAP1 PUSH2 0x1689 JUMP JUMPDEST PUSH2 0x860 SWAP2 SWAP1 PUSH2 0x16DE JUMP JUMPDEST PUSH1 0x7 SLOAD PUSH2 0x7F9 SWAP1 DUP4 PUSH2 0x1689 JUMP JUMPDEST PUSH0 DUP1 PUSH2 0x877 PUSH2 0x1178 JUMP JUMPDEST PUSH0 DUP4 GT PUSH2 0x8B6 JUMPI PUSH1 0x40 MLOAD PUSH3 0x461BCD PUSH1 0xE5 SHL DUP2 MSTORE PUSH1 0x20 PUSH1 0x4 DUP3 ADD MSTORE PUSH1 0xD PUSH1 0x24 DUP3 ADD MSTORE PUSH13 0x506F6F6C3A207A65726F206C7 PUSH1 0x9C SHL PUSH1 0x44 DUP3 ADD MSTORE PUSH1 0x64 ADD PUSH2 0x558 JUMP JUMPDEST PUSH0 PUSH2 0x8C0 PUSH1 0x2 SLOAD SWAP1 JUMP JUMPDEST SWAP1 POP DUP1 PUSH1 0x7 SLOAD DUP6 PUSH2 0x8D1 SWAP2 SWAP1 PUSH2 0x1689 JUMP JUMPDEST PUSH2 0x8DB SWAP2 SWAP1 PUSH2 0x16A0 JUMP JUMPDEST SWAP3 POP DUP1 PUSH1 0x8 SLOAD DUP6 PUSH2 0x8EC SWAP2 SWAP1 PUSH2 0x1689 JUMP JUMPDEST PUSH2 0x8F6 SWAP2 SWAP1 PUSH2 0x16A0 JUMP JUMPDEST SWAP2 POP PUSH0 DUP4 GT DUP1 ISZERO PUSH2 0x906 JUMPI POP PUSH0 DUP3 GT JUMPDEST PUSH2 0x952 JUMPI PUSH1 0x40 MLOAD PUSH3 0x461BCD PUSH1 0xE5 SHL DUP2 MSTORE PUSH1 0x20 PUSH1 0x4 DUP3 ADD MSTORE PUSH1 0x1B PUSH1 0x24 DUP3 ADD MSTORE PUSH32 0x506F6F6C3A20696E73756666696369656E742072657365727665730000000000 PUSH1 0x44 DUP3 ADD MSTORE PUSH1 0x64 ADD PUSH2 0x558 JUMP JUMPDEST PUSH2 0x95C CALLER DUP6 PUSH2 0x12B6 JUMP JUMPDEST DUP3 PUSH1 0x7 PUSH0 DUP3 DUP3 SLOAD PUSH2 0x96D SWAP2 SWAP1 PUSH2 0x16F1 JUMP JUMPDEST SWAP3 POP POP DUP2 SWAP1 SSTORE POP DUP2 PUSH1 0x8 PUSH0 DUP3 DUP3 SLOAD PUSH2 0x985 SWAP2 SWAP1 PUSH2 0x16F1 JUMP JUMPDEST SWAP1 SWAP2 SSTORE POP POP PUSH1 0x6 SLOAD PUSH1 0x40 MLOAD PUSH4 0xA9059CBB PUSH1 0xE0 SHL DUP2 MSTORE CALLER PUSH1 0x4 DUP3 ADD MSTORE PUSH1 0x24 DUP2 ADD DUP5 SWAP1 MSTORE PUSH1 0x1 PUSH1 0x1 PUSH1 0xA0 SHL SUB SWAP1 SWAP2 AND SWAP1 PUSH4 0xA9059CBB SWAP1 PUSH1 0x44 ADD PUSH1 0x20 PUSH1 0x40 MLOAD DUP1 DUP4 SUB DUP2 PUSH0 DUP8 GAS CALL ISZERO DUP1 ISZERO PUSH2 0x9D8 JUMPI RETURNDATASIZE PUSH0 DUP1 RETURNDATACOPY RETURNDATASIZE PUSH0 REVERT JUMPDEST POP POP POP POP PUSH1 0x40 MLOAD RETURNDATASIZE PUSH1 0x1F NOT PUSH1 0x1F DUP3 ADD AND DUP3 ADD DUP1 PUSH1 0x40 MSTORE POP DUP2 ADD SWAP1 PUSH2 0x9FC SWAP2 SWAP1 PUSH2 0x16BF JUMP JUMPDEST POP PUSH1 0x40 MLOAD PUSH0 SWAP1 CALLER SWAP1 DUP6 SWAP1 DUP4 DUP2 DUP2 DUP2 DUP6 DUP8 GAS CALL SWAP3 POP POP POP RETURNDATASIZE DUP1 PUSH0 DUP2 EQ PUSH2 0xA3C JUMPI PUSH1 0x40 MLOAD SWAP2 POP PUSH1 0x1F NOT PUSH1 0x3F RETURNDATASIZE ADD AND DUP3 ADD PUSH1 0x40 MSTORE RETURNDATASIZE DUP3 MSTORE RETURNDATASIZE PUSH0 PUSH1 0x20 DUP5 ADD RETURNDATACOPY PUSH2 0xA41 JUMP JUMPDEST PUSH1 0x60 SWAP2 POP JUMPDEST POP POP SWAP1 POP DUP1 PUSH2 0xA8E JUMPI PUSH1 0x40 MLOAD PUSH3 0x461BCD PUSH1 0xE5 SHL DUP2 MSTORE PUSH1 0x20 PUSH1 0x4 DUP3 ADD MSTORE PUSH1 0x19 PUSH1 0x24 DUP3 ADD MSTORE PUSH25 0x141BDBDB0E88115512081D1C985B9CD9995C8819985A5B1959 PUSH1 0x3A SHL PUSH1 0x44 DUP3 ADD MSTORE PUSH1 0x64 ADD PUSH2 0x558 JUMP JUMPDEST PUSH1 0x40 DUP1 MLOAD DUP6 DUP2 MSTORE PUSH1 0x20 DUP2 ADD DUP6 SWAP1 MSTORE SWAP1 DUP2 ADD DUP7 SWAP1 MSTORE CALLER SWAP1 PUSH32 0x1DC8BB69DF2B8E91FBDCBFCF93D951B3F0000F085A95FE3F7946D6161439245D SWAP1 PUSH1 0x60 ADD PUSH1 0x40 MLOAD DUP1 SWAP2 SUB SWAP1 LOG2 POP POP PUSH2 0xAE9 PUSH1 0x1 PUSH0 DUP1 MLOAD PUSH1 0x20 PUSH2 0x1705 DUP4 CODECOPY DUP2 MLOAD SWAP2 MSTORE SSTORE JUMP JUMPDEST SWAP2 POP SWAP2 JUMP JUMPDEST PUSH2 0xAF6 PUSH2 0x1238 JUMP JUMPDEST PUSH1 0x1 PUSH1 0x1 PUSH1 0xA0 SHL SUB DUP2 AND PUSH2 0xB41 JUMPI PUSH1 0x40 MLOAD PUSH3 0x461BCD PUSH1 0xE5 SHL DUP2 MSTORE PUSH1 0x20 PUSH1 0x4 DUP3 ADD MSTORE PUSH1 0x12 PUSH1 0x24 DUP3 ADD MSTORE PUSH18 0x506F6F6C3A207A65726F2061646472657373 PUSH1 0x70 SHL PUSH1 0x44 DUP3 ADD MSTORE PUSH1 0x64 ADD PUSH2 0x558 JUMP JUMPDEST PUSH1 0x6 DUP1 SLOAD PUSH1 0x1 PUSH1 0x1 PUSH1 0xA0 SHL SUB NOT AND PUSH1 0x1 PUSH1 0x1 PUSH1 0xA0 SHL SUB SWAP3 SWAP1 SWAP3 AND SWAP2 SWAP1 SWAP2 OR SWAP1 SSTORE JUMP JUMPDEST PUSH0 CALLER PUSH2 0x4D4 DUP2 DUP6 DUP6 PUSH2 0x111B JUMP JUMPDEST PUSH0 PUSH2 0xB79 PUSH2 0x1178 JUMP JUMPDEST PUSH0 DUP3 GT PUSH2 0xBB8 JUMPI PUSH1 0x40 MLOAD PUSH3 0x461BCD PUSH1 0xE5 SHL DUP2 MSTORE PUSH1 0x20 PUSH1 0x4 DUP3 ADD MSTORE PUSH1 0xD PUSH1 0x24 DUP3 ADD MSTORE PUSH13 0x2837B7B61D103D32B9379034B7 PUSH1 0x99 SHL PUSH1 0x44 DUP3 ADD MSTORE PUSH1 0x64 ADD PUSH2 0x558 JUMP JUMPDEST PUSH1 0x6 SLOAD PUSH1 0x40 MLOAD PUSH4 0x23B872DD PUSH1 0xE0 SHL DUP2 MSTORE CALLER PUSH1 0x4 DUP3 ADD MSTORE ADDRESS PUSH1 0x24 DUP3 ADD MSTORE PUSH1 0x44 DUP2 ADD DUP5 SWAP1 MSTORE PUSH1 0x1 PUSH1 0x1 PUSH1 0xA0 SHL SUB SWAP1 SWAP2 AND SWAP1 PUSH4 0x23B872DD SWAP1 PUSH1 0x64 ADD PUSH1 0x20 PUSH1 0x40 MLOAD DUP1 DUP4 SUB DUP2 PUSH0 DUP8 GAS CALL ISZERO DUP1 ISZERO PUSH2 0xC0C JUMPI RETURNDATASIZE PUSH0 DUP1 RETURNDATACOPY RETURNDATASIZE PUSH0 REVERT JUMPDEST POP POP POP POP PUSH1 0x40 MLOAD RETURNDATASIZE PUSH1 0x1F NOT PUSH1 0x1F DUP3 ADD AND DUP3 ADD DUP1 PUSH1 0x40 MSTORE POP DUP2 ADD SWAP1 PUSH2 0xC30 SWAP2 SWAP1 PUSH2 0x16BF JUMP JUMPDEST POP PUSH0 PUSH2 0xC3E PUSH2 0x3E5 DUP5 PUSH2 0x1689 JUMP JUMPDEST SWAP1 POP DUP1 PUSH2 0x3E8 PUSH1 0x8 SLOAD PUSH2 0xC51 SWAP2 SWAP1 PUSH2 0x1689 JUMP JUMPDEST PUSH2 0xC5B SWAP2 SWAP1 PUSH2 0x16DE JUMP JUMPDEST PUSH1 0x7 SLOAD PUSH2 0xC68 SWAP1 DUP4 PUSH2 0x1689 JUMP JUMPDEST PUSH2 0xC72 SWAP2 SWAP1 PUSH2 0x16A0 JUMP JUMPDEST SWAP2 POP PUSH0 DUP3 GT PUSH2 0xCBF JUMPI PUSH1 0x40 MLOAD PUSH3 0x461BCD PUSH1 0xE5 SHL DUP2 MSTORE PUSH1 0x20 PUSH1 0x4 DUP3 ADD MSTORE PUSH1 0x19 PUSH1 0x24 DUP3 ADD MSTORE PUSH25 0x141BDBDB0E881A5B9CDD59999A58DA595B9D081BDD5D1C1D5D PUSH1 0x3A SHL PUSH1 0x44 DUP3 ADD MSTORE PUSH1 0x64 ADD PUSH2 0x558 JUMP JUMPDEST PUSH1 0x7 SLOAD DUP3 LT PUSH2 0xD10 JUMPI PUSH1 0x40 MLOAD PUSH3 0x461BCD PUSH1 0xE5 SHL DUP2 MSTORE PUSH1 0x20 PUSH1 0x4 DUP3 ADD MSTORE PUSH1 0x1C PUSH1 0x24 DUP3 ADD MSTORE PUSH32 0x506F6F6C3A20696E73756666696369656E74206C697175696469747900000000 PUSH1 0x44 DUP3 ADD MSTORE PUSH1 0x64 ADD PUSH2 0x558 JUMP JUMPDEST DUP3 PUSH1 0x8 PUSH0 DUP3 DUP3 SLOAD PUSH2 0xD21 SWAP2 SWAP1 PUSH2 0x16DE JUMP JUMPDEST SWAP3 POP POP DUP2 SWAP1 SSTORE POP DUP2 PUSH1 0x7 PUSH0 DUP3 DUP3 SLOAD PUSH2 0xD39 SWAP2 SWAP1 PUSH2 0x16F1 JUMP JUMPDEST SWAP1 SWAP2 SSTORE POP POP PUSH1 0x40 MLOAD PUSH0 SWAP1 CALLER SWAP1 DUP5 SWAP1 DUP4 DUP2 DUP2 DUP2 DUP6 DUP8 GAS CALL SWAP3 POP POP POP RETURNDATASIZE DUP1 PUSH0 DUP2 EQ PUSH2 0xD7D JUMPI PUSH1 0x40 MLOAD SWAP2 POP PUSH1 0x1F NOT PUSH1 0x3F RETURNDATASIZE ADD AND DUP3 ADD PUSH1 0x40 MSTORE RETURNDATASIZE DUP3 MSTORE RETURNDATASIZE PUSH0 PUSH1 0x20 DUP5 ADD RETURNDATACOPY PUSH2 0xD82 JUMP JUMPDEST PUSH1 0x60 SWAP2 POP JUMPDEST POP POP SWAP1 POP DUP1 PUSH2 0xDCF JUMPI PUSH1 0x40 MLOAD PUSH3 0x461BCD PUSH1 0xE5 SHL DUP2 MSTORE PUSH1 0x20 PUSH1 0x4 DUP3 ADD MSTORE PUSH1 0x19 PUSH1 0x24 DUP3 ADD MSTORE PUSH25 0x141BDBDB0E88115512081D1C985B9CD9995C8819985A5B1959 PUSH1 0x3A SHL PUSH1 0x44 DUP3 ADD MSTORE PUSH1 0x64 ADD PUSH2 0x558 JUMP JUMPDEST PUSH1 0x6 SLOAD PUSH1 0x40 DUP1 MLOAD DUP7 DUP2 MSTORE PUSH1 0x20 DUP2 ADD DUP7 SWAP1 MSTORE PUSH1 0x1 PUSH1 0x1 PUSH1 0xA0 SHL SUB SWAP1 SWAP3 AND SWAP2 CALLER SWAP2 PUSH32 0xFA2DDA1CC1B86E41239702756B13EFFBC1A092B5C57E3AD320FBE4F3B13FE235 SWAP2 ADD PUSH1 0x40 MLOAD DUP1 SWAP2 SUB SWAP1 LOG3 POP POP PUSH2 0x78D PUSH1 0x1 PUSH0 DUP1 MLOAD PUSH1 0x20 PUSH2 0x1705 DUP4 CODECOPY DUP2 MLOAD SWAP2 MSTORE SSTORE JUMP JUMPDEST PUSH0 PUSH2 0xE3A PUSH2 0x1178 JUMP JUMPDEST PUSH0 CALLVALUE GT PUSH2 0xE79 JUMPI PUSH1 0x40 MLOAD PUSH3 0x461BCD PUSH1 0xE5 SHL DUP2 MSTORE PUSH1 0x20 PUSH1 0x4 DUP3 ADD MSTORE PUSH1 0xD PUSH1 0x24 DUP3 ADD MSTORE PUSH13 0x2837B7B61D103D32B9379034B7 PUSH1 0x99 SHL PUSH1 0x44 DUP3 ADD MSTORE PUSH1 0x64 ADD PUSH2 0x558 JUMP JUMPDEST PUSH0 PUSH2 0xE86 PUSH2 0x3E5 CALLVALUE PUSH2 0x1689 JUMP JUMPDEST SWAP1 POP DUP1 PUSH2 0x3E8 PUSH1 0x7 SLOAD PUSH2 0xE99 SWAP2 SWAP1 PUSH2 0x1689 JUMP JUMPDEST PUSH2 0xEA3 SWAP2 SWAP1 PUSH2 0x16DE JUMP JUMPDEST PUSH1 0x8 SLOAD PUSH2 0xEB0 SWAP1 DUP4 PUSH2 0x1689 JUMP JUMPDEST PUSH2 0xEBA SWAP2 SWAP1 PUSH2 0x16A0 JUMP JUMPDEST SWAP2 POP PUSH0 DUP3 GT PUSH2 0xF07 JUMPI PUSH1 0x40 MLOAD PUSH3 0x461BCD PUSH1 0xE5 SHL DUP2 MSTORE PUSH1 0x20 PUSH1 0x4 DUP3 ADD MSTORE PUSH1 0x19 PUSH1 0x24 DUP3 ADD MSTORE PUSH25 0x141BDBDB0E881A5B9CDD59999A58DA595B9D081BDD5D1C1D5D PUSH1 0x3A SHL PUSH1 0x44 DUP3 ADD MSTORE PUSH1 0x64 ADD PUSH2 0x558 JUMP JUMPDEST PUSH1 0x8 SLOAD DUP3 LT PUSH2 0xF58 JUMPI PUSH1 0x40 MLOAD PUSH3 0x461BCD PUSH1 0xE5 SHL DUP2 MSTORE PUSH1 0x20 PUSH1 0x4 DUP3 ADD MSTORE PUSH1 0x1C PUSH1 0x24 DUP3 ADD MSTORE PUSH32 0x506F6F6C3A20696E73756666696369656E74206C697175696469747900000000 PUSH1 0x44 DUP3 ADD MSTORE PUSH1 0x64 ADD PUSH2 0x558 JUMP JUMPDEST CALLVALUE PUSH1 0x7 PUSH0 DUP3 DUP3 SLOAD PUSH2 0xF69 SWAP2 SWAP1 PUSH2 0x16DE JUMP JUMPDEST SWAP3 POP POP DUP2 SWAP1 SSTORE POP DUP2 PUSH1 0x8 PUSH0 DUP3 DUP3 SLOAD PUSH2 0xF81 SWAP2 SWAP1 PUSH2 0x16F1 JUMP JUMPDEST SWAP1 SWAP2 SSTORE POP POP PUSH1 0x6 SLOAD PUSH1 0x40 MLOAD PUSH4 0xA9059CBB PUSH1 0xE0 SHL DUP2 MSTORE CALLER PUSH1 0x4 DUP3 ADD MSTORE PUSH1 0x24 DUP2 ADD DUP5 SWAP1 MSTORE PUSH1 0x1 PUSH1 0x1 PUSH1 0xA0 SHL SUB SWAP1 SWAP2 AND SWAP1 PUSH4 0xA9059CBB SWAP1 PUSH1 0x44 ADD PUSH1 0x20 PUSH1 0x40 MLOAD DUP1 DUP4 SUB DUP2 PUSH0 DUP8 GAS CALL ISZERO DUP1 ISZERO PUSH2 0xFD4 JUMPI RETURNDATASIZE PUSH0 DUP1 RETURNDATACOPY RETURNDATASIZE PUSH0 REVERT JUMPDEST POP POP POP POP PUSH1 0x40 MLOAD RETURNDATASIZE PUSH1 0x1F NOT PUSH1 0x1F DUP3 ADD AND DUP3 ADD DUP1 PUSH1 0x40 MSTORE POP DUP2 ADD SWAP1 PUSH2 0xFF8 SWAP2 SWAP1 PUSH2 0x16BF JUMP JUMPDEST POP PUSH1 0x40 DUP1 MLOAD CALLVALUE DUP2 MSTORE PUSH1 0x20 DUP2 ADD DUP5 SWAP1 MSTORE PUSH0 SWAP2 CALLER SWAP2 PUSH32 0xFA2DDA1CC1B86E41239702756B13EFFBC1A092B5C57E3AD320FBE4F3B13FE235 SWAP2 ADD PUSH1 0x40 MLOAD DUP1 SWAP2 SUB SWAP1 LOG3 POP PUSH2 0x104D PUSH1 0x1 PUSH0 DUP1 MLOAD PUSH1 0x20 PUSH2 0x1705 DUP4 CODECOPY DUP2 MLOAD SWAP2 MSTORE SSTORE JUMP JUMPDEST SWAP1 JUMP JUMPDEST PUSH2 0x1058 PUSH2 0x1238 JUMP JUMPDEST PUSH1 0x1 PUSH1 0x1 PUSH1 0xA0 SHL SUB DUP2 AND PUSH2 0x1081 JUMPI PUSH1 0x40 MLOAD PUSH4 0x1E4FBDF7 PUSH1 0xE0 SHL DUP2 MSTORE PUSH0 PUSH1 0x4 DUP3 ADD MSTORE PUSH1 0x24 ADD PUSH2 0x558 JUMP JUMPDEST PUSH2 0x108A DUP2 PUSH2 0x1265 JUMP JUMPDEST POP JUMP JUMPDEST PUSH2 0x109A DUP4 DUP4 DUP4 PUSH1 0x1 PUSH2 0x12EA JUMP JUMPDEST POP POP POP JUMP JUMPDEST PUSH1 0x1 PUSH1 0x1 PUSH1 0xA0 SHL SUB DUP4 DUP2 AND PUSH0 SWAP1 DUP2 MSTORE PUSH1 0x1 PUSH1 0x20 SWAP1 DUP2 MSTORE PUSH1 0x40 DUP1 DUP4 KECCAK256 SWAP4 DUP7 AND DUP4 MSTORE SWAP3 SWAP1 MSTORE KECCAK256 SLOAD PUSH0 NOT DUP2 LT ISZERO PUSH2 0x1115 JUMPI DUP2 DUP2 LT ISZERO PUSH2 0x1107 JUMPI PUSH1 0x40 MLOAD PUSH4 0x7DC7A0D9 PUSH1 0xE1 SHL DUP2 MSTORE PUSH1 0x1 PUSH1 0x1 PUSH1 0xA0 SHL SUB DUP5 AND PUSH1 0x4 DUP3 ADD MSTORE PUSH1 0x24 DUP2 ADD DUP3 SWAP1 MSTORE PUSH1 0x44 DUP2 ADD DUP4 SWAP1 MSTORE PUSH1 0x64 ADD PUSH2 0x558 JUMP JUMPDEST PUSH2 0x1115 DUP5 DUP5 DUP5 DUP5 SUB PUSH0 PUSH2 0x12EA JUMP JUMPDEST POP POP POP POP JUMP JUMPDEST PUSH1 0x1 PUSH1 0x1 PUSH1 0xA0 SHL SUB DUP4 AND PUSH2 0x1144 JUMPI PUSH1 0x40 MLOAD PUSH4 0x4B637E8F PUSH1 0xE1 SHL DUP2 MSTORE PUSH0 PUSH1 0x4 DUP3 ADD MSTORE PUSH1 0x24 ADD PUSH2 0x558 JUMP JUMPDEST PUSH1 0x1 PUSH1 0x1 PUSH1 0xA0 SHL SUB DUP3 AND PUSH2 0x116D JUMPI PUSH1 0x40 MLOAD PUSH4 0xEC442F05 PUSH1 0xE0 SHL DUP2 MSTORE PUSH0 PUSH1 0x4 DUP3 ADD MSTORE PUSH1 0x24 ADD PUSH2 0x558 JUMP JUMPDEST PUSH2 0x109A DUP4 DUP4 DUP4 PUSH2 0x13BC JUMP JUMPDEST PUSH2 0x1180 PUSH2 0x14E2 JUMP JUMPDEST PUSH1 0x2 PUSH0 DUP1 MLOAD PUSH1 0x20 PUSH2 0x1705 DUP4 CODECOPY DUP2 MLOAD SWAP2 MSTORE SSTORE JUMP JUMPDEST PUSH0 PUSH1 0x3 DUP3 GT ISZERO PUSH2 0x11F2 JUMPI POP DUP1 PUSH0 PUSH2 0x11AB PUSH1 0x2 DUP4 PUSH2 0x16A0 JUMP JUMPDEST PUSH2 0x11B6 SWAP1 PUSH1 0x1 PUSH2 0x16DE JUMP JUMPDEST SWAP1 POP JUMPDEST DUP2 DUP2 LT ISZERO PUSH2 0x11EC JUMPI SWAP1 POP DUP1 PUSH1 0x2 DUP2 PUSH2 0x11D1 DUP2 DUP7 PUSH2 0x16A0 JUMP JUMPDEST PUSH2 0x11DB SWAP2 SWAP1 PUSH2 0x16DE JUMP JUMPDEST PUSH2 0x11E5 SWAP2 SWAP1 PUSH2 0x16A0 JUMP JUMPDEST SWAP1 POP PUSH2 0x11B9 JUMP JUMPDEST POP SWAP2 SWAP1 POP JUMP JUMPDEST DUP2 ISZERO PUSH2 0x78D JUMPI POP PUSH1 0x1 SWAP2 SWAP1 POP JUMP JUMPDEST PUSH1 0x1 PUSH1 0x1 PUSH1 0xA0 SHL SUB DUP3 AND PUSH2 0x1229 JUMPI PUSH1 0x40 MLOAD PUSH4 0xEC442F05 PUSH1 0xE0 SHL DUP2 MSTORE PUSH0 PUSH1 0x4 DUP3 ADD MSTORE PUSH1 0x24 ADD PUSH2 0x558 JUMP JUMPDEST PUSH2 0x1234 PUSH0 DUP4 DUP4 PUSH2 0x13BC JUMP JUMPDEST POP POP JUMP JUMPDEST PUSH1 0x5 SLOAD PUSH1 0x1 PUSH1 0x1 PUSH1 0xA0 SHL SUB AND CALLER EQ PUSH2 0x7A3 JUMPI PUSH1 0x40 MLOAD PUSH4 0x118CDAA7 PUSH1 0xE0 SHL DUP2 MSTORE CALLER PUSH1 0x4 DUP3 ADD MSTORE PUSH1 0x24 ADD PUSH2 0x558 JUMP JUMPDEST PUSH1 0x5 DUP1 SLOAD PUSH1 0x1 PUSH1 0x1 PUSH1 0xA0 SHL SUB DUP4 DUP2 AND PUSH1 0x1 PUSH1 0x1 PUSH1 0xA0 SHL SUB NOT DUP4 AND DUP2 OR SWAP1 SWAP4 SSTORE PUSH1 0x40 MLOAD SWAP2 AND SWAP2 SWAP1 DUP3 SWAP1 PUSH32 0x8BE0079C531659141344CD1FD0A4F28419497F9722A3DAAFE3B4186F6B6457E0 SWAP1 PUSH0 SWAP1 LOG3 POP POP JUMP JUMPDEST PUSH1 0x1 PUSH1 0x1 PUSH1 0xA0 SHL SUB DUP3 AND PUSH2 0x12DF JUMPI PUSH1 0x40 MLOAD PUSH4 0x4B637E8F PUSH1 0xE1 SHL DUP2 MSTORE PUSH0 PUSH1 0x4 DUP3 ADD MSTORE PUSH1 0x24 ADD PUSH2 0x558 JUMP JUMPDEST PUSH2 0x1234 DUP3 PUSH0 DUP4 PUSH2 0x13BC JUMP JUMPDEST PUSH1 0x1 PUSH1 0x1 PUSH1 0xA0 SHL SUB DUP5 AND PUSH2 0x1313 JUMPI PUSH1 0x40 MLOAD PUSH4 0xE602DF05 PUSH1 0xE0 SHL DUP2 MSTORE PUSH0 PUSH1 0x4 DUP3 ADD MSTORE PUSH1 0x24 ADD PUSH2 0x558 JUMP JUMPDEST PUSH1 0x1 PUSH1 0x1 PUSH1 0xA0 SHL SUB DUP4 AND PUSH2 0x133C JUMPI PUSH1 0x40 MLOAD PUSH4 0x4A1406B1 PUSH1 0xE1 SHL DUP2 MSTORE PUSH0 PUSH1 0x4 DUP3 ADD MSTORE PUSH1 0x24 ADD PUSH2 0x558 JUMP JUMPDEST PUSH1 0x1 PUSH1 0x1 PUSH1 0xA0 SHL SUB DUP1 DUP6 AND PUSH0 SWAP1 DUP2 MSTORE PUSH1 0x1 PUSH1 0x20 SWAP1 DUP2 MSTORE PUSH1 0x40 DUP1 DUP4 KECCAK256 SWAP4 DUP8 AND DUP4 MSTORE SWAP3 SWAP1 MSTORE KECCAK256 DUP3 SWAP1 SSTORE DUP1 ISZERO PUSH2 0x1115 JUMPI DUP3 PUSH1 0x1 PUSH1 0x1 PUSH1 0xA0 SHL SUB AND DUP5 PUSH1 0x1 PUSH1 0x1 PUSH1 0xA0 SHL SUB AND PUSH32 0x8C5BE1E5EBEC7D5BD14F71427D1E84F3DD0314C0F7B2291E5B200AC8C7C3B925 DUP5 PUSH1 0x40 MLOAD PUSH2 0x13AE SWAP2 DUP2 MSTORE PUSH1 0x20 ADD SWAP1 JUMP JUMPDEST PUSH1 0x40 MLOAD DUP1 SWAP2 SUB SWAP1 LOG3 POP POP POP POP JUMP JUMPDEST PUSH1 0x1 PUSH1 0x1 PUSH1 0xA0 SHL SUB DUP4 AND PUSH2 0x13E6 JUMPI DUP1 PUSH1 0x2 PUSH0 DUP3 DUP3 SLOAD PUSH2 0x13DB SWAP2 SWAP1 PUSH2 0x16DE JUMP JUMPDEST SWAP1 SWAP2 SSTORE POP PUSH2 0x1456 SWAP1 POP JUMP JUMPDEST PUSH1 0x1 PUSH1 0x1 PUSH1 0xA0 SHL SUB DUP4 AND PUSH0 SWAP1 DUP2 MSTORE PUSH1 0x20 DUP2 SWAP1 MSTORE PUSH1 0x40 SWAP1 KECCAK256 SLOAD DUP2 DUP2 LT ISZERO PUSH2 0x1438 JUMPI PUSH1 0x40 MLOAD PUSH4 0x391434E3 PUSH1 0xE2 SHL DUP2 MSTORE PUSH1 0x1 PUSH1 0x1 PUSH1 0xA0 SHL SUB DUP6 AND PUSH1 0x4 DUP3 ADD MSTORE PUSH1 0x24 DUP2 ADD DUP3 SWAP1 MSTORE PUSH1 0x44 DUP2 ADD DUP4 SWAP1 MSTORE PUSH1 0x64 ADD PUSH2 0x558 JUMP JUMPDEST PUSH1 0x1 PUSH1 0x1 PUSH1 0xA0 SHL SUB DUP5 AND PUSH0 SWAP1 DUP2 MSTORE PUSH1 0x20 DUP2 SWAP1 MSTORE PUSH1 0x40 SWAP1 KECCAK256 SWAP1 DUP3 SWAP1 SUB SWAP1 SSTORE JUMPDEST PUSH1 0x1 PUSH1 0x1 PUSH1 0xA0 SHL SUB DUP3 AND PUSH2 0x1472 JUMPI PUSH1 0x2 DUP1 SLOAD DUP3 SWAP1 SUB SWAP1 SSTORE PUSH2 0x1490 JUMP JUMPDEST PUSH1 0x1 PUSH1 0x1 PUSH1 0xA0 SHL SUB DUP3 AND PUSH0 SWAP1 DUP2 MSTORE PUSH1 0x20 DUP2 SWAP1 MSTORE PUSH1 0x40 SWAP1 KECCAK256 DUP1 SLOAD DUP3 ADD SWAP1 SSTORE JUMPDEST DUP2 PUSH1 0x1 PUSH1 0x1 PUSH1 0xA0 SHL SUB AND DUP4 PUSH1 0x1 PUSH1 0x1 PUSH1 0xA0 SHL SUB AND PUSH32 0xDDF252AD1BE2C89B69C2B068FC378DAA952BA7F163C4A11628F55A4DF523B3EF DUP4 PUSH1 0x40 MLOAD PUSH2 0x14D5 SWAP2 DUP2 MSTORE PUSH1 0x20 ADD SWAP1 JUMP JUMPDEST PUSH1 0x40 MLOAD DUP1 SWAP2 SUB SWAP1 LOG3 POP POP POP JUMP JUMPDEST PUSH2 0x14FB PUSH0 PUSH1 0x2 PUSH0 DUP1 MLOAD PUSH1 0x20 PUSH2 0x1705 DUP4 CODECOPY DUP2 MLOAD SWAP2 MSTORE PUSH2 0x1519 JUMP JUMPDEST ISZERO PUSH2 0x7A3 JUMPI PUSH1 0x40 MLOAD PUSH4 0x3EE5AEB5 PUSH1 0xE0 SHL DUP2 MSTORE PUSH1 0x4 ADD PUSH1 0x40 MLOAD DUP1 SWAP2 SUB SWAP1 REVERT JUMPDEST SLOAD EQ SWAP2 SWAP1 POP JUMP JUMPDEST PUSH0 PUSH1 0x20 DUP1 DUP4 MSTORE DUP4 MLOAD DUP1 DUP3 DUP6 ADD MSTORE PUSH0 JUMPDEST DUP2 DUP2 LT ISZERO PUSH2 0x154B JUMPI DUP6 DUP2 ADD DUP4 ADD MLOAD DUP6 DUP3 ADD PUSH1 0x40 ADD MSTORE DUP3 ADD PUSH2 0x152F JUMP JUMPDEST POP PUSH0 PUSH1 0x40 DUP3 DUP7 ADD ADD MSTORE PUSH1 0x40 PUSH1 0x1F NOT PUSH1 0x1F DUP4 ADD AND DUP6 ADD ADD SWAP3 POP POP POP SWAP3 SWAP2 POP POP JUMP JUMPDEST DUP1 CALLDATALOAD PUSH1 0x1 PUSH1 0x1 PUSH1 0xA0 SHL SUB DUP2 AND DUP2 EQ PUSH2 0x78D JUMPI PUSH0 DUP1 REVERT JUMPDEST PUSH0 DUP1 PUSH1 0x40 DUP4 DUP6 SUB SLT ISZERO PUSH2 0x1592 JUMPI PUSH0 DUP1 REVERT JUMPDEST PUSH2 0x159B DUP4 PUSH2 0x156B JUMP JUMPDEST SWAP5 PUSH1 0x20 SWAP4 SWAP1 SWAP4 ADD CALLDATALOAD SWAP4 POP POP POP JUMP JUMPDEST PUSH0 DUP1 PUSH0 PUSH1 0x60 DUP5 DUP7 SUB SLT ISZERO PUSH2 0x15BB JUMPI PUSH0 DUP1 REVERT JUMPDEST PUSH2 0x15C4 DUP5 PUSH2 0x156B JUMP JUMPDEST SWAP3 POP PUSH2 0x15D2 PUSH1 0x20 DUP6 ADD PUSH2 0x156B JUMP JUMPDEST SWAP2 POP PUSH1 0x40 DUP5 ADD CALLDATALOAD SWAP1 POP SWAP3 POP SWAP3 POP SWAP3 JUMP JUMPDEST PUSH0 PUSH1 0x20 DUP3 DUP5 SUB SLT ISZERO PUSH2 0x15F2 JUMPI PUSH0 DUP1 REVERT JUMPDEST POP CALLDATALOAD SWAP2 SWAP1 POP JUMP JUMPDEST PUSH0 PUSH1 0x20 DUP3 DUP5 SUB SLT ISZERO PUSH2 0x1609 JUMPI PUSH0 DUP1 REVERT JUMPDEST PUSH2 0x803 DUP3 PUSH2 0x156B JUMP JUMPDEST PUSH0 DUP1 PUSH1 0x40 DUP4 DUP6 SUB SLT ISZERO PUSH2 0x1623 JUMPI PUSH0 DUP1 REVERT JUMPDEST PUSH2 0x162C DUP4 PUSH2 0x156B JUMP JUMPDEST SWAP2 POP PUSH2 0x163A PUSH1 0x20 DUP5 ADD PUSH2 0x156B JUMP JUMPDEST SWAP1 POP SWAP3 POP SWAP3 SWAP1 POP JUMP JUMPDEST PUSH1 0x1 DUP2 DUP2 SHR SWAP1 DUP3 AND DUP1 PUSH2 0x1657 JUMPI PUSH1 0x7F DUP3 AND SWAP2 POP JUMPDEST PUSH1 0x20 DUP3 LT DUP2 SUB PUSH2 0x11EC JUMPI PUSH4 0x4E487B71 PUSH1 0xE0 SHL PUSH0 MSTORE PUSH1 0x22 PUSH1 0x4 MSTORE PUSH1 0x24 PUSH0 REVERT JUMPDEST PUSH4 0x4E487B71 PUSH1 0xE0 SHL PUSH0 MSTORE PUSH1 0x11 PUSH1 0x4 MSTORE PUSH1 0x24 PUSH0 REVERT JUMPDEST DUP1 DUP3 MUL DUP2 ISZERO DUP3 DUP3 DIV DUP5 EQ OR PUSH2 0x4DA JUMPI PUSH2 0x4DA PUSH2 0x1675 JUMP JUMPDEST PUSH0 DUP3 PUSH2 0x16BA JUMPI PUSH4 0x4E487B71 PUSH1 0xE0 SHL PUSH0 MSTORE PUSH1 0x12 PUSH1 0x4 MSTORE PUSH1 0x24 PUSH0 REVERT JUMPDEST POP DIV SWAP1 JUMP JUMPDEST PUSH0 PUSH1 0x20 DUP3 DUP5 SUB SLT ISZERO PUSH2 0x16CF JUMPI PUSH0 DUP1 REVERT JUMPDEST DUP2 MLOAD DUP1 ISZERO ISZERO DUP2 EQ PUSH2 0x803 JUMPI PUSH0 DUP1 REVERT JUMPDEST DUP1 DUP3 ADD DUP1 DUP3 GT ISZERO PUSH2 0x4DA JUMPI PUSH2 0x4DA PUSH2 0x1675 JUMP JUMPDEST DUP2 DUP2 SUB DUP2 DUP2 GT ISZERO PUSH2 0x4DA JUMPI PUSH2 0x4DA PUSH2 0x1675 JUMP INVALID SWAP12 PUSH24 0x9B17422D0DF92223018B32B4D1FA46E071723D6817E2486D STOP EXTCODESIZE 0xEC 0xC5 PUSH0 STOP LOG2 PUSH5 0x6970667358 0x22 SLT KECCAK256 GASLIMIT LOG2 SWAP15 0xEC 0xA5 SGT PUSH9 0xC09FA349642553667 0xDE 0xE6 STATICCALL DUP12 POP PUSH4 0x21E7AABE CALLDATACOPY PUSH17 0x9489704E64736F6C634300081400330000 "},"methodIdentifiers":{"addLiquidity(uint256)":"51c6590a","allowance(address,address)":"dd62ed3e","approve(address,uint256)":"095ea7b3","balanceOf(address)":"70a08231","decimals()":"313ce567","ethReserve()":"d62ccb3f","funReserve()":"85bd3bc2","funToken()":"845380a2","getReserves()":"0902f1ac","name()":"06fdde03","owner()":"8da5cb5b","quoteEthForFun(uint256)":"768e061c","quoteFunForEth(uint256)":"96120636","removeLiquidity(uint256)":"9c8f9f23","renounceOwnership()":"715018a6","setTokens(address)":"a639eb4d","swapEthForFun()":"da3b9f0f","swapFunForEth(uint256)":"c438b8bb","symbol()":"95d89b41","totalSupply()":"18160ddd","transfer(address,uint256)":"a9059cbb","transferFrom(address,address,uint256)":"23b872dd","transferOwnership(address)":"f2fde38b"}}}}}