{
  "_format": "hh3-artifact-1",
  "contractName": "GameHub",
  "sourceName": "contracts/GameHub.sol",
  "abi": [
    {
      "inputs": [],
      "stateMutability": "payable",
      "type": "constructor"
    },
    {
      "inputs": [
        {
          "internalType": "address",
          "name": "owner",
          "type": "address"
        }
      ],
      "name": "OwnableInvalidOwner",
      "type": "error"
    },
    {
      "inputs": [
        {
          "internalType": "address",
          "name": "account",
          "type": "address"
        }
      ],
      "name": "OwnableUnauthorizedAccount",
      "type": "error"
    },
    {
      "inputs": [],
      "name": "ReentrancyGuardReentrantCall",
      "type": "error"
    },
    {
      "anonymous": false,
      "inputs": [
        {
          "indexed": false,
          "internalType": "address",
          "name": "token",
          "type": "address"
        }
      ],
      "name": "FunTokenSet",
      "type": "event"
    },
    {
      "anonymous": false,
      "inputs": [
        {
          "indexed": true,
          "internalType": "address",
          "name": "by",
          "type": "address"
        },
        {
          "indexed": false,
          "internalType": "uint256",
          "name": "amount",
          "type": "uint256"
        }
      ],
      "name": "FundsDeposited",
      "type": "event"
    },
    {
      "anonymous": false,
      "inputs": [
        {
          "indexed": true,
          "internalType": "address",
          "name": "to",
          "type": "address"
        },
        {
          "indexed": false,
          "internalType": "uint256",
          "name": "amount",
          "type": "uint256"
        }
      ],
      "name": "FundsWithdrawn",
      "type": "event"
    },
    {
      "anonymous": false,
      "inputs": [
        {
          "indexed": true,
          "internalType": "address",
          "name": "player",
          "type": "address"
        },
        {
          "indexed": true,
          "internalType": "enum GameHub.GameType",
          "name": "game",
          "type": "uint8"
        },
        {
          "indexed": false,
          "internalType": "uint256",
          "name": "choice",
          "type": "uint256"
        },
        {
          "indexed": false,
          "internalType": "uint256",
          "name": "result",
          "type": "uint256"
        },
        {
          "indexed": false,
          "internalType": "bool",
          "name": "won",
          "type": "bool"
        },
        {
          "indexed": false,
          "internalType": "uint256",
          "name": "payout",
          "type": "uint256"
        },
        {
          "indexed": false,
          "internalType": "uint256",
          "name": "funRewarded",
          "type": "uint256"
        }
      ],
      "name": "GamePlayed",
      "type": "event"
    },
    {
      "anonymous": false,
      "inputs": [
        {
          "indexed": true,
          "internalType": "address",
          "name": "previousOwner",
          "type": "address"
        },
        {
          "indexed": true,
          "internalType": "address",
          "name": "newOwner",
          "type": "address"
        }
      ],
      "name": "OwnershipTransferred",
      "type": "event"
    },
    {
      "inputs": [],
      "name": "deposit",
      "outputs": [],
      "stateMutability": "payable",
      "type": "function"
    },
    {
      "inputs": [],
      "name": "funRewardRate",
      "outputs": [
        {
          "internalType": "uint256",
          "name": "",
          "type": "uint256"
        }
      ],
      "stateMutability": "view",
      "type": "function"
    },
    {
      "inputs": [],
      "name": "funToken",
      "outputs": [
        {
          "internalType": "contract IFunToken",
          "name": "",
          "type": "address"
        }
      ],
      "stateMutability": "view",
      "type": "function"
    },
    {
      "inputs": [],
      "name": "houseBalance",
      "outputs": [
        {
          "internalType": "uint256",
          "name": "",
          "type": "uint256"
        }
      ],
      "stateMutability": "view",
      "type": "function"
    },
    {
      "inputs": [],
      "name": "maxBet",
      "outputs": [
        {
          "internalType": "uint256",
          "name": "",
          "type": "uint256"
        }
      ],
      "stateMutability": "view",
      "type": "function"
    },
    {
      "inputs": [],
      "name": "minBet",
      "outputs": [
        {
          "internalType": "uint256",
          "name": "",
          "type": "uint256"
        }
      ],
      "stateMutability": "view",
      "type": "function"
    },
    {
      "inputs": [],
      "name": "owner",
      "outputs": [
        {
          "internalType": "address",
          "name": "",
          "type": "address"
        }
      ],
      "stateMutability": "view",
      "type": "function"
    },
    {
      "inputs": [
        {
          "internalType": "enum GameHub.GameType",
          "name": "game",
          "type": "uint8"
        },
        {
          "internalType": "uint256",
          "name": "choice",
          "type": "uint256"
        }
      ],
      "name": "play",
      "outputs": [],
      "stateMutability": "payable",
      "type": "function"
    },
    {
      "inputs": [],
      "name": "renounceOwnership",
      "outputs": [],
      "stateMutability": "nonpayable",
      "type": "function"
    },
    {
      "inputs": [
        {
          "internalType": "uint256",
          "name": "_min",
          "type": "uint256"
        },
        {
          "internalType": "uint256",
          "name": "_max",
          "type": "uint256"
        }
      ],
      "name": "setBetLimits",
      "outputs": [],
      "stateMutability": "nonpayable",
      "type": "function"
    },
    {
      "inputs": [
        {
          "internalType": "address",
          "name": "_token",
          "type": "address"
        }
      ],
      "name": "setFunToken",
      "outputs": [],
      "stateMutability": "nonpayable",
      "type": "function"
    },
    {
      "inputs": [
        {
          "internalType": "uint256",
          "name": "rate",
          "type": "uint256"
        }
      ],
      "name": "setRewardRate",
      "outputs": [],
      "stateMutability": "nonpayable",
      "type": "function"
    },
    {
      "inputs": [
        {
          "internalType": "address",
          "name": "newOwner",
          "type": "address"
        }
      ],
      "name": "transferOwnership",
      "outputs": [],
      "stateMutability": "nonpayable",
      "type": "function"
    },
    {
      "inputs": [
        {
          "internalType": "uint256",
          "name": "amount",
          "type": "uint256"
        }
      ],
      "name": "withdraw",
      "outputs": [],
      "stateMutability": "nonpayable",
      "type": "function"
    },
    {
      "stateMutability": "payable",
      "type": "receive"
    }
  ],
  "bytecode": "0x6080604052655af3107a400060025567016345785d8a00006003556064600455338061004457604051631e4fbdf760e01b81525f600482015260240160405180910390fd5b61004d81610077565b5060017f9b779b17422d0df92223018b32b4d1fa46e071723d6817e2486d003becc55f00556100c6565b5f80546001600160a01b038381166001600160a01b0319831681178455604051919092169283917f8be0079c531659141344cd1fd0a4f28419497f9722a3daafe3b4186f6b6457e09190a35050565b610c6d806100d35f395ff3fe6080604052600436106100dc575f3560e01c8063845380a21161007c5780639e447fc6116100575780639e447fc61461023a578063d0e30db014610259578063e8cbe6a914610261578063f2fde38b14610280575f80fd5b8063845380a2146101d25780638da5cb5b146102095780639619367d14610225575f80fd5b8063665da338116100b7578063665da3381461017a57806367084eb31461018d578063715018a61461019f5780637687dd49146101b3575f80fd5b806320f8fc771461011c5780632e1a7d4d146101445780632e5b216814610165575f80fd5b366101185760405134815233907f543ba50a5eec5e6178218e364b1d0f396157b3c8fa278522c2cb7fd99407d4749060200160405180910390a2005b5f80fd5b348015610127575f80fd5b5061013160045481565b6040519081526020015b60405180910390f35b34801561014f575f80fd5b5061016361015e366004610afc565b61029f565b005b348015610170575f80fd5b5061013160035481565b610163610188366004610b13565b61035f565b348015610198575f80fd5b5047610131565b3480156101aa575f80fd5b50610163610845565b3480156101be575f80fd5b506101636101cd366004610b40565b610858565b3480156101dd575f80fd5b506001546101f1906001600160a01b031681565b6040516001600160a01b03909116815260200161013b565b348015610214575f80fd5b505f546001600160a01b03166101f1565b348015610230575f80fd5b5061013160025481565b348015610245575f80fd5b50610163610254366004610afc565b6108ba565b6101636108c7565b34801561026c575f80fd5b5061016361027b366004610b60565b610906565b34801561028b575f80fd5b5061016361029a366004610b60565b610962565b6102a761099f565b804710156102fc5760405162461bcd60e51b815260206004820152601d60248201527f47616d654875623a20696e73756666696369656e742062616c616e636500000060448201526064015b60405180910390fd5b604051339082156108fc029083905f818181858888f19350505050158015610326573d5f803e3d5ffd5b5060405181815233907feaff4b37086828766ad3268786972c0cd24259d4c87a80f9d3963a3c3d999b0d9060200160405180910390a250565b6103676109cb565b6002543410156103b95760405162461bcd60e51b815260206004820152601a60248201527f47616d654875623a206265742062656c6f77206d696e696d756d00000000000060448201526064016102f3565b60035434111561040b5760405162461bcd60e51b815260206004820152601a60248201527f47616d654875623a206265742061626f7665206d6178696d756d00000000000060448201526064016102f3565b5f6104146109f9565b90505f80808086600281111561042c5761042c610b8d565b036104c05784158061043e5750846001145b61048a5760405162461bcd60e51b815260206004820152601e60248201527f47616d654875623a2063686f696365206d7573742062652030206f722031000060448201526064016102f3565b610495600285610bb5565b92505083821480156104bb5760646104ae3460be610bdc565b6104b89190610bf9565b91505b610617565b60018660028111156104d4576104d4610b8d565b0361056757600185101580156104eb575060068511155b6105375760405162461bcd60e51b815260206004820152601b60248201527f47616d654875623a2063686f696365206d75737420626520312d36000000000060448201526064016102f3565b610542600685610bb5565b61054d906001610c0c565b92505083821480156104bb5760646104ae3461023a610bdc565b600286600281111561057b5761057b610b8d565b036105d75761058b600885610bb5565b9250825f036105b75760646105a2346101db610bdc565b6105ac9190610bf9565b915060019050610617565b60038310156105cd5760646105a23460be610bdc565b505f905080610617565b60405162461bcd60e51b815260206004820152601560248201527447616d654875623a20756e6b6e6f776e2067616d6560581b60448201526064016102f3565b5f81801561062457505f83115b156107af57824710156106855760405162461bcd60e51b815260206004820152602360248201527f47616d654875623a20696e73756666696369656e7420686f7573652062616c616044820152626e636560e81b60648201526084016102f3565b6040515f90339085908381818185875af1925050503d805f81146106c4576040519150601f19603f3d011682016040523d82523d5f602084013e6106c9565b606091505b50509050806107135760405162461bcd60e51b815260206004820152601660248201527511d85b59521d588e881c185e5bdd5d0819985a5b195960521b60448201526064016102f3565b6001546001600160a01b0316156107ad57670de0b6b3a76400006004543461073b9190610bdc565b6107459190610bf9565b915081156107ad576001546040516340c10f1960e01b8152336004820152602481018490526001600160a01b03909116906340c10f19906044015f604051808303815f87803b158015610796575f80fd5b505af11580156107a8573d5f803e3d5ffd5b505050505b505b8660028111156107c1576107c1610b8d565b6040805188815260208101879052841515818301526060810186905260808101849052905133917f01409bb1b48983f6425a853e99eac03b246087927fa0daf61d17c38bb438e3b2919081900360a00190a3505050505061084160017f9b779b17422d0df92223018b32b4d1fa46e071723d6817e2486d003becc55f0055565b5050565b61084d61099f565b6108565f610a6b565b565b61086061099f565b8082106108af5760405162461bcd60e51b815260206004820152601760248201527f47616d654875623a20696e76616c6964206c696d69747300000000000000000060448201526064016102f3565b600291909155600355565b6108c261099f565b600455565b6108cf61099f565b60405134815233907f543ba50a5eec5e6178218e364b1d0f396157b3c8fa278522c2cb7fd99407d4749060200160405180910390a2565b61090e61099f565b600180546001600160a01b0319166001600160a01b0383169081179091556040519081527fad7172730c4d7f71b64063b3b542daec2b240b80e131567d78da5eb5346d5a7e9060200160405180910390a150565b61096a61099f565b6001600160a01b03811661099357604051631e4fbdf760e01b81525f60048201526024016102f3565b61099c81610a6b565b50565b5f546001600160a01b031633146108565760405163118cdaa760e01b81523360048201526024016102f3565b6109d3610aba565b60027f9b779b17422d0df92223018b32b4d1fa46e071723d6817e2486d003becc55f0055565b600580545f9182610a0983610c1f565b9091555050600554604051610a4e91429144913391602001938452602084019290925260601b6bffffffffffffffffffffffff19166040830152605482015260740190565b604051602081830303815290604052805190602001205f1c905090565b5f80546001600160a01b038381166001600160a01b0319831681178455604051919092169283917f8be0079c531659141344cd1fd0a4f28419497f9722a3daafe3b4186f6b6457e09190a35050565b7f9b779b17422d0df92223018b32b4d1fa46e071723d6817e2486d003becc55f005460020361085657604051633ee5aeb560e01b815260040160405180910390fd5b5f60208284031215610b0c575f80fd5b5035919050565b5f8060408385031215610b24575f80fd5b823560038110610b32575f80fd5b946020939093013593505050565b5f8060408385031215610b51575f80fd5b50508035926020909101359150565b5f60208284031215610b70575f80fd5b81356001600160a01b0381168114610b86575f80fd5b9392505050565b634e487b7160e01b5f52602160045260245ffd5b634e487b7160e01b5f52601260045260245ffd5b5f82610bc357610bc3610ba1565b500690565b634e487b7160e01b5f52601160045260245ffd5b8082028115828204841417610bf357610bf3610bc8565b92915050565b5f82610c0757610c07610ba1565b500490565b80820180821115610bf357610bf3610bc8565b5f60018201610c3057610c30610bc8565b506001019056fea2646970667358221220c9bb6117697e179a7b86948cec286edaf32a6ae38a17edde69ca26ab5a51556264736f6c63430008140033",
  "linkReferences": {},
  "deployedLinkReferences": {},
  "immutableReferences": {},
  "inputSourceName": "project/contracts/GameHub.sol",
  "buildInfoId": "solc-0_8_20-79a630aa0e48016fa209c19c76f177a2c7035bfb"
}