{
  "_format": "hh3-artifact-1",
  "contractName": "GameHub",
  "sourceName": "contracts/GameHub.sol",
  "abi": [
    {
      "inputs": [
        {
          "internalType": "address",
          "name": "_coordinator",
          "type": "address"
        },
        {
          "internalType": "uint256",
          "name": "_subscriptionId",
          "type": "uint256"
        },
        {
          "internalType": "bytes32",
          "name": "_keyHash",
          "type": "bytes32"
        }
      ],
      "stateMutability": "payable",
      "type": "constructor"
    },
    {
      "inputs": [
        {
          "internalType": "address",
          "name": "have",
          "type": "address"
        },
        {
          "internalType": "address",
          "name": "want",
          "type": "address"
        }
      ],
      "name": "OnlyCoordinatorCanFulfill",
      "type": "error"
    },
    {
      "inputs": [
        {
          "internalType": "address",
          "name": "have",
          "type": "address"
        },
        {
          "internalType": "address",
          "name": "owner",
          "type": "address"
        },
        {
          "internalType": "address",
          "name": "coordinator",
          "type": "address"
        }
      ],
      "name": "OnlyOwnerOrCoordinator",
      "type": "error"
    },
    {
      "inputs": [],
      "name": "ReentrancyGuardReentrantCall",
      "type": "error"
    },
    {
      "inputs": [],
      "name": "ZeroAddress",
      "type": "error"
    },
    {
      "anonymous": false,
      "inputs": [
        {
          "indexed": false,
          "internalType": "address",
          "name": "vrfCoordinator",
          "type": "address"
        }
      ],
      "name": "CoordinatorSet",
      "type": "event"
    },
    {
      "anonymous": false,
      "inputs": [
        {
          "indexed": false,
          "internalType": "address",
          "name": "token",
          "type": "address"
        }
      ],
      "name": "FunTokenSet",
      "type": "event"
    },
    {
      "anonymous": false,
      "inputs": [
        {
          "indexed": true,
          "internalType": "address",
          "name": "by",
          "type": "address"
        },
        {
          "indexed": false,
          "internalType": "uint256",
          "name": "amount",
          "type": "uint256"
        }
      ],
      "name": "FundsDeposited",
      "type": "event"
    },
    {
      "anonymous": false,
      "inputs": [
        {
          "indexed": true,
          "internalType": "address",
          "name": "to",
          "type": "address"
        },
        {
          "indexed": false,
          "internalType": "uint256",
          "name": "amount",
          "type": "uint256"
        }
      ],
      "name": "FundsWithdrawn",
      "type": "event"
    },
    {
      "anonymous": false,
      "inputs": [
        {
          "indexed": true,
          "internalType": "address",
          "name": "player",
          "type": "address"
        },
        {
          "indexed": true,
          "internalType": "enum GameHub.GameType",
          "name": "game",
          "type": "uint8"
        },
        {
          "indexed": false,
          "internalType": "uint256",
          "name": "betAmount",
          "type": "uint256"
        },
        {
          "indexed": false,
          "internalType": "uint256",
          "name": "choice",
          "type": "uint256"
        },
        {
          "indexed": false,
          "internalType": "uint256",
          "name": "requestId",
          "type": "uint256"
        }
      ],
      "name": "GameCommitted",
      "type": "event"
    },
    {
      "anonymous": false,
      "inputs": [
        {
          "indexed": true,
          "internalType": "address",
          "name": "player",
          "type": "address"
        },
        {
          "indexed": true,
          "internalType": "enum GameHub.GameType",
          "name": "game",
          "type": "uint8"
        },
        {
          "indexed": false,
          "internalType": "uint256",
          "name": "choice",
          "type": "uint256"
        },
        {
          "indexed": false,
          "internalType": "uint256",
          "name": "result",
          "type": "uint256"
        },
        {
          "indexed": false,
          "internalType": "bool",
          "name": "won",
          "type": "bool"
        },
        {
          "indexed": false,
          "internalType": "uint256",
          "name": "payout",
          "type": "uint256"
        },
        {
          "indexed": false,
          "internalType": "uint256",
          "name": "funRewarded",
          "type": "uint256"
        }
      ],
      "name": "GamePlayed",
      "type": "event"
    },
    {
      "anonymous": false,
      "inputs": [
        {
          "indexed": true,
          "internalType": "address",
          "name": "from",
          "type": "address"
        },
        {
          "indexed": true,
          "internalType": "address",
          "name": "to",
          "type": "address"
        }
      ],
      "name": "OwnershipTransferRequested",
      "type": "event"
    },
    {
      "anonymous": false,
      "inputs": [
        {
          "indexed": true,
          "internalType": "address",
          "name": "from",
          "type": "address"
        },
        {
          "indexed": true,
          "internalType": "address",
          "name": "to",
          "type": "address"
        }
      ],
      "name": "OwnershipTransferred",
      "type": "event"
    },
    {
      "inputs": [],
      "name": "REQUEST_CONFIRMATIONS",
      "outputs": [
        {
          "internalType": "uint16",
          "name": "",
          "type": "uint16"
        }
      ],
      "stateMutability": "view",
      "type": "function"
    },
    {
      "inputs": [],
      "name": "acceptOwnership",
      "outputs": [],
      "stateMutability": "nonpayable",
      "type": "function"
    },
    {
      "inputs": [
        {
          "internalType": "address",
          "name": "",
          "type": "address"
        }
      ],
      "name": "activeRequest",
      "outputs": [
        {
          "internalType": "uint256",
          "name": "",
          "type": "uint256"
        }
      ],
      "stateMutability": "view",
      "type": "function"
    },
    {
      "inputs": [],
      "name": "callbackGasLimit",
      "outputs": [
        {
          "internalType": "uint32",
          "name": "",
          "type": "uint32"
        }
      ],
      "stateMutability": "view",
      "type": "function"
    },
    {
      "inputs": [
        {
          "internalType": "enum GameHub.GameType",
          "name": "game",
          "type": "uint8"
        },
        {
          "internalType": "uint256",
          "name": "choice",
          "type": "uint256"
        }
      ],
      "name": "commitPlay",
      "outputs": [
        {
          "internalType": "uint256",
          "name": "requestId",
          "type": "uint256"
        }
      ],
      "stateMutability": "payable",
      "type": "function"
    },
    {
      "inputs": [],
      "name": "deposit",
      "outputs": [],
      "stateMutability": "payable",
      "type": "function"
    },
    {
      "inputs": [],
      "name": "emergencyMode",
      "outputs": [
        {
          "internalType": "bool",
          "name": "",
          "type": "bool"
        }
      ],
      "stateMutability": "view",
      "type": "function"
    },
    {
      "inputs": [],
      "name": "funRewardRate",
      "outputs": [
        {
          "internalType": "uint256",
          "name": "",
          "type": "uint256"
        }
      ],
      "stateMutability": "view",
      "type": "function"
    },
    {
      "inputs": [],
      "name": "funToken",
      "outputs": [
        {
          "internalType": "contract IFunToken",
          "name": "",
          "type": "address"
        }
      ],
      "stateMutability": "view",
      "type": "function"
    },
    {
      "inputs": [
        {
          "internalType": "address",
          "name": "player",
          "type": "address"
        }
      ],
      "name": "getActiveRequest",
      "outputs": [
        {
          "internalType": "uint256",
          "name": "",
          "type": "uint256"
        }
      ],
      "stateMutability": "view",
      "type": "function"
    },
    {
      "inputs": [],
      "name": "houseBalance",
      "outputs": [
        {
          "internalType": "uint256",
          "name": "",
          "type": "uint256"
        }
      ],
      "stateMutability": "view",
      "type": "function"
    },
    {
      "inputs": [],
      "name": "keyHash",
      "outputs": [
        {
          "internalType": "bytes32",
          "name": "",
          "type": "bytes32"
        }
      ],
      "stateMutability": "view",
      "type": "function"
    },
    {
      "inputs": [],
      "name": "maxBet",
      "outputs": [
        {
          "internalType": "uint256",
          "name": "",
          "type": "uint256"
        }
      ],
      "stateMutability": "view",
      "type": "function"
    },
    {
      "inputs": [],
      "name": "minBet",
      "outputs": [
        {
          "internalType": "uint256",
          "name": "",
          "type": "uint256"
        }
      ],
      "stateMutability": "view",
      "type": "function"
    },
    {
      "inputs": [],
      "name": "owner",
      "outputs": [
        {
          "internalType": "address",
          "name": "",
          "type": "address"
        }
      ],
      "stateMutability": "view",
      "type": "function"
    },
    {
      "inputs": [
        {
          "internalType": "uint256",
          "name": "",
          "type": "uint256"
        }
      ],
      "name": "pendingGames",
      "outputs": [
        {
          "internalType": "address",
          "name": "player",
          "type": "address"
        },
        {
          "internalType": "enum GameHub.GameType",
          "name": "game",
          "type": "uint8"
        },
        {
          "internalType": "uint256",
          "name": "betAmount",
          "type": "uint256"
        },
        {
          "internalType": "uint256",
          "name": "choice",
          "type": "uint256"
        }
      ],
      "stateMutability": "view",
      "type": "function"
    },
    {
      "inputs": [
        {
          "internalType": "uint256",
          "name": "requestId",
          "type": "uint256"
        },
        {
          "internalType": "uint256[]",
          "name": "randomWords",
          "type": "uint256[]"
        }
      ],
      "name": "rawFulfillRandomWords",
      "outputs": [],
      "stateMutability": "nonpayable",
      "type": "function"
    },
    {
      "inputs": [],
      "name": "s_vrfCoordinator",
      "outputs": [
        {
          "internalType": "contract IVRFCoordinatorV2Plus",
          "name": "",
          "type": "address"
        }
      ],
      "stateMutability": "view",
      "type": "function"
    },
    {
      "inputs": [
        {
          "internalType": "uint256",
          "name": "_min",
          "type": "uint256"
        },
        {
          "internalType": "uint256",
          "name": "_max",
          "type": "uint256"
        }
      ],
      "name": "setBetLimits",
      "outputs": [],
      "stateMutability": "nonpayable",
      "type": "function"
    },
    {
      "inputs": [
        {
          "internalType": "address",
          "name": "_vrfCoordinator",
          "type": "address"
        }
      ],
      "name": "setCoordinator",
      "outputs": [],
      "stateMutability": "nonpayable",
      "type": "function"
    },
    {
      "inputs": [
        {
          "internalType": "bool",
          "name": "_enabled",
          "type": "bool"
        }
      ],
      "name": "setEmergencyMode",
      "outputs": [],
      "stateMutability": "nonpayable",
      "type": "function"
    },
    {
      "inputs": [
        {
          "internalType": "address",
          "name": "_token",
          "type": "address"
        }
      ],
      "name": "setFunToken",
      "outputs": [],
      "stateMutability": "nonpayable",
      "type": "function"
    },
    {
      "inputs": [
        {
          "internalType": "uint256",
          "name": "rate",
          "type": "uint256"
        }
      ],
      "name": "setRewardRate",
      "outputs": [],
      "stateMutability": "nonpayable",
      "type": "function"
    },
    {
      "inputs": [
        {
          "internalType": "bytes32",
          "name": "_keyHash",
          "type": "bytes32"
        },
        {
          "internalType": "uint32",
          "name": "_callbackGasLimit",
          "type": "uint32"
        }
      ],
      "name": "setVrfConfig",
      "outputs": [],
      "stateMutability": "nonpayable",
      "type": "function"
    },
    {
      "inputs": [
        {
          "internalType": "bool",
          "name": "_nativePayment",
          "type": "bool"
        }
      ],
      "name": "setVrfPaymentMode",
      "outputs": [],
      "stateMutability": "nonpayable",
      "type": "function"
    },
    {
      "inputs": [],
      "name": "subscriptionId",
      "outputs": [
        {
          "internalType": "uint256",
          "name": "",
          "type": "uint256"
        }
      ],
      "stateMutability": "view",
      "type": "function"
    },
    {
      "inputs": [
        {
          "internalType": "address",
          "name": "to",
          "type": "address"
        }
      ],
      "name": "transferOwnership",
      "outputs": [],
      "stateMutability": "nonpayable",
      "type": "function"
    },
    {
      "inputs": [],
      "name": "vrfNativePayment",
      "outputs": [
        {
          "internalType": "bool",
          "name": "",
          "type": "bool"
        }
      ],
      "stateMutability": "view",
      "type": "function"
    },
    {
      "inputs": [
        {
          "internalType": "uint256",
          "name": "amount",
          "type": "uint256"
        }
      ],
      "name": "withdraw",
      "outputs": [],
      "stateMutability": "nonpayable",
      "type": "function"
    },
    {
      "stateMutability": "payable",
      "type": "receive"
    }
  ],
  "bytecode": "0x60a060408190526005805464ffffffffff191662030d40179055655af3107a400060065567016345785d8a0000600755620f424060085562001b323881900390819083398101604081905262000055916200021f565b8233805f81620000ac5760405162461bcd60e51b815260206004820152601860248201527f43616e6e6f7420736574206f776e657220746f207a65726f000000000000000060448201526064015b60405180910390fd5b5f80546001600160a01b0319166001600160a01b0384811691909117909155811615620000de57620000de8162000175565b5050506001600160a01b038116620001095760405163d92e233d60e01b815260040160405180910390fd5b600280546001600160a01b0319166001600160a01b039290921691909117905560016200015a620001577f9b779b17422d0df92223018b32b4d1fa46e071723d6817e2486d003becc55f0090565b90565b556001600160a01b0390921660805260035560045562000260565b336001600160a01b03821603620001cf5760405162461bcd60e51b815260206004820152601760248201527f43616e6e6f74207472616e7366657220746f2073656c660000000000000000006044820152606401620000a3565b600180546001600160a01b0319166001600160a01b038381169182179092555f8054604051929316917fed8889f560326eb138920d842192f0eb3dd22b4f139c87a2c57538e05bae12789190a350565b5f805f6060848603121562000232575f80fd5b83516001600160a01b038116811462000249575f80fd5b602085015160409095015190969495509392505050565b6080516118b9620002795f395f610aaf01526118b95ff3fe6080604052600436106101bd575f3560e01c806379ba5097116100f2578063be32b3f811610092578063e8cbe6a911610062578063e8cbe6a914610558578063f10092d714610577578063f2fde38b14610596578063fa48a0b6146105b5575f80fd5b8063be32b3f8146104e5578063c2c7793814610504578063d0e30db01461052f578063dec37a4e14610537575f80fd5b80638ea98117116100cd5780638ea98117146104735780639619367d146104925780639e447fc6146104a75780639eccacf6146104c6575f80fd5b806379ba509714610405578063845380a2146104195780638da5cb5b14610457575f80fd5b80633233582a1161015d57806361728f391161013857806361728f391461039857806367084eb3146103ad57806367f082b0146103bf5780637687dd49146103e6575f80fd5b80633233582a146102f2578063336baa9314610326578063579e94ee14610339575f80fd5b806320f8fc771161019857806320f8fc771461027857806324f746971461028d5780632e1a7d4d146102be5780632e5b2168146102dd575f80fd5b80630905f560146101fd57806309c1ba2e146102345780631fe543e314610257575f80fd5b366101f95760405134815233907f543ba50a5eec5e6178218e364b1d0f396157b3c8fa278522c2cb7fd99407d4749060200160405180910390a2005b5f80fd5b348015610208575f80fd5b5060055461021f9065010000000000900460ff1681565b60405190151581526020015b60405180910390f35b34801561023f575f80fd5b5061024960035481565b60405190815260200161022b565b348015610262575f80fd5b5061027661027136600461158e565b6105d4565b005b348015610283575f80fd5b5061024960085481565b348015610298575f80fd5b506005546102a99063ffffffff1681565b60405163ffffffff909116815260200161022b565b3480156102c9575f80fd5b506102766102d8366004611606565b610629565b3480156102e8575f80fd5b5061024960075481565b3480156102fd575f80fd5b5061024961030c36600461161d565b6001600160a01b03165f908152600a602052604090205490565b61024961033436600461164a565b61074f565b348015610344575f80fd5b50610388610353366004611606565b60096020525f90815260409020805460018201546002909201546001600160a01b03821692600160a01b90920460ff16919084565b60405161022b949392919061168b565b3480156103a3575f80fd5b5061024960045481565b3480156103b8575f80fd5b5047610249565b3480156103ca575f80fd5b506103d3600381565b60405161ffff909116815260200161022b565b3480156103f1575f80fd5b506102766104003660046116d2565b610c5b565b348015610410575f80fd5b50610276610cbd565b348015610424575f80fd5b5060055461043f90600160301b90046001600160a01b031681565b6040516001600160a01b03909116815260200161022b565b348015610462575f80fd5b505f546001600160a01b031661043f565b34801561047e575f80fd5b5061027661048d36600461161d565b610d66565b34801561049d575f80fd5b5061024960065481565b3480156104b2575f80fd5b506102766104c1366004611606565b610e57565b3480156104d1575f80fd5b5060025461043f906001600160a01b031681565b3480156104f0575f80fd5b506102766104ff3660046116f2565b610e64565b34801561050f575f80fd5b5061024961051e36600461161d565b600a6020525f908152604090205481565b610276610e8e565b348015610542575f80fd5b5060055461021f90640100000000900460ff1681565b348015610563575f80fd5b5061027661057236600461161d565b610ecd565b348015610582575f80fd5b50610276610591366004611711565b610f32565b3480156105a1575f80fd5b506102766105b036600461161d565b610f5b565b3480156105c0575f80fd5b506102766105cf3660046116f2565b610f6f565b6002546001600160a01b031633146106195760025460405163073e64fd60e21b81523360048201526001600160a01b0390911660248201526044015b60405180910390fd5b610624838383610f97565b505050565b6106316110ca565b804710156106815760405162461bcd60e51b815260206004820152601d60248201527f47616d654875623a20696e73756666696369656e742062616c616e63650000006044820152606401610610565b6040515f90339083908381818185875af1925050503d805f81146106c0576040519150601f19603f3d011682016040523d82523d5f602084013e6106c5565b606091505b50509050806107165760405162461bcd60e51b815260206004820152601860248201527f47616d654875623a207769746864726177206661696c656400000000000000006044820152606401610610565b60405182815233907feaff4b37086828766ad3268786972c0cd24259d4c87a80f9d3963a3c3d999b0d9060200160405180910390a25050565b5f61075861111e565b6006543410156107aa5760405162461bcd60e51b815260206004820152601a60248201527f47616d654875623a206265742062656c6f77206d696e696d756d0000000000006044820152606401610610565b6007543411156107fc5760405162461bcd60e51b815260206004820152601a60248201527f47616d654875623a206265742061626f7665206d6178696d756d0000000000006044820152606401610610565b335f908152600a6020526040902054156108585760405162461bcd60e51b815260206004820152601c60248201527f47616d654875623a2070656e64696e672067616d6520657869737473000000006044820152606401610610565b5f83600281111561086b5761086b611677565b036108ce5781158061087d5750816001145b6108c95760405162461bcd60e51b815260206004820152601e60248201527f47616d654875623a2063686f696365206d7573742062652030206f72203100006044820152606401610610565b610945565b60018360028111156108e2576108e2611677565b0361094557600182101580156108f9575060068211155b6109455760405162461bcd60e51b815260206004820152601b60248201527f47616d654875623a2063686f696365206d75737420626520312d3600000000006044820152606401610610565b5f6040518060800160405280336001600160a01b0316815260200185600281111561097257610972611677565b815234602082015260400184905260055490915065010000000000900460ff1615610a5c5760408051446020808301919091524282840152436060808401919091526bffffffffffffffffffffffff1933821b81166080850152609484018890523090911b1660b4830152825180830360a801815260c890920190925280519101206109ff90829061114c565b836002811115610a1157610a11611677565b60408051348152602081018690525f81830152905133917f8ab9588f98c47c27efe9da8d6bb8dc4620cc165da5454e59307b2eec44bdec2d919081900360600190a35f915050610c2c565b6040805160c0810182526004548152600380546020808401919091528284019190915260055463ffffffff8116606084015260016080840152835191820190935264010000000090920460ff16151582527f00000000000000000000000000000000000000000000000000000000000000006001600160a01b031691639b1c385e919060a0820190610aed90611433565b8152506040518263ffffffff1660e01b8152600401610b0c9190611747565b6020604051808303815f875af1158015610b28573d5f803e3d5ffd5b505050506040513d601f19601f82011682018060405250810190610b4c91906117e0565b5f818152600960209081526040909120835181546001600160a01b039091166001600160a01b0319821681178355928501519395508493919283916001600160a81b03191617600160a01b836002811115610ba957610ba9611677565b02179055506040828101516001830155606090920151600291820155335f908152600a602052919091208390558490811115610be757610be7611677565b604080513481526020810186905290810184905233907f8ab9588f98c47c27efe9da8d6bb8dc4620cc165da5454e59307b2eec44bdec2d9060600160405180910390a3505b610c5560017f9b779b17422d0df92223018b32b4d1fa46e071723d6817e2486d003becc55f0055565b92915050565b610c636110ca565b808210610cb25760405162461bcd60e51b815260206004820152601760248201527f47616d654875623a20696e76616c6964206c696d6974730000000000000000006044820152606401610610565b600691909155600755565b6001546001600160a01b03163314610d105760405162461bcd60e51b815260206004820152601660248201527526bab9ba10313290383937b837b9b2b21037bbb732b960511b6044820152606401610610565b5f8054336001600160a01b0319808316821784556001805490911690556040516001600160a01b0390921692909183917f8be0079c531659141344cd1fd0a4f28419497f9722a3daafe3b4186f6b6457e091a350565b5f546001600160a01b03163314801590610d8b57506002546001600160a01b03163314155b15610ddb5733610da25f546001600160a01b031690565b60025460405163061db9c160e01b81526001600160a01b0393841660048201529183166024830152919091166044820152606401610610565b6001600160a01b038116610e025760405163d92e233d60e01b815260040160405180910390fd5b600280546001600160a01b0319166001600160a01b0383169081179091556040519081527fd1a6a14209a385a964d036e404cb5cfb71f4000cdb03c9366292430787261be6906020015b60405180910390a150565b610e5f6110ca565b600855565b610e6c6110ca565b60058054911515650100000000000265ff000000000019909216919091179055565b610e966110ca565b60405134815233907f543ba50a5eec5e6178218e364b1d0f396157b3c8fa278522c2cb7fd99407d4749060200160405180910390a2565b610ed56110ca565b600580546601000000000000600160d01b031916600160301b6001600160a01b038416908102919091179091556040519081527fad7172730c4d7f71b64063b3b542daec2b240b80e131567d78da5eb5346d5a7e90602001610e4c565b610f3a6110ca565b6004919091556005805463ffffffff191663ffffffff909216919091179055565b610f636110ca565b610f6c816114a4565b50565b610f776110ca565b600580549115156401000000000264ff0000000019909216919091179055565b5f83815260096020908152604080832081516080810190925280546001600160a01b03811683529192909190830190600160a01b900460ff166002811115610fe157610fe1611677565b6002811115610ff257610ff2611677565b81526020016001820154815260200160028201548152505090505f81604001511161105f5760405162461bcd60e51b815260206004820152601860248201527f47616d654875623a20756e6b6e6f776e207265717565737400000000000000006044820152606401610610565b5f84815260096020908152604080832080546001600160a81b03191681556001810184905560020183905583516001600160a01b03168352600a90915281208190556110c490829085908590816110b8576110b86117f7565b9050602002013561114c565b50505050565b5f546001600160a01b0316331461111c5760405162461bcd60e51b815260206004820152601660248201527527b7363c9031b0b63630b1363290313c9037bbb732b960511b6044820152606401610610565b565b61112661154c565b60027f9b779b17422d0df92223018b32b4d1fa46e071723d6817e2486d003becc55f0055565b5f8080808560200151600281111561116657611166611677565b036111ac5761117660028561181f565b925082856060015114905080156111a7576064856040015160be61119a9190611846565b6111a4919061185d565b91505b61126e565b6001856020015160028111156111c4576111c4611677565b03611204576111d460068561181f565b6111df906001611870565b925082856060015114905080156111a7576064856040015161023a61119a9190611846565b61120f60088561181f565b9250825f0361124157606485604001516101db61122c9190611846565b611236919061185d565b91506001905061126e565b600383101561126e576064856040015160be61125d9190611846565b611267919061185d565b9150600190505b5f81801561127b57505f83115b80156112875750824710155b156113a55785516040515f916001600160a01b03169085908381818185875af1925050503d805f81146112d5576040519150601f19603f3d011682016040523d82523d5f602084013e6112da565b606091505b50509050801561139857600554600160301b90046001600160a01b03161561139357670de0b6b3a764000060085488604001516113179190611846565b611321919061185d565b915081156113935760055487516040516340c10f1960e01b81526001600160a01b03918216600482015260248101859052600160301b90920416906340c10f19906044015f604051808303815f87803b15801561137c575f80fd5b505af115801561138e573d5f803e3d5ffd5b505050505b61139f565b5f92505f93505b506113b2565b81156113b2575f91505f92505b856020015160028111156113c8576113c8611677565b8651606080890151604080519182526020820189905286151590820152908101869052608081018490526001600160a01b03909116907f01409bb1b48983f6425a853e99eac03b246087927fa0daf61d17c38bb438e3b29060a00160405180910390a3505050505050565b60607f92fd13387c7fe7befbc38d303d6468778fb9731bc4583f17d92989c6fcfdeaaa8260405160240161146c91511515815260200190565b60408051601f198184030181529190526020810180516001600160e01b03166001600160e01b03199093169290921790915292915050565b336001600160a01b038216036114fc5760405162461bcd60e51b815260206004820152601760248201527f43616e6e6f74207472616e7366657220746f2073656c660000000000000000006044820152606401610610565b600180546001600160a01b0319166001600160a01b038381169182179092555f8054604051929316917fed8889f560326eb138920d842192f0eb3dd22b4f139c87a2c57538e05bae12789190a350565b7f9b779b17422d0df92223018b32b4d1fa46e071723d6817e2486d003becc55f005460020361111c57604051633ee5aeb560e01b815260040160405180910390fd5b5f805f604084860312156115a0575f80fd5b83359250602084013567ffffffffffffffff808211156115be575f80fd5b818601915086601f8301126115d1575f80fd5b8135818111156115df575f80fd5b8760208260051b85010111156115f3575f80fd5b6020830194508093505050509250925092565b5f60208284031215611616575f80fd5b5035919050565b5f6020828403121561162d575f80fd5b81356001600160a01b0381168114611643575f80fd5b9392505050565b5f806040838503121561165b575f80fd5b823560038110611669575f80fd5b946020939093013593505050565b634e487b7160e01b5f52602160045260245ffd5b6001600160a01b038516815260808101600385106116b757634e487b7160e01b5f52602160045260245ffd5b84602083015283604083015282606083015295945050505050565b5f80604083850312156116e3575f80fd5b50508035926020909101359150565b5f60208284031215611702575f80fd5b81358015158114611643575f80fd5b5f8060408385031215611722575f80fd5b82359150602083013563ffffffff8116811461173c575f80fd5b809150509250929050565b5f602080835283518184015280840151604084015261ffff6040850151166060840152606084015163ffffffff80821660808601528060808701511660a0860152505060a084015160c08085015280518060e08601525f5b818110156117bc578281018401518682016101000152830161179f565b5061010092505f83828701015282601f19601f830116860101935050505092915050565b5f602082840312156117f0575f80fd5b5051919050565b634e487b7160e01b5f52603260045260245ffd5b634e487b7160e01b5f52601260045260245ffd5b5f8261182d5761182d61180b565b500690565b634e487b7160e01b5f52601160045260245ffd5b8082028115828204841417610c5557610c55611832565b5f8261186b5761186b61180b565b500490565b80820180821115610c5557610c5561183256fea264697066735822122060db58980114ec2a07ddc86621f1fc9bafd85eb8cc9cde73fd9c0b63863d4ad364736f6c63430008140033",
  "linkReferences": {},
  "deployedLinkReferences": {},
  "immutableReferences": {
    "966": [
      {
        "length": 32,
        "start": 2735
      }
    ]
  },
  "inputSourceName": "project/contracts/GameHub.sol",
  "buildInfoId": "solc-0_8_20-f70450304bb5f70cbcf992240f303a3e8cdfbee7"
}