{
  "_format": "hh3-artifact-1",
  "contractName": "HubarbPool",
  "sourceName": "contracts/HubarbPool.sol",
  "abi": [
    {
      "inputs": [],
      "stateMutability": "nonpayable",
      "type": "constructor"
    },
    {
      "inputs": [
        {
          "internalType": "address",
          "name": "spender",
          "type": "address"
        },
        {
          "internalType": "uint256",
          "name": "allowance",
          "type": "uint256"
        },
        {
          "internalType": "uint256",
          "name": "needed",
          "type": "uint256"
        }
      ],
      "name": "ERC20InsufficientAllowance",
      "type": "error"
    },
    {
      "inputs": [
        {
          "internalType": "address",
          "name": "sender",
          "type": "address"
        },
        {
          "internalType": "uint256",
          "name": "balance",
          "type": "uint256"
        },
        {
          "internalType": "uint256",
          "name": "needed",
          "type": "uint256"
        }
      ],
      "name": "ERC20InsufficientBalance",
      "type": "error"
    },
    {
      "inputs": [
        {
          "internalType": "address",
          "name": "approver",
          "type": "address"
        }
      ],
      "name": "ERC20InvalidApprover",
      "type": "error"
    },
    {
      "inputs": [
        {
          "internalType": "address",
          "name": "receiver",
          "type": "address"
        }
      ],
      "name": "ERC20InvalidReceiver",
      "type": "error"
    },
    {
      "inputs": [
        {
          "internalType": "address",
          "name": "sender",
          "type": "address"
        }
      ],
      "name": "ERC20InvalidSender",
      "type": "error"
    },
    {
      "inputs": [
        {
          "internalType": "address",
          "name": "spender",
          "type": "address"
        }
      ],
      "name": "ERC20InvalidSpender",
      "type": "error"
    },
    {
      "inputs": [
        {
          "internalType": "address",
          "name": "owner",
          "type": "address"
        }
      ],
      "name": "OwnableInvalidOwner",
      "type": "error"
    },
    {
      "inputs": [
        {
          "internalType": "address",
          "name": "account",
          "type": "address"
        }
      ],
      "name": "OwnableUnauthorizedAccount",
      "type": "error"
    },
    {
      "inputs": [],
      "name": "ReentrancyGuardReentrantCall",
      "type": "error"
    },
    {
      "anonymous": false,
      "inputs": [
        {
          "indexed": true,
          "internalType": "address",
          "name": "owner",
          "type": "address"
        },
        {
          "indexed": true,
          "internalType": "address",
          "name": "spender",
          "type": "address"
        },
        {
          "indexed": false,
          "internalType": "uint256",
          "name": "value",
          "type": "uint256"
        }
      ],
      "name": "Approval",
      "type": "event"
    },
    {
      "anonymous": false,
      "inputs": [
        {
          "indexed": true,
          "internalType": "address",
          "name": "by",
          "type": "address"
        },
        {
          "indexed": false,
          "internalType": "uint256",
          "name": "ethAmount",
          "type": "uint256"
        },
        {
          "indexed": false,
          "internalType": "uint256",
          "name": "funAmount",
          "type": "uint256"
        },
        {
          "indexed": false,
          "internalType": "uint256",
          "name": "lpMinted",
          "type": "uint256"
        }
      ],
      "name": "LiquidityAdded",
      "type": "event"
    },
    {
      "anonymous": false,
      "inputs": [
        {
          "indexed": true,
          "internalType": "address",
          "name": "by",
          "type": "address"
        },
        {
          "indexed": false,
          "internalType": "uint256",
          "name": "ethAmount",
          "type": "uint256"
        },
        {
          "indexed": false,
          "internalType": "uint256",
          "name": "funAmount",
          "type": "uint256"
        },
        {
          "indexed": false,
          "internalType": "uint256",
          "name": "lpBurned",
          "type": "uint256"
        }
      ],
      "name": "LiquidityRemoved",
      "type": "event"
    },
    {
      "anonymous": false,
      "inputs": [
        {
          "indexed": true,
          "internalType": "address",
          "name": "previousOwner",
          "type": "address"
        },
        {
          "indexed": true,
          "internalType": "address",
          "name": "newOwner",
          "type": "address"
        }
      ],
      "name": "OwnershipTransferred",
      "type": "event"
    },
    {
      "anonymous": false,
      "inputs": [
        {
          "indexed": true,
          "internalType": "address",
          "name": "by",
          "type": "address"
        },
        {
          "indexed": true,
          "internalType": "address",
          "name": "tokenIn",
          "type": "address"
        },
        {
          "indexed": false,
          "internalType": "uint256",
          "name": "amountIn",
          "type": "uint256"
        },
        {
          "indexed": false,
          "internalType": "uint256",
          "name": "amountOut",
          "type": "uint256"
        }
      ],
      "name": "Swap",
      "type": "event"
    },
    {
      "anonymous": false,
      "inputs": [
        {
          "indexed": true,
          "internalType": "address",
          "name": "from",
          "type": "address"
        },
        {
          "indexed": true,
          "internalType": "address",
          "name": "to",
          "type": "address"
        },
        {
          "indexed": false,
          "internalType": "uint256",
          "name": "value",
          "type": "uint256"
        }
      ],
      "name": "Transfer",
      "type": "event"
    },
    {
      "inputs": [
        {
          "internalType": "uint256",
          "name": "funAmount",
          "type": "uint256"
        }
      ],
      "name": "addLiquidity",
      "outputs": [
        {
          "internalType": "uint256",
          "name": "lpMinted",
          "type": "uint256"
        }
      ],
      "stateMutability": "payable",
      "type": "function"
    },
    {
      "inputs": [
        {
          "internalType": "address",
          "name": "owner",
          "type": "address"
        },
        {
          "internalType": "address",
          "name": "spender",
          "type": "address"
        }
      ],
      "name": "allowance",
      "outputs": [
        {
          "internalType": "uint256",
          "name": "",
          "type": "uint256"
        }
      ],
      "stateMutability": "view",
      "type": "function"
    },
    {
      "inputs": [
        {
          "internalType": "address",
          "name": "spender",
          "type": "address"
        },
        {
          "internalType": "uint256",
          "name": "value",
          "type": "uint256"
        }
      ],
      "name": "approve",
      "outputs": [
        {
          "internalType": "bool",
          "name": "",
          "type": "bool"
        }
      ],
      "stateMutability": "nonpayable",
      "type": "function"
    },
    {
      "inputs": [
        {
          "internalType": "address",
          "name": "account",
          "type": "address"
        }
      ],
      "name": "balanceOf",
      "outputs": [
        {
          "internalType": "uint256",
          "name": "",
          "type": "uint256"
        }
      ],
      "stateMutability": "view",
      "type": "function"
    },
    {
      "inputs": [],
      "name": "decimals",
      "outputs": [
        {
          "internalType": "uint8",
          "name": "",
          "type": "uint8"
        }
      ],
      "stateMutability": "view",
      "type": "function"
    },
    {
      "inputs": [],
      "name": "ethReserve",
      "outputs": [
        {
          "internalType": "uint256",
          "name": "",
          "type": "uint256"
        }
      ],
      "stateMutability": "view",
      "type": "function"
    },
    {
      "inputs": [],
      "name": "funReserve",
      "outputs": [
        {
          "internalType": "uint256",
          "name": "",
          "type": "uint256"
        }
      ],
      "stateMutability": "view",
      "type": "function"
    },
    {
      "inputs": [],
      "name": "funToken",
      "outputs": [
        {
          "internalType": "contract IERC20",
          "name": "",
          "type": "address"
        }
      ],
      "stateMutability": "view",
      "type": "function"
    },
    {
      "inputs": [],
      "name": "getReserves",
      "outputs": [
        {
          "internalType": "uint256",
          "name": "eth",
          "type": "uint256"
        },
        {
          "internalType": "uint256",
          "name": "fun",
          "type": "uint256"
        }
      ],
      "stateMutability": "view",
      "type": "function"
    },
    {
      "inputs": [],
      "name": "name",
      "outputs": [
        {
          "internalType": "string",
          "name": "",
          "type": "string"
        }
      ],
      "stateMutability": "view",
      "type": "function"
    },
    {
      "inputs": [],
      "name": "owner",
      "outputs": [
        {
          "internalType": "address",
          "name": "",
          "type": "address"
        }
      ],
      "stateMutability": "view",
      "type": "function"
    },
    {
      "inputs": [
        {
          "internalType": "uint256",
          "name": "ethIn",
          "type": "uint256"
        }
      ],
      "name": "quoteEthForFun",
      "outputs": [
        {
          "internalType": "uint256",
          "name": "funOut",
          "type": "uint256"
        }
      ],
      "stateMutability": "view",
      "type": "function"
    },
    {
      "inputs": [
        {
          "internalType": "uint256",
          "name": "funIn",
          "type": "uint256"
        }
      ],
      "name": "quoteFunForEth",
      "outputs": [
        {
          "internalType": "uint256",
          "name": "ethOut",
          "type": "uint256"
        }
      ],
      "stateMutability": "view",
      "type": "function"
    },
    {
      "inputs": [
        {
          "internalType": "uint256",
          "name": "lpAmount",
          "type": "uint256"
        }
      ],
      "name": "removeLiquidity",
      "outputs": [
        {
          "internalType": "uint256",
          "name": "ethOut",
          "type": "uint256"
        },
        {
          "internalType": "uint256",
          "name": "funOut",
          "type": "uint256"
        }
      ],
      "stateMutability": "nonpayable",
      "type": "function"
    },
    {
      "inputs": [],
      "name": "renounceOwnership",
      "outputs": [],
      "stateMutability": "nonpayable",
      "type": "function"
    },
    {
      "inputs": [
        {
          "internalType": "address",
          "name": "_fun",
          "type": "address"
        }
      ],
      "name": "setTokens",
      "outputs": [],
      "stateMutability": "nonpayable",
      "type": "function"
    },
    {
      "inputs": [],
      "name": "swapEthForFun",
      "outputs": [
        {
          "internalType": "uint256",
          "name": "funOut",
          "type": "uint256"
        }
      ],
      "stateMutability": "payable",
      "type": "function"
    },
    {
      "inputs": [
        {
          "internalType": "uint256",
          "name": "funIn",
          "type": "uint256"
        }
      ],
      "name": "swapFunForEth",
      "outputs": [
        {
          "internalType": "uint256",
          "name": "ethOut",
          "type": "uint256"
        }
      ],
      "stateMutability": "nonpayable",
      "type": "function"
    },
    {
      "inputs": [],
      "name": "symbol",
      "outputs": [
        {
          "internalType": "string",
          "name": "",
          "type": "string"
        }
      ],
      "stateMutability": "view",
      "type": "function"
    },
    {
      "inputs": [],
      "name": "totalSupply",
      "outputs": [
        {
          "internalType": "uint256",
          "name": "",
          "type": "uint256"
        }
      ],
      "stateMutability": "view",
      "type": "function"
    },
    {
      "inputs": [
        {
          "internalType": "address",
          "name": "to",
          "type": "address"
        },
        {
          "internalType": "uint256",
          "name": "value",
          "type": "uint256"
        }
      ],
      "name": "transfer",
      "outputs": [
        {
          "internalType": "bool",
          "name": "",
          "type": "bool"
        }
      ],
      "stateMutability": "nonpayable",
      "type": "function"
    },
    {
      "inputs": [
        {
          "internalType": "address",
          "name": "from",
          "type": "address"
        },
        {
          "internalType": "address",
          "name": "to",
          "type": "address"
        },
        {
          "internalType": "uint256",
          "name": "value",
          "type": "uint256"
        }
      ],
      "name": "transferFrom",
      "outputs": [
        {
          "internalType": "bool",
          "name": "",
          "type": "bool"
        }
      ],
      "stateMutability": "nonpayable",
      "type": "function"
    },
    {
      "inputs": [
        {
          "internalType": "address",
          "name": "newOwner",
          "type": "address"
        }
      ],
      "name": "transferOwnership",
      "outputs": [],
      "stateMutability": "nonpayable",
      "type": "function"
    },
    {
      "stateMutability": "payable",
      "type": "receive"
    }
  ],
  "bytecode": "0x608060405234801562000010575f80fd5b5033604051806040016040528060098152602001680485542415242204c560bc1b815250604051806040016040528060038152602001620484c560ec1b8152508160039081620000619190620001c8565b506004620000708282620001c8565b5050506001600160a01b038116620000a157604051631e4fbdf760e01b81525f600482015260240160405180910390fd5b620000ac81620000d7565b5060017f9b779b17422d0df92223018b32b4d1fa46e071723d6817e2486d003becc55f005562000290565b600580546001600160a01b038381166001600160a01b0319831681179093556040519116919082907f8be0079c531659141344cd1fd0a4f28419497f9722a3daafe3b4186f6b6457e0905f90a35050565b634e487b7160e01b5f52604160045260245ffd5b600181811c908216806200015157607f821691505b6020821081036200017057634e487b7160e01b5f52602260045260245ffd5b50919050565b601f821115620001c3575f81815260208120601f850160051c810160208610156200019e5750805b601f850160051c820191505b81811015620001bf57828155600101620001aa565b5050505b505050565b81516001600160401b03811115620001e457620001e462000128565b620001fc81620001f584546200013c565b8462000176565b602080601f83116001811462000232575f84156200021a5750858301515b5f19600386901b1c1916600185901b178555620001bf565b5f85815260208120601f198616915b82811015620002625788860151825594840194600190910190840162000241565b50858210156200028057878501515f19600388901b60f8161c191681555b5050505050600190811b01905550565b61175a806200029e5f395ff3fe60806040526004361061013f575f3560e01c806385bd3bc2116100b3578063a9059cbb1161006d578063a9059cbb14610379578063c438b8bb14610398578063d62ccb3f146103b7578063da3b9f0f146103cc578063dd62ed3e146103d4578063f2fde38b14610418575f80fd5b806385bd3bc2146102d65780638da5cb5b146102eb57806395d89b4114610308578063961206361461031c5780639c8f9f231461033b578063a639eb4d1461035a575f80fd5b8063313ce56711610104578063313ce5671461020857806351c6590a1461022357806370a0823114610236578063715018a61461026a578063768e061c14610280578063845380a21461029f575f80fd5b806306fdde031461014a5780630902f1ac14610174578063095ea7b31461019c57806318160ddd146101cb57806323b872dd146101e9575f80fd5b3661014657005b5f80fd5b348015610155575f80fd5b5061015e610437565b60405161016b9190611520565b60405180910390f35b34801561017f575f80fd5b506007546008545b6040805192835260208301919091520161016b565b3480156101a7575f80fd5b506101bb6101b6366004611581565b6104c7565b604051901515815260200161016b565b3480156101d6575f80fd5b506002545b60405190815260200161016b565b3480156101f4575f80fd5b506101bb6102033660046115a9565b6104e0565b348015610213575f80fd5b506040516012815260200161016b565b6101db6102313660046115e2565b610503565b348015610241575f80fd5b506101db6102503660046115f9565b6001600160a01b03165f9081526020819052604090205490565b348015610275575f80fd5b5061027e610792565b005b34801561028b575f80fd5b506101db61029a3660046115e2565b6107a5565b3480156102aa575f80fd5b506006546102be906001600160a01b031681565b6040516001600160a01b03909116815260200161016b565b3480156102e1575f80fd5b506101db60085481565b3480156102f6575f80fd5b506005546001600160a01b03166102be565b348015610313575f80fd5b5061015e61080a565b348015610327575f80fd5b506101db6103363660046115e2565b610819565b348015610346575f80fd5b506101876103553660046115e2565b61086d565b348015610365575f80fd5b5061027e6103743660046115f9565b610aee565b348015610384575f80fd5b506101bb610393366004611581565b610b63565b3480156103a3575f80fd5b506101db6103b23660046115e2565b610b70565b3480156103c2575f80fd5b506101db60075481565b6101db610e31565b3480156103df575f80fd5b506101db6103ee366004611612565b6001600160a01b039182165f90815260016020908152604080832093909416825291909152205490565b348015610423575f80fd5b5061027e6104323660046115f9565b611050565b60606003805461044690611643565b80601f016020809104026020016040519081016040528092919081815260200182805461047290611643565b80156104bd5780601f10610494576101008083540402835291602001916104bd565b820191905f5260205f20905b8154815290600101906020018083116104a057829003601f168201915b5050505050905090565b5f336104d481858561108d565b60019150505b92915050565b5f336104ed85828561109f565b6104f885858561111b565b506001949350505050565b5f61050c611178565b6006546001600160a01b03166105615760405162461bcd60e51b8152602060048201526015602482015274141bdbdb0e881b9bdd081a5b9a5d1a585b1a5cd959605a1b60448201526064015b60405180910390fd5b5f3411801561056f57505f82115b6105af5760405162461bcd60e51b8152602060048201526011602482015270141bdbdb0e881e995c9bc8185b5bdd5b9d607a1b6044820152606401610558565b5f6105b960025490565b9050805f036105db576105d46105cf8434611689565b611193565b9150610626565b6007545f906105ea8334611689565b6105f491906116a0565b90505f60085483866106069190611689565b61061091906116a0565b905080821061061f5780610621565b815b935050505b5f82116106815760405162461bcd60e51b815260206004820152602360248201527f506f6f6c3a20696e73756666696369656e74206c6971756964697479206d696e6044820152621d195960ea1b6064820152608401610558565b6006546040516323b872dd60e01b8152336004820152306024820152604481018590526001600160a01b03909116906323b872dd906064016020604051808303815f875af11580156106d5573d5f803e3d5ffd5b505050506040513d601f19601f820116820180604052508101906106f991906116bf565b503460075f82825461070b91906116de565b925050819055508260085f82825461072391906116de565b9091555061073390503383611200565b604080513481526020810185905290810183905233907f64b83944e79c3ce8d4c297411de637c3e102d064677aac0c163976ebdcd6f50e9060600160405180910390a25061078d60015f8051602061170583398151915255565b919050565b61079a611238565b6107a35f611265565b565b5f6007545f14806107b65750600854155b156107c257505f919050565b5f6107cf6103e584611689565b9050806103e86007546107e29190611689565b6107ec91906116de565b6008546107f99083611689565b61080391906116a0565b9392505050565b60606004805461044690611643565b5f6007545f148061082a5750600854155b1561083657505f919050565b5f6108436103e584611689565b9050806103e86008546108569190611689565b61086091906116de565b6007546107f99083611689565b5f80610877611178565b5f83116108b65760405162461bcd60e51b815260206004820152600d60248201526c0506f6f6c3a207a65726f206c7609c1b6044820152606401610558565b5f6108c060025490565b905080600754856108d19190611689565b6108db91906116a0565b925080600854856108ec9190611689565b6108f691906116a0565b91505f8311801561090657505f82115b6109525760405162461bcd60e51b815260206004820152601b60248201527f506f6f6c3a20696e73756666696369656e7420726573657276657300000000006044820152606401610558565b61095c33856112b6565b8260075f82825461096d91906116f1565b925050819055508160085f82825461098591906116f1565b909155505060065460405163a9059cbb60e01b8152336004820152602481018490526001600160a01b039091169063a9059cbb906044016020604051808303815f875af11580156109d8573d5f803e3d5ffd5b505050506040513d601f19601f820116820180604052508101906109fc91906116bf565b506040515f90339085908381818185875af1925050503d805f8114610a3c576040519150601f19603f3d011682016040523d82523d5f602084013e610a41565b606091505b5050905080610a8e5760405162461bcd60e51b8152602060048201526019602482015278141bdbdb0e88115512081d1c985b9cd9995c8819985a5b1959603a1b6044820152606401610558565b604080518581526020810185905290810186905233907f1dc8bb69df2b8e91fbdcbfcf93d951b3f0000f085a95fe3f7946d6161439245d9060600160405180910390a25050610ae960015f8051602061170583398151915255565b915091565b610af6611238565b6001600160a01b038116610b415760405162461bcd60e51b8152602060048201526012602482015271506f6f6c3a207a65726f206164647265737360701b6044820152606401610558565b600680546001600160a01b0319166001600160a01b0392909216919091179055565b5f336104d481858561111b565b5f610b79611178565b5f8211610bb85760405162461bcd60e51b815260206004820152600d60248201526c2837b7b61d103d32b9379034b760991b6044820152606401610558565b6006546040516323b872dd60e01b8152336004820152306024820152604481018490526001600160a01b03909116906323b872dd906064016020604051808303815f875af1158015610c0c573d5f803e3d5ffd5b505050506040513d601f19601f82011682018060405250810190610c3091906116bf565b505f610c3e6103e584611689565b9050806103e8600854610c519190611689565b610c5b91906116de565b600754610c689083611689565b610c7291906116a0565b91505f8211610cbf5760405162461bcd60e51b8152602060048201526019602482015278141bdbdb0e881a5b9cdd59999a58da595b9d081bdd5d1c1d5d603a1b6044820152606401610558565b6007548210610d105760405162461bcd60e51b815260206004820152601c60248201527f506f6f6c3a20696e73756666696369656e74206c6971756964697479000000006044820152606401610558565b8260085f828254610d2191906116de565b925050819055508160075f828254610d3991906116f1565b90915550506040515f90339084908381818185875af1925050503d805f8114610d7d576040519150601f19603f3d011682016040523d82523d5f602084013e610d82565b606091505b5050905080610dcf5760405162461bcd60e51b8152602060048201526019602482015278141bdbdb0e88115512081d1c985b9cd9995c8819985a5b1959603a1b6044820152606401610558565b60065460408051868152602081018690526001600160a01b039092169133917ffa2dda1cc1b86e41239702756b13effbc1a092b5c57e3ad320fbe4f3b13fe235910160405180910390a3505061078d60015f8051602061170583398151915255565b5f610e3a611178565b5f3411610e795760405162461bcd60e51b815260206004820152600d60248201526c2837b7b61d103d32b9379034b760991b6044820152606401610558565b5f610e866103e534611689565b9050806103e8600754610e999190611689565b610ea391906116de565b600854610eb09083611689565b610eba91906116a0565b91505f8211610f075760405162461bcd60e51b8152602060048201526019602482015278141bdbdb0e881a5b9cdd59999a58da595b9d081bdd5d1c1d5d603a1b6044820152606401610558565b6008548210610f585760405162461bcd60e51b815260206004820152601c60248201527f506f6f6c3a20696e73756666696369656e74206c6971756964697479000000006044820152606401610558565b3460075f828254610f6991906116de565b925050819055508160085f828254610f8191906116f1565b909155505060065460405163a9059cbb60e01b8152336004820152602481018490526001600160a01b039091169063a9059cbb906044016020604051808303815f875af1158015610fd4573d5f803e3d5ffd5b505050506040513d601f19601f82011682018060405250810190610ff891906116bf565b5060408051348152602081018490525f9133917ffa2dda1cc1b86e41239702756b13effbc1a092b5c57e3ad320fbe4f3b13fe235910160405180910390a35061104d60015f8051602061170583398151915255565b90565b611058611238565b6001600160a01b03811661108157604051631e4fbdf760e01b81525f6004820152602401610558565b61108a81611265565b50565b61109a83838360016112ea565b505050565b6001600160a01b038381165f908152600160209081526040808320938616835292905220545f19811015611115578181101561110757604051637dc7a0d960e11b81526001600160a01b03841660048201526024810182905260448101839052606401610558565b61111584848484035f6112ea565b50505050565b6001600160a01b03831661114457604051634b637e8f60e11b81525f6004820152602401610558565b6001600160a01b03821661116d5760405163ec442f0560e01b81525f6004820152602401610558565b61109a8383836113bc565b6111806114e2565b60025f8051602061170583398151915255565b5f60038211156111f25750805f6111ab6002836116a0565b6111b69060016116de565b90505b818110156111ec579050806002816111d181866116a0565b6111db91906116de565b6111e591906116a0565b90506111b9565b50919050565b811561078d57506001919050565b6001600160a01b0382166112295760405163ec442f0560e01b81525f6004820152602401610558565b6112345f83836113bc565b5050565b6005546001600160a01b031633146107a35760405163118cdaa760e01b8152336004820152602401610558565b600580546001600160a01b038381166001600160a01b0319831681179093556040519116919082907f8be0079c531659141344cd1fd0a4f28419497f9722a3daafe3b4186f6b6457e0905f90a35050565b6001600160a01b0382166112df57604051634b637e8f60e11b81525f6004820152602401610558565b611234825f836113bc565b6001600160a01b0384166113135760405163e602df0560e01b81525f6004820152602401610558565b6001600160a01b03831661133c57604051634a1406b160e11b81525f6004820152602401610558565b6001600160a01b038085165f908152600160209081526040808320938716835292905220829055801561111557826001600160a01b0316846001600160a01b03167f8c5be1e5ebec7d5bd14f71427d1e84f3dd0314c0f7b2291e5b200ac8c7c3b925846040516113ae91815260200190565b60405180910390a350505050565b6001600160a01b0383166113e6578060025f8282546113db91906116de565b909155506114569050565b6001600160a01b0383165f90815260208190526040902054818110156114385760405163391434e360e21b81526001600160a01b03851660048201526024810182905260448101839052606401610558565b6001600160a01b0384165f9081526020819052604090209082900390555b6001600160a01b03821661147257600280548290039055611490565b6001600160a01b0382165f9081526020819052604090208054820190555b816001600160a01b0316836001600160a01b03167fddf252ad1be2c89b69c2b068fc378daa952ba7f163c4a11628f55a4df523b3ef836040516114d591815260200190565b60405180910390a3505050565b6114fb5f60025f80516020611705833981519152611519565b156107a357604051633ee5aeb560e01b815260040160405180910390fd5b5414919050565b5f6020808352835180828501525f5b8181101561154b5785810183015185820160400152820161152f565b505f604082860101526040601f19601f8301168501019250505092915050565b80356001600160a01b038116811461078d575f80fd5b5f8060408385031215611592575f80fd5b61159b8361156b565b946020939093013593505050565b5f805f606084860312156115bb575f80fd5b6115c48461156b565b92506115d26020850161156b565b9150604084013590509250925092565b5f602082840312156115f2575f80fd5b5035919050565b5f60208284031215611609575f80fd5b6108038261156b565b5f8060408385031215611623575f80fd5b61162c8361156b565b915061163a6020840161156b565b90509250929050565b600181811c9082168061165757607f821691505b6020821081036111ec57634e487b7160e01b5f52602260045260245ffd5b634e487b7160e01b5f52601160045260245ffd5b80820281158282048414176104da576104da611675565b5f826116ba57634e487b7160e01b5f52601260045260245ffd5b500490565b5f602082840312156116cf575f80fd5b81518015158114610803575f80fd5b808201808211156104da576104da611675565b818103818111156104da576104da61167556fe9b779b17422d0df92223018b32b4d1fa46e071723d6817e2486d003becc55f00a264697066735822122045a29eeca513680c09fa349642553667dee6fa8b506321e7aabe37709489704e64736f6c63430008140033",
  "linkReferences": {},
  "deployedLinkReferences": {},
  "immutableReferences": {},
  "inputSourceName": "project/contracts/HubarbPool.sol",
  "buildInfoId": "solc-0_8_20-59e2d2fa4506b958cc0134e76eae2292a579f628"
}